{
  "contractName": "LiquidityAmountsTest",
  "abi": [
    {
      "inputs": [
        {
          "internalType": "uint160",
          "name": "sqrtRatioAX96",
          "type": "uint160"
        },
        {
          "internalType": "uint160",
          "name": "sqrtRatioBX96",
          "type": "uint160"
        },
        {
          "internalType": "uint256",
          "name": "amount0",
          "type": "uint256"
        }
      ],
      "name": "getLiquidityForAmount0",
      "outputs": [
        {
          "internalType": "uint128",
          "name": "liquidity",
          "type": "uint128"
        }
      ],
      "stateMutability": "pure",
      "type": "function"
    },
    {
      "inputs": [
        {
          "internalType": "uint160",
          "name": "sqrtRatioAX96",
          "type": "uint160"
        },
        {
          "internalType": "uint160",
          "name": "sqrtRatioBX96",
          "type": "uint160"
        },
        {
          "internalType": "uint256",
          "name": "amount1",
          "type": "uint256"
        }
      ],
      "name": "getLiquidityForAmount1",
      "outputs": [
        {
          "internalType": "uint128",
          "name": "liquidity",
          "type": "uint128"
        }
      ],
      "stateMutability": "pure",
      "type": "function"
    },
    {
      "inputs": [
        {
          "internalType": "uint160",
          "name": "sqrtRatioX96",
          "type": "uint160"
        },
        {
          "internalType": "uint160",
          "name": "sqrtRatioAX96",
          "type": "uint160"
        },
        {
          "internalType": "uint160",
          "name": "sqrtRatioBX96",
          "type": "uint160"
        },
        {
          "internalType": "uint256",
          "name": "amount0",
          "type": "uint256"
        },
        {
          "internalType": "uint256",
          "name": "amount1",
          "type": "uint256"
        }
      ],
      "name": "getLiquidityForAmounts",
      "outputs": [
        {
          "internalType": "uint128",
          "name": "liquidity",
          "type": "uint128"
        }
      ],
      "stateMutability": "pure",
      "type": "function"
    },
    {
      "inputs": [
        {
          "internalType": "uint160",
          "name": "sqrtRatioAX96",
          "type": "uint160"
        },
        {
          "internalType": "uint160",
          "name": "sqrtRatioBX96",
          "type": "uint160"
        },
        {
          "internalType": "uint128",
          "name": "liquidity",
          "type": "uint128"
        }
      ],
      "name": "getAmount0ForLiquidity",
      "outputs": [
        {
          "internalType": "uint256",
          "name": "amount0",
          "type": "uint256"
        }
      ],
      "stateMutability": "pure",
      "type": "function"
    },
    {
      "inputs": [
        {
          "internalType": "uint160",
          "name": "sqrtRatioAX96",
          "type": "uint160"
        },
        {
          "internalType": "uint160",
          "name": "sqrtRatioBX96",
          "type": "uint160"
        },
        {
          "internalType": "uint128",
          "name": "liquidity",
          "type": "uint128"
        }
      ],
      "name": "getAmount1ForLiquidity",
      "outputs": [
        {
          "internalType": "uint256",
          "name": "amount1",
          "type": "uint256"
        }
      ],
      "stateMutability": "pure",
      "type": "function"
    },
    {
      "inputs": [
        {
          "internalType": "uint160",
          "name": "sqrtRatioX96",
          "type": "uint160"
        },
        {
          "internalType": "uint160",
          "name": "sqrtRatioAX96",
          "type": "uint160"
        },
        {
          "internalType": "uint160",
          "name": "sqrtRatioBX96",
          "type": "uint160"
        },
        {
          "internalType": "uint128",
          "name": "liquidity",
          "type": "uint128"
        }
      ],
      "name": "getAmountsForLiquidity",
      "outputs": [
        {
          "internalType": "uint256",
          "name": "amount0",
          "type": "uint256"
        },
        {
          "internalType": "uint256",
          "name": "amount1",
          "type": "uint256"
        }
      ],
      "stateMutability": "pure",
      "type": "function"
    }
  ],
  "bytecode": "0x608060405234801561001057600080fd5b50610637806100206000396000f3fe608060405234801561001057600080fd5b50600436106100625760003560e01c806308c0f7951461006757806329e24cb7146100b95780636098fd4a1461010b57806367df6e891461014d5780636ac69a8e14610183578063c72e160b146101c3575b600080fd5b61009d6004803603606081101561007d57600080fd5b506001600160a01b03813581169160208101359091169060400135610222565b604080516001600160801b039092168252519081900360200190f35b6100f9600480360360608110156100cf57600080fd5b5080356001600160a01b0390811691602081013590911690604001356001600160801b0316610239565b60408051918252519081900360200190f35b61009d600480360360a081101561012157600080fd5b506001600160a01b03813581169160208101358216916040820135169060608101359060800135610246565b61009d6004803603606081101561016357600080fd5b506001600160a01b03813581169160208101359091169060400135610261565b6100f96004803603606081101561019957600080fd5b5080356001600160a01b0390811691602081013590911690604001356001600160801b031661026e565b610209600480360360808110156101d957600080fd5b5080356001600160a01b0390811691602081013582169160408201351690606001356001600160801b031661027b565b6040805192835260208301919091528051918290030190f35b600061022f848484610298565b90505b9392505050565b600061022f8484846102da565b6000610255868686868661031d565b90505b95945050505050565b600061022f8484846103d5565b600061022f848484610433565b60008061028a8686868661049c565b915091505b94509492505050565b6000826001600160a01b0316846001600160a01b031611156102b8579192915b61022f6102d583600160601b8787036001600160a01b0316610537565b6105e6565b6000826001600160a01b0316846001600160a01b031611156102fa579192915b61022f826001600160801b03168585036001600160a01b0316600160601b610537565b6000836001600160a01b0316856001600160a01b0316111561033d579293925b846001600160a01b0316866001600160a01b031611610368576103618585856103d5565b9050610258565b836001600160a01b0316866001600160a01b031610156103ca57600061038f8786866103d5565b9050600061039e878986610298565b9050806001600160801b0316826001600160801b0316106103bf57806103c1565b815b92505050610258565b610255858584610298565b6000826001600160a01b0316846001600160a01b031611156103f5579192915b6000610418856001600160a01b0316856001600160a01b0316600160601b610537565b90506102586102d584838888036001600160a01b0316610537565b6000826001600160a01b0316846001600160a01b03161115610453579192915b836001600160a01b031661048c606060ff16846001600160801b0316901b8686036001600160a01b0316866001600160a01b0316610537565b8161049357fe5b04949350505050565b600080836001600160a01b0316856001600160a01b031611156104bd579293925b846001600160a01b0316866001600160a01b0316116104e8576104e1858585610433565b915061028f565b836001600160a01b0316866001600160a01b031610156105215761050d868585610433565b915061051a8587856102da565b905061028f565b61052c8585856102da565b905094509492505050565b600080806000198587098686029250828110908390030390508061056d576000841161056257600080fd5b508290049050610232565b80841161057957600080fd5b6000848688096000868103871696879004966002600389028118808a02820302808a02820302808a02820302808a02820302808a02820302808a02909103029181900381900460010186841190950394909402919094039290920491909117919091029150509392505050565b806001600160801b03811681146105fc57600080fd5b91905056fea2646970667358221220651bcf0999ff9b361cd60706838df35ce4687bba817bd459c67a240560a1be3664736f6c63430007060033",
  "immutableReferences": {},
  "source": "// SPDX-License-Identifier: GPL-2.0-or-later\npragma solidity >=0.5.0;\n\nimport \"../libraries/LiquidityAmounts.sol\";\n\n/// @title Liquidity amount functions\n/// @notice Provides functions for computing liquidity amounts from token amounts and prices\ncontract LiquidityAmountsTest {\n    /// @notice Computes the amount of liquidity received for a given amount of token0 and price range\n    /// @dev Calculates amount0 * (sqrt(upper) * sqrt(lower)) / (sqrt(upper) - sqrt(lower))\n    /// @param sqrtRatioAX96 A sqrt price representing the first tick boundary\n    /// @param sqrtRatioBX96 A sqrt price representing the second tick boundary\n    /// @param amount0 The amount0 being sent in\n    /// @return liquidity The amount of returned liquidity\n    function getLiquidityForAmount0(\n        uint160 sqrtRatioAX96,\n        uint160 sqrtRatioBX96,\n        uint256 amount0\n    ) external pure returns (uint128 liquidity) {\n        return\n            LiquidityAmounts.getLiquidityForAmount0(\n                sqrtRatioAX96,\n                sqrtRatioBX96,\n                amount0\n            );\n    }\n\n    /// @notice Computes the amount of liquidity received for a given amount of token1 and price range\n    /// @dev Calculates amount1 / (sqrt(upper) - sqrt(lower)).\n    /// @param sqrtRatioAX96 A sqrt price representing the first tick boundary\n    /// @param sqrtRatioBX96 A sqrt price representing the second tick boundary\n    /// @param amount1 The amount1 being sent in\n    /// @return liquidity The amount of returned liquidity\n    function getLiquidityForAmount1(\n        uint160 sqrtRatioAX96,\n        uint160 sqrtRatioBX96,\n        uint256 amount1\n    ) external pure returns (uint128 liquidity) {\n        return\n            LiquidityAmounts.getLiquidityForAmount1(\n                sqrtRatioAX96,\n                sqrtRatioBX96,\n                amount1\n            );\n    }\n\n    /// @notice Computes the maximum amount of liquidity received for a given amount of token0, token1, the current\n    /// pool prices and the prices at the tick boundaries\n    /// @param sqrtRatioX96 A sqrt price representing the current pool prices\n    /// @param sqrtRatioAX96 A sqrt price representing the first tick boundary\n    /// @param sqrtRatioBX96 A sqrt price representing the second tick boundary\n    /// @param amount0 The amount of token0 being sent in\n    /// @param amount1 The amount of token1 being sent in\n    /// @return liquidity The maximum amount of liquidity received\n    function getLiquidityForAmounts(\n        uint160 sqrtRatioX96,\n        uint160 sqrtRatioAX96,\n        uint160 sqrtRatioBX96,\n        uint256 amount0,\n        uint256 amount1\n    ) external pure returns (uint128 liquidity) {\n        return\n            LiquidityAmounts.getLiquidityForAmounts(\n                sqrtRatioX96,\n                sqrtRatioAX96,\n                sqrtRatioBX96,\n                amount0,\n                amount1\n            );\n    }\n\n    /// @notice Computes the amount of token0 for a given amount of liquidity and a price range\n    /// @param sqrtRatioAX96 A sqrt price representing the first tick boundary\n    /// @param sqrtRatioBX96 A sqrt price representing the second tick boundary\n    /// @param liquidity The liquidity being valued\n    /// @return amount0 The amount of token0\n    function getAmount0ForLiquidity(\n        uint160 sqrtRatioAX96,\n        uint160 sqrtRatioBX96,\n        uint128 liquidity\n    ) external pure returns (uint256 amount0) {\n        return\n            LiquidityAmounts.getAmount0ForLiquidity(\n                sqrtRatioAX96,\n                sqrtRatioBX96,\n                liquidity\n            );\n    }\n\n    /// @notice Computes the amount of token1 for a given amount of liquidity and a price range\n    /// @param sqrtRatioAX96 A sqrt price representing the first tick boundary\n    /// @param sqrtRatioBX96 A sqrt price representing the second tick boundary\n    /// @param liquidity The liquidity being valued\n    /// @return amount1 The amount of token1\n    function getAmount1ForLiquidity(\n        uint160 sqrtRatioAX96,\n        uint160 sqrtRatioBX96,\n        uint128 liquidity\n    ) external pure returns (uint256 amount1) {\n        return\n            LiquidityAmounts.getAmount1ForLiquidity(\n                sqrtRatioAX96,\n                sqrtRatioBX96,\n                liquidity\n            );\n    }\n\n    /// @notice Computes the token0 and token1 value for a given amount of liquidity, the current\n    /// pool prices and the prices at the tick boundaries\n    /// @param sqrtRatioX96 A sqrt price representing the current pool prices\n    /// @param sqrtRatioAX96 A sqrt price representing the first tick boundary\n    /// @param sqrtRatioBX96 A sqrt price representing the second tick boundary\n    /// @param liquidity The liquidity being valued\n    /// @return amount0 The amount of token0\n    /// @return amount1 The amount of token1\n    function getAmountsForLiquidity(\n        uint160 sqrtRatioX96,\n        uint160 sqrtRatioAX96,\n        uint160 sqrtRatioBX96,\n        uint128 liquidity\n    ) external pure returns (uint256 amount0, uint256 amount1) {\n        return\n            LiquidityAmounts.getAmountsForLiquidity(\n                sqrtRatioX96,\n                sqrtRatioAX96,\n                sqrtRatioBX96,\n                liquidity\n            );\n    }\n}\n",
  "sourcePath": "/Users/shifenghu/Documents/work/study/blockchain/uniswap/v3-ui/uniswap-v3/contracts/test/LiquidityAmountsTest.sol",
  "compiler": {
    "name": "solc",
    "version": "0.7.6+commit.7338295f.Emscripten.clang"
  },
  "schemaVersion": "3.4.1",
  "updatedAt": "2021-07-23T07:16:04.873Z",
  "devdoc": {
    "kind": "dev",
    "methods": {
      "getAmount0ForLiquidity(uint160,uint160,uint128)": {
        "params": {
          "liquidity": "The liquidity being valued",
          "sqrtRatioAX96": "A sqrt price representing the first tick boundary",
          "sqrtRatioBX96": "A sqrt price representing the second tick boundary"
        },
        "returns": {
          "amount0": "The amount of token0"
        }
      },
      "getAmount1ForLiquidity(uint160,uint160,uint128)": {
        "params": {
          "liquidity": "The liquidity being valued",
          "sqrtRatioAX96": "A sqrt price representing the first tick boundary",
          "sqrtRatioBX96": "A sqrt price representing the second tick boundary"
        },
        "returns": {
          "amount1": "The amount of token1"
        }
      },
      "getAmountsForLiquidity(uint160,uint160,uint160,uint128)": {
        "params": {
          "liquidity": "The liquidity being valued",
          "sqrtRatioAX96": "A sqrt price representing the first tick boundary",
          "sqrtRatioBX96": "A sqrt price representing the second tick boundary",
          "sqrtRatioX96": "A sqrt price representing the current pool prices"
        },
        "returns": {
          "amount0": "The amount of token0",
          "amount1": "The amount of token1"
        }
      },
      "getLiquidityForAmount0(uint160,uint160,uint256)": {
        "details": "Calculates amount0 * (sqrt(upper) * sqrt(lower)) / (sqrt(upper) - sqrt(lower))",
        "params": {
          "amount0": "The amount0 being sent in",
          "sqrtRatioAX96": "A sqrt price representing the first tick boundary",
          "sqrtRatioBX96": "A sqrt price representing the second tick boundary"
        },
        "returns": {
          "liquidity": "The amount of returned liquidity"
        }
      },
      "getLiquidityForAmount1(uint160,uint160,uint256)": {
        "details": "Calculates amount1 / (sqrt(upper) - sqrt(lower)).",
        "params": {
          "amount1": "The amount1 being sent in",
          "sqrtRatioAX96": "A sqrt price representing the first tick boundary",
          "sqrtRatioBX96": "A sqrt price representing the second tick boundary"
        },
        "returns": {
          "liquidity": "The amount of returned liquidity"
        }
      },
      "getLiquidityForAmounts(uint160,uint160,uint160,uint256,uint256)": {
        "params": {
          "amount0": "The amount of token0 being sent in",
          "amount1": "The amount of token1 being sent in",
          "sqrtRatioAX96": "A sqrt price representing the first tick boundary",
          "sqrtRatioBX96": "A sqrt price representing the second tick boundary",
          "sqrtRatioX96": "A sqrt price representing the current pool prices"
        },
        "returns": {
          "liquidity": "The maximum amount of liquidity received"
        }
      }
    },
    "title": "Liquidity amount functions",
    "version": 1
  },
  "userdoc": {
    "kind": "user",
    "methods": {
      "getAmount0ForLiquidity(uint160,uint160,uint128)": {
        "notice": "Computes the amount of token0 for a given amount of liquidity and a price range"
      },
      "getAmount1ForLiquidity(uint160,uint160,uint128)": {
        "notice": "Computes the amount of token1 for a given amount of liquidity and a price range"
      },
      "getAmountsForLiquidity(uint160,uint160,uint160,uint128)": {
        "notice": "Computes the token0 and token1 value for a given amount of liquidity, the current pool prices and the prices at the tick boundaries"
      },
      "getLiquidityForAmount0(uint160,uint160,uint256)": {
        "notice": "Computes the amount of liquidity received for a given amount of token0 and price range"
      },
      "getLiquidityForAmount1(uint160,uint160,uint256)": {
        "notice": "Computes the amount of liquidity received for a given amount of token1 and price range"
      },
      "getLiquidityForAmounts(uint160,uint160,uint160,uint256,uint256)": {
        "notice": "Computes the maximum amount of liquidity received for a given amount of token0, token1, the current pool prices and the prices at the tick boundaries"
      }
    },
    "notice": "Provides functions for computing liquidity amounts from token amounts and prices",
    "version": 1
  }
}