{
  "contractName": "NFTDescriptor",
  "abi": [
    {
      "inputs": [
        {
          "components": [
            {
              "internalType": "uint256",
              "name": "tokenId",
              "type": "uint256"
            },
            {
              "internalType": "address",
              "name": "quoteTokenAddress",
              "type": "address"
            },
            {
              "internalType": "address",
              "name": "baseTokenAddress",
              "type": "address"
            },
            {
              "internalType": "string",
              "name": "quoteTokenSymbol",
              "type": "string"
            },
            {
              "internalType": "string",
              "name": "baseTokenSymbol",
              "type": "string"
            },
            {
              "internalType": "uint8",
              "name": "quoteTokenDecimals",
              "type": "uint8"
            },
            {
              "internalType": "uint8",
              "name": "baseTokenDecimals",
              "type": "uint8"
            },
            {
              "internalType": "bool",
              "name": "flipRatio",
              "type": "bool"
            },
            {
              "internalType": "int24",
              "name": "tickLower",
              "type": "int24"
            },
            {
              "internalType": "int24",
              "name": "tickUpper",
              "type": "int24"
            },
            {
              "internalType": "int24",
              "name": "tickCurrent",
              "type": "int24"
            },
            {
              "internalType": "int24",
              "name": "tickSpacing",
              "type": "int24"
            },
            {
              "internalType": "uint24",
              "name": "fee",
              "type": "uint24"
            },
            {
              "internalType": "address",
              "name": "poolAddress",
              "type": "address"
            }
          ],
          "internalType": "struct NFTDescriptor.ConstructTokenURIParams",
          "name": "params",
          "type": "tuple"
        }
      ],
      "name": "constructTokenURI",
      "outputs": [
        {
          "internalType": "string",
          "name": "",
          "type": "string"
        }
      ],
      "stateMutability": "pure",
      "type": "function",
      "constant": true
    }
  ],
  "bytecode": "0x615b4d610026600b82828239805160001a60731461001957fe5b30600052607381538281f3fe73000000000000000000000000000000000000000030146080604052600436106100355760003560e01c8063c49917d71461003a575b600080fd5b61004d610048366004613b51565b610063565b60405161005a9190614191565b60405180910390f35b6060600061007e83610079856101800151610170565b6103b6565b905060006100b26100928560600151610471565b61009f8660800151610471565b6100ad876101a001516105dd565b6105f3565b905060006101006100c68660000151610625565b6100d38760800151610471565b6100e088602001516105dd565b6100ed89604001516105dd565b6100fb8a6101800151610170565b610700565b9050600061011561011087610736565b610971565b9050610145848484846040516020016101319493929190613ed2565b604051602081830303815290604052610971565b604051602001610155919061414c565b6040516020818303038152906040529450505050505b919050565b606062ffffff821661019b5750604080518082019091526002815261302560f01b602082015261016b565b816000805b62ffffff8316156101eb5760ff8116156101bc576001016101d5565b600a62ffffff84160662ffffff166000146101d5576001015b600190910190600a62ffffff84160492506101a0565b6101f3613a4b565b6000600584106102e8576000600461020e8660ff8716610abf565b101561021b57600161021e565b60005b60ff90811691506102329085166001610abf565b61023d866005610abf565b106102695761026461025360ff86166001610abf565b61025e876005610abf565b90610abf565b61026c565b60005b60ff85166080850181905290925061028b9060019061025e9085610b1c565b60ff90811660a085015260808401516102b29183916102ac91166001610abf565b90610b1c565b60ff90811660408501526102da9082906102ac906102d39088166001610b1c565b8590610b1c565b60ff16602084015250610358565b6102f3600585610abf565b6002608084018190529091506103119060019061025e908490610b1c565b60ff90811660a08401526103339061032c9085166002610b1c565b8290610b1c565b60ff1660208301819052610348906002610abf565b60ff166040830152600160c08301525b6103776103688560ff8616610abf565b62ffffff891690600a0a610b76565b8252600160e08301526004841161038f57600061039a565b61039a846004610abf565b60ff1660608301526103ab82610bdd565b979650505050505050565b6060816103c68460600151610471565b6103d38560800151610471565b61040c8660e00151156103eb578661012001516103f2565b8661010001515b8761016001518860c001518960a001518a60e00151610ded565b6104458760e00151156104245787610100015161042b565b8761012001515b8861016001518960c001518a60a001518b60e00151610ded565b604051602001610459959493929190613fb0565b60405160208183030381529060405290505b92915050565b6060816000805b82518160ff1610156104bd57828160ff168151811061049357fe5b6020910101516001600160f81b031916601160f91b14156104b5576001909101905b600101610478565b5060ff8116156105d55760008160ff1683510167ffffffffffffffff811180156104e657600080fd5b506040519080825280601f01601f191660200182016040528015610511576020820181803683370190505b5090506000805b84518160ff1610156105c857848160ff168151811061053357fe5b6020910101516001600160f81b031916601160f91b141561057d57601760fa1b83838060010194508151811061056557fe5b60200101906001600160f81b031916908160001a9053505b848160ff168151811061058c57fe5b602001015160f81c60f81b8383806001019450815181106105a957fe5b60200101906001600160f81b031916908160001a905350600101610518565b508194505050505061016b565b509192915050565b606061046b6001600160a01b0383166014610f02565b60608383838660405160200161060c9493929190613da9565b60405160208183030381529060405290505b9392505050565b60608161064a57506040805180820190915260018152600360fc1b602082015261016b565b8160005b811561066257600101600a8204915061064e565b60008167ffffffffffffffff8111801561067b57600080fd5b506040519080825280601f01601f1916602001820160405280156106a6576020820181803683370190505b50859350905060001982015b83156106f757600a840660300160f81b828280600190039350815181106106d557fe5b60200101906001600160f81b031916908160001a905350600a840493506106b2565b50949350505050565b6060838584848960405160200161071b959493929190614069565b60405160208183030381529060405290505b95945050505050565b60606000604051806102a0016040528061075385602001516105dd565b815260200161076585604001516105dd565b8152602001846101a001516001600160a01b0316815260200184606001518152602001846080015181526020016107a0856101800151610170565b815260200184610100015160020b815260200184610120015160020b815260200184610160015160020b81526020016107e9856101000151866101200151876101400151611061565b60000b81526020018460000151815260200161081385602001516001600160a01b03166088611098565b815260200161083085604001516001600160a01b03166088611098565b815260200161084d85602001516001600160a01b03166000611098565b815260200161086a85604001516001600160a01b03166000611098565b815260200161089d61088f86602001516001600160a01b0316601088600001516110a7565b600060ff60106101126110c7565b81526020016108d06108c286604001516001600160a01b0316601088600001516110a7565b600060ff60646101e46110c7565b81526020016108f561088f86602001516001600160a01b0316602088600001516110a7565b815260200161091a6108c286604001516001600160a01b0316602088600001516110a7565b815260200161093f61088f86602001516001600160a01b0316603088600001516110a7565b81526020016109646108c286604001516001600160a01b0316603088600001516110a7565b9052905061061e8161110f565b6060815160001415610992575060408051602081019091526000815261016b565b6000604051806060016040528060408152602001614db2604091399050600060038451600201816109bf57fe5b04600402905060008160200167ffffffffffffffff811180156109e157600080fd5b506040519080825280601f01601f191660200182016040528015610a0c576020820181803683370190505b509050818152600183018586518101602084015b81831015610a7a5760039283018051603f601282901c811687015160f890811b8552600c83901c8216880151811b6001860152600683901c8216880151811b60028601529116860151901b93820193909352600401610a20565b600389510660018114610a945760028114610aa557610ab1565b613d3d60f01b600119830152610ab1565b603d60f81b6000198301525b509398975050505050505050565b600082821115610b16576040805162461bcd60e51b815260206004820152601e60248201527f536166654d6174683a207375627472616374696f6e206f766572666c6f770000604482015290519081900360640190fd5b50900390565b60008282018381101561061e576040805162461bcd60e51b815260206004820152601b60248201527f536166654d6174683a206164646974696f6e206f766572666c6f770000000000604482015290519081900360640190fd5b6000808211610bcc576040805162461bcd60e51b815260206004820152601a60248201527f536166654d6174683a206469766973696f6e206279207a65726f000000000000604482015290519081900360640190fd5b818381610bd557fe5b049392505050565b60606000826020015160ff1667ffffffffffffffff81118015610bff57600080fd5b506040519080825280601f01601f191660200182016040528015610c2a576020820181803683370190505b5090508260e0015115610c6457602560f81b81600183510381518110610c4c57fe5b60200101906001600160f81b031916908160001a9053505b8260c0015115610cc157600360fc1b81600081518110610c8057fe5b60200101906001600160f81b031916908160001a905350601760f91b81600181518110610ca957fe5b60200101906001600160f81b031916908160001a9053505b608083015160ff165b60a0840151610cdd9060ff166001610b1c565b811015610d1457603060f81b828281518110610cf557fe5b60200101906001600160f81b031916908160001a905350600101610cca565b505b82511561046b576000836060015160ff16118015610d415750826060015160ff16836040015160ff16145b15610d845760408301805160ff600019820181169092528251601760f91b92849216908110610d6c57fe5b60200101906001600160f81b031916908160001a9053505b8251610d9690603090600a9006610b1c565b60f81b818460400180518091906001900360ff1660ff1681525060ff1681518110610dbd57fe5b60200101906001600160f81b031916908160001a905350600a8360000181815181610de457fe5b04905250610d16565b606084600281900b620d89e71981610e0157fe5b050260020b8660020b1415610e5b578115610e37576040518060400160405280600381526020016209a82b60eb1b815250610e54565b6040518060400160405280600381526020016226a4a760e91b8152505b905061072d565b84600281900b620d89e881610e6c57fe5b050260020b8660020b1415610ec2578115610ea2576040518060400160405280600381526020016226a4a760e91b815250610e54565b5060408051808201909152600381526209a82b60eb1b602082015261072d565b6000610ecd87611387565b90508215610eef57610eec600160c01b6001600160a01b038316610b76565b90505b610efa8186866116b9565b91505061072d565b606060008260020260020167ffffffffffffffff81118015610f2357600080fd5b506040519080825280601f01601f191660200182016040528015610f4e576020820181803683370190505b509050600360fc1b81600081518110610f6357fe5b60200101906001600160f81b031916908160001a905350600f60fb1b81600181518110610f8c57fe5b60200101906001600160f81b031916908160001a905350600160028402015b600181111561100d576f181899199a1a9b1b9c1cb0b131b232b360811b85600f1660108110610fd657fe5b1a60f81b828281518110610fe657fe5b60200101906001600160f81b031916908160001a90535060049490941c9360001901610fab565b50831561061e576040805162461bcd60e51b815260206004820181905260248201527f537472696e67733a20686578206c656e67746820696e73756666696369656e74604482015290519081900360640190fd5b60008360020b8260020b121561107a575060001961061e565b8260020b8260020b13156110905750600161061e565b50600061061e565b606061061e83831c6003611879565b600060ff826110b68686611933565b02816110be57fe5b06949350505050565b6060611105611100846102ac6110dd888a610abf565b6110fa6110ea888a610abf565b6110f48d8d610abf565b9061193a565b90610b76565b610625565b9695505050505050565b606061111a82611993565b6111368360000151846020015185606001518660800151611ff2565b61114d846060015185608001518660a0015161231d565b61116b8560c001518660e0015187610100015188610120015161246d565b61118b61117c876101400151610625565b8760c001518860e00151612750565b61119e8761014001518860400151612b68565b6040516020018087805190602001908083835b602083106111d05780518252601f1990920191602091820191016111b1565b51815160209384036101000a600019018019909216911617905289519190930192890191508083835b602083106112185780518252601f1990920191602091820191016111f9565b51815160209384036101000a600019018019909216911617905288519190930192880191508083835b602083106112605780518252601f199092019160209182019101611241565b51815160209384036101000a600019018019909216911617905287519190930192870191508083835b602083106112a85780518252601f199092019160209182019101611289565b51815160209384036101000a600019018019909216911617905286519190930192860191508083835b602083106112f05780518252601f1990920191602091820191016112d1565b51815160209384036101000a600019018019909216911617905285519190930192850191508083835b602083106113385780518252601f199092019160209182019101611319565b5181516020939093036101000a6000190180199091169216919091179052651e17b9bb339f60d11b92019182525060408051808303601919018152600690920190529998505050505050505050565b60008060008360020b1261139e578260020b6113a6565b8260020b6000035b9050620d89e88111156113e4576040805162461bcd60e51b81526020600482015260016024820152601560fa1b604482015290519081900360640190fd5b6000600182166113f857600160801b61140a565b6ffffcb933bd6fad37aa2d162d1a5940015b70ffffffffffffffffffffffffffffffffff169050600282161561143e576ffff97272373d413259a46990580e213a0260801c5b600482161561145d576ffff2e50f5f656932ef12357cf3c7fdcc0260801c5b600882161561147c576fffe5caca7e10e4e61c3624eaa0941cd00260801c5b601082161561149b576fffcb9843d60f6159c9db58835c9266440260801c5b60208216156114ba576fff973b41fa98c081472e6896dfb254c00260801c5b60408216156114d9576fff2ea16466c96a3843ec78b326b528610260801c5b60808216156114f8576ffe5dee046a99a2a811c461f1969c30530260801c5b610100821615611518576ffcbe86c7900a88aedcffc83b479aa3a40260801c5b610200821615611538576ff987a7253ac413176f2b074cf7815e540260801c5b610400821615611558576ff3392b0822b70005940c7a398e4b70f30260801c5b610800821615611578576fe7159475a2c29b7443b29c7fa6e889d90260801c5b611000821615611598576fd097f3bdfd2022b8845ad8f792aa58250260801c5b6120008216156115b8576fa9f746462d870fdf8a65dc1f90e061e50260801c5b6140008216156115d8576f70d869a156d2a1b890bb3df62baf32f70260801c5b6180008216156115f8576f31be135f97d08fd981231505542fcfa60260801c5b62010000821615611619576f09aa508b5b7a84e1c677de54f3e99bc90260801c5b62020000821615611639576e5d6af8dedb81196699c329225ee6040260801c5b62040000821615611658576d2216e584f5fa1ea926041bedfe980260801c5b62080000821615611675576b048a170391f7dc42444e8fa20260801c5b60008460020b131561169057806000198161168c57fe5b0490505b6401000000008106156116a45760016116a7565b60005b60ff16602082901c0192505050919050565b606060006116c8858585612be0565b905060006116db8283600160401b612ce2565b9050600160601b821080156117135761170c8272047bf19673df52e37f2410011d100000000000600160801b612ce2565b9150611728565b61172582620186a0600160801b612ce2565b91505b8160005b811561174057600101600a8204915061172c565b600019016000806117518684612d91565b915091508015611762576001909201915b61176a613a4b565b85156117d757611789611781602b60ff8716610abf565b600790610b1c565b60ff9081166020830152600260808301526117af906001906102ac90602b908816610abf565b60ff90811660a083015260208201516117ca91166001610abf565b60ff16604082015261184e565b60098460ff1610611820576117f060ff85166004610abf565b60ff16602082018190526005608083015261180c906001610abf565b60ff1660a08201526004604082015261184e565b60066020820152600560408201819052611845906001906102ac9060ff881690610abf565b60ff1660608201525b82815285151560c0820152600060e082015261186981610bdd565b9c9b505050505050505050505050565b606060008260020267ffffffffffffffff8111801561189757600080fd5b506040519080825280601f01601f1916602001820160405280156118c2576020820181803683370190505b5080519091505b801561192b576f181899199a1a9b1b9c1cb0b131b232b360811b85600f16601081106118f157fe5b1a60f81b82600183038151811061190457fe5b60200101906001600160f81b031916908160001a90535060049490941c93600019016118c9565b509392505050565b1c60ff1690565b6000826119495750600061046b565b8282028284828161195657fe5b041461061e5760405162461bcd60e51b8152600401808060200182810382526021815260200180614fd16021913960400191505060405180910390fd5b6060611a288261016001516040516020018080614b8b6081913960810182805190602001908083835b602083106119db5780518252601f1990920191602091820191016119bc565b6001836020036101000a038019825116818451168082178552505050505050905001806813979f1e17b9bb339f60b91b815250600901915050604051602081830303815290604052610971565b611b8a836101e0015184610200015185610180015160405160200180806146c86063913960630184805190602001908083835b60208310611a7a5780518252601f199092019160209182019101611a5b565b51815160209384036101000a600019018019909216911617905265272063793d2760d01b919093019081528551600690910192860191508083835b60208310611ad45780518252601f199092019160209182019101611ab5565b51815160209384036101000a6000190180199092169116179052722720723d273132307078272066696c6c3d272360681b919093019081528451601390910192850191508083835b60208310611b3b5780518252601f199092019160209182019101611b1c565b6001836020036101000a038019825116818451168082178552505050505050905001806813979f1e17b9bb339f60b91b8152506009019350505050604051602081830303815290604052610971565b611bdb846102200151856102400151866101a0015160405160200180806146c860639139606301848051906020019080838360208310611a7a5780518252601f199092019160209182019101611a5b565b611cf0856102600151866102800151876101c0015160405160200180806146c86063913960630184805190602001908083835b60208310611c2d5780518252601f199092019160209182019101611c0e565b51815160209384036101000a600019018019909216911617905265272063793d2760d01b919093019081528551600690910192860191508083835b60208310611c875780518252601f199092019160209182019101611c68565b51815160001960209485036101000a01908116901991909116179052722720723d273130307078272066696c6c3d272360681b939091019283528451601390930192908501915080838360208310611b3b5780518252601f199092019160209182019101611b1c565b6101608601516040516020018060566144438239605601602c614df28239651e3232b3399f60d11b602c820152603201604b614b408239604b0186805190602001908083835b60208310611d555780518252601f199092019160209182019101611d36565b6001836020036101000a03801982511681845116808217855250505050505090500180615678603e9139603e0185805190602001908083835b60208310611dad5780518252601f199092019160209182019101611d8e565b6001836020036101000a03801982511681845116808217855250505050505090500180614c0c603e9139603e0184805190602001908083835b60208310611e055780518252601f199092019160209182019101611de6565b5181516020939093036101000a6000190180199091169216919091179052631110179f60e11b920191825250600401603b61433b8239603b0183805190602001908083835b60208310611e695780518252601f199092019160209182019101611e4a565b6001836020036101000a0380198251168184511680821785525050505050509050018061478860999139609901607f6152298239607f0160886155f0823960880160416148218239604101605d6157b08239605d0160726152d5823960720160496142a4823960490160be614a82823960be0160716145548239607101607561516c82396075016066614862823960660160a4614e1e823960a40160856156b682397f3c6720636c69702d706174683d2275726c2823636f726e65727329223e00000060858201526b1e3932b1ba103334b6361e9160a11b60a2820152825160ae9091019060208401908083835b60208310611f765780518252601f199092019160209182019101611f57565b6001836020036101000a038019825116818451168082178552505050505050905001806148c860319139603101604e6142ed8239604e01605d61472b8239605d016041614d7182396041016052614c4a8239605201607561573b8239607501955050505050506040516020818303038152906040529050919050565b60608382858488878a89604051602001808061589360259139602501607d614a058239607d0189805190602001908083835b602083106120435780518252601f199092019160209182019101612024565b51815160209384036101000a600019018019909216911617905264010714051160dd1b919093019081528a516005909101928b0191508083835b6020831061209c5780518252601f19909201916020918201910161207d565b6001836020036101000a038019825116818451168082178552505050505050905001806148f960799139607901608661580d823960860187805190602001908083835b602083106120fe5780518252601f1990920191602091820191016120df565b51815160209384036101000a600019018019909216911617905264010714051160dd1b919093019081528851600590910192890191508083835b602083106121575780518252601f199092019160209182019101612138565b6001836020036101000a038019825116818451168082178552505050505050905001806144cf60859139608501607b61545e8239607b0185805190602001908083835b602083106121b95780518252601f19909201916020918201910161219a565b51815160209384036101000a600019018019909216911617905264010714051160dd1b919093019081528651600590910192870191508083835b602083106122125780518252601f1990920191602091820191016121f3565b6001836020036101000a03801982511681845116808217855250505050505090500180614619605d9139605d0160a36150c9823960a30183805190602001908083835b602083106122745780518252601f199092019160209182019101612255565b51815160209384036101000a600019018019909216911617905264010714051160dd1b919093019081528451600590910192850191508083835b602083106122cd5780518252601f1990920191602091820191016122ae565b6001836020036101000a03801982511681845116808217855250505050505090500180614219608b9139608b01985050505050505050506040516020818303038152906040529050949350505050565b6060838383604051602001808061437660cd913960cd0184805190602001908083835b6020831061235f5780518252601f199092019160209182019101612340565b6001836020036101000a03801982511681845116808217855250505050505090500180602f60f81b81525060010183805190602001908083835b602083106123b85780518252601f199092019160209182019101612399565b6001836020036101000a03801982511681845116808217855250505050505090500180615a3c6077913960770182805190602001908083835b602083106124105780518252601f1990920191602091820191016123f1565b5181516020939093036101000a60001901801990911692169190911790526a1e17ba32bc3a1f1e17b39f60a91b920191825250600b0160736158dc8239607301935050505060405160208183030381529060405290509392505050565b606060008260000b6001146124d4578260000b600019146124ab5760405180604001604052806005815260200164236e6f6e6560d81b8152506124cf565b6040518060400160405280600a81526020016911b330b23296b237bbb760b11b8152505b6124f6565b60405180604001604052806008815260200167023666164652d75760c41b8152505b90506000612505878787612e02565b90508181838361251488613050565b60405160200180806c078ce40dac2e6d67a44eae4d85609b1b815250600d0186805190602001908083835b6020831061255e5780518252601f19909201916020918201910161253f565b5181516020939093036101000a600019018019909116921691909117905261149160f11b9201918252506002016077614ec2823960770185805190602001908083835b602083106125c05780518252601f1990920191602091820191016125a1565b6001836020036101000a038019825116818451168082178552505050505050905001806145c56054913960540180700785ece7c78ce40dac2e6d67a44eae4d85607b1b81525060110184805190602001908083835b602083106126345780518252601f199092019160209182019101612615565b5181516020939093036101000a600019018019909116921691909117905261149160f11b9201918252506002016029614f3982396029016045614f8c823960450180681e3830ba3410321e9160b91b81525060090183805190602001908083835b602083106126b45780518252601f199092019160209182019101612695565b6001836020036101000a038019825116818451168082178552505050505050905001806151e16048913960480182805190602001908083835b6020831061270c5780518252601f1990920191602091820191016126ed565b6001836020036101000a0380198251168184511680821785525050505050509050019550505050505060405160208183030381529060405292505050949350505050565b6060600061275d846134bb565b9050600061276a846134bb565b865183518251929350600490910191600a918201910160008061278d8a8a6135c5565b915091506127a085600401600702610625565b8b6127b086600401600702610625565b896127c087600401600702610625565b8a878760405160200180806152a8602d9139602d01806c1e3932b1ba103bb4b23a341e9160991b815250600d0189805190602001908083835b602083106128185780518252601f1990920191602091820191016127f9565b6001836020036101000a03801982511681845116808217855250505050505090500180614c9c603d9139603d01608d61594f8239608d0188805190602001908083835b6020831061287a5780518252601f19909201916020918201910161285b565b5181516020939093036101000a60001901801990911692169190911790526a1e17ba32bc3a1f1e17b39f60a91b920191825250600b01602d615aeb8239602d01806c1e3932b1ba103bb4b23a341e9160991b815250600d0187805190602001908083835b602083106128fd5780518252601f1990920191602091820191016128de565b6001836020036101000a03801982511681845116808217855250505050505090500180614c9c603d9139603d016093614972823960930186805190602001908083835b6020831061295f5780518252601f199092019160209182019101612940565b5181516020939093036101000a60001901801990911692169190911790526a1e17ba32bc3a1f1e17b39f60a91b920191825250600b01602d6146768239602d01806c1e3932b1ba103bb4b23a341e9160991b815250600d0185805190602001908083835b602083106129e25780518252601f1990920191602091820191016129c3565b6001836020036101000a03801982511681845116808217855250505050505090500180614c9c603d9139603d0160936154d9823960930184805190602001908083835b60208310612a445780518252601f199092019160209182019101612a25565b6001836020036101000a03801982511681845116808217855250505050505090500180615ab36038913960380160606159dc82396060016064615065823960640160256146a3823960250183805190602001908083835b60208310612aba5780518252601f199092019160209182019101612a9b565b51815160209384036101000a6000190180199092169116179052630383c16160e51b919093019081528451600490910192850191508083835b60208310612b125780518252601f199092019160209182019101612af3565b6001836020036101000a0380198251168184511680821785525050505050509050018061449960369139603601985050505050505050506040516020818303038152906040529750505050505050509392505050565b6060612b7483836138d1565b15612bca5760405160200180608d6153d18239608d016073614ff282396073016071614d008239607101608a6153478239608a01608461556c82396084019050604051602081830303815290604052905061046b565b5060408051602081019091526000815292915050565b600080612bfb612bf660ff868116908616613934565b613999565b9050600081118015612c0e575060128111155b15612ccf578260ff168460ff161115612c7857612c42612c2f826002610b76565b6001600160a01b03871690600a0a61193a565b91506002810660011415612c7357612c70827003298b075b4b6a5240945790619b37fd4a600160801b612ce2565b91505b612cca565b612c99612c86826002610b76565b6001600160a01b03871690600a0a610b76565b91506002810660011415612cca57612cc782600160801b7003298b075b4b6a5240945790619b37fd4a612ce2565b91505b61192b565b50506001600160a01b0390921692915050565b6000808060001985870986860292508281109083900303905080612d185760008411612d0d57600080fd5b50829004905061061e565b808411612d2457600080fd5b6000848688096000868103871696879004966002600389028118808a02820302808a02820302808a02820302808a02820302808a02820302808a02909103029181900381900460010186841190950394909402919094039290920491909117919091029150509392505050565b600080600060058460ff161115612db957612db68560ff600419870116600a0a610b76565b94505b60006004600a8706119050612dcf86600a610b76565b95508015612dde578560010195505b85620186a01415612df457600a86049550600191505b5084925090505b9250929050565b606060008260020b85850360020b81612e1757fe5b05905060048160020b13612e62576040518060400160405280601a81526020017f4d31203143343120343120313035203130352031343520313435000000000000815250915061192b565b60088160020b13612eaa576040518060400160405280601981526020017f4d31203143333320343920393720313133203134352031343500000000000000815250915061192b565b60108160020b13612ef2576040518060400160405280601981526020017f4d31203143333320353720383920313133203134352031343500000000000000815250915061192b565b60208160020b13612f3a576040518060400160405280601981526020017f4d31203143323520363520383120313231203134352031343500000000000000815250915061192b565b60408160020b13612f82576040518060400160405280601981526020017f4d31203143313720373320373320313239203134352031343500000000000000815250915061192b565b60808160020b13612fca576040518060400160405280601881526020017f4d31203143392038312036352031333720313435203134350000000000000000815250915061192b565b6101008160020b13613013576040518060400160405280601a81526020017f4d31203143312038392035372e35203134352031343520313435000000000000815250915061192b565b505060408051808201909152601881527f4d3120314331203937203439203134352031343520313435000000000000000060208201529392505050565b6040805180820182526002815261373360f01b6020808301919091528251808401845260038082526203139360ec1b82840152845180860186528181526232313760e81b818501528551808701909652908552620ccccd60ea1b928501929092526060939091906001600087900b14806130ce57508560000b600019145b156132c5578560000b600019146130e557816130e7565b835b8660000b600019146130f957816130fb565b835b8760000b6000191461310d578361310f565b855b8860000b600019146131215783613123565b855b60405160200180806b1e31b4b931b6329031bc1e9160a11b815250600c0185805190602001908083835b6020831061316c5780518252601f19909201916020918201910161314d565b51815160209384036101000a600019018019909216911617905267383c111031bc9e9160c11b919093019081528651600890910192870191508083835b602083106131c85780518252601f1990920191602091820191016131a9565b6001836020036101000a03801982511681845116808217855250505050505090500180614cd96027913960270183805190602001908083835b602083106132205780518252601f199092019160209182019101613201565b51815160209384036101000a600019018019909216911617905267383c111031bc9e9160c11b919093019081528451600890910192850191508083835b6020831061327c5780518252601f19909201916020918201910161325d565b6001836020036101000a03801982511681845116808217855250505050505090500180614f62602a9139602a0194505050505060405160208183030381529060405294506134b2565b8383838360405160200180806b1e31b4b931b6329031bc1e9160a11b815250600c0185805190602001908083835b602083106133125780518252601f1990920191602091820191016132f3565b51815160209384036101000a600019018019909216911617905267383c111031bc9e9160c11b919093019081528651600890910192870191508083835b6020831061336e5780518252601f19909201916020918201910161334f565b51815160209384036101000a60001901801990921691161790527f70782220723d22347078222066696c6c3d22776869746522202f3e0000000000919093019081526b1e31b4b931b6329031bc1e9160a11b601b8201528551602790910192860191508083835b602083106133f45780518252601f1990920191602091820191016133d5565b51815160209384036101000a600019018019909216911617905267383c111031bc9e9160c11b919093019081528451600890910192850191508083835b602083106134505780518252601f199092019160209182019101613431565b6001836020036101000a038019825116818451168082178552505050505050905001807f70782220723d22347078222066696c6c3d22776869746522202f3e0000000000815250601b0194505050505060405160208183030381529060405294505b50505050919050565b6060600060405180602001604052806000815250905060008360020b12156135015782600019029250604051806040016040528060018152602001602d60f81b81525090505b8061350e8460020b610625565b6040516020018083805190602001908083835b602083106135405780518252601f199092019160209182019101613521565b51815160209384036101000a600019018019909216911617905285519190930192850191508083835b602083106135885780518252601f199092019160209182019101613569565b6001836020036101000a03801982511681845116808217855250505050505090500192505050604051602081830303815290604052915050919050565b60608060006002858501810b0590506201e847198160020b121561362157604051806040016040528060018152602001600760fb1b815250604051806040016040528060018152602001603760f81b8152509250925050612dfb565b620124f7198160020b121561367157604051806040016040528060018152602001600760fb1b8152506040518060400160405280600481526020016331302e3560e01b8152509250925050612dfb565b6161a7198160020b12156136c157604051806040016040528060018152602001600760fb1b8152506040518060400160405280600581526020016431342e323560d81b8152509250925050612dfb565b611387198160020b121561370f5760405180604001604052806002815260200161031360f41b81525060405180604001604052806002815260200161062760f31b8152509250925050612dfb565b60008160020b121561375b5760405180604001604052806002815260200161313160f01b81525060405180604001604052806002815260200161323160f01b8152509250925050612dfb565b6113888160020b12156137a85760405180604001604052806002815260200161313360f01b81525060405180604001604052806002815260200161323360f01b8152509250925050612dfb565b6161a88160020b12156137f55760405180604001604052806002815260200161313560f01b81525060405180604001604052806002815260200161323560f01b8152509250925050612dfb565b620124f88160020b12156138435760405180604001604052806002815260200161062760f31b81525060405180604001604052806002815260200161191b60f11b8152509250925050612dfb565b6201e8488160020b12156138915760405180604001604052806002815260200161323160f01b81525060405180604001604052806002815260200161323760f01b8152509250925050612dfb565b604051806040016040528060028152602001610c8d60f21b81525060405180604001604052806002815260200161323760f01b8152509250925050612dfb565b6040805160208082018590526bffffffffffffffffffffffff19606085901b16828401528251603481840301815260549092019092528051910120600090613918846139b0565b60020260010160ff166000198161392b57fe5b04119392505050565b60008183038183128015906139495750838113155b8061395e575060008312801561395e57508381135b61061e5760405162461bcd60e51b81526004018080602001828103825260248152602001806158b86024913960400191505060405180910390fd5b6000808212156139ac578160000361046b565b5090565b60008082116139be57600080fd5b600160801b82106139d157608091821c91015b600160401b82106139e457604091821c91015b64010000000082106139f857602091821c91015b620100008210613a0a57601091821c91015b6101008210613a1b57600891821c91015b60108210613a2b57600491821c91015b60048210613a3b57600291821c91015b6002821061016b57600101919050565b6040805161010081018252600080825260208201819052918101829052606081018290526080810182905260a0810182905260c0810182905260e081019190915290565b80356001600160a01b038116811461016b57600080fd5b8035801515811461016b57600080fd5b8035600281900b811461016b57600080fd5b600082601f830112613ad8578081fd5b813567ffffffffffffffff811115613aec57fe5b613aff601f8201601f19166020016141c4565b818152846020838601011115613b13578283fd5b816020850160208301379081016020019190915292915050565b803562ffffff8116811461016b57600080fd5b803560ff8116811461016b57600080fd5b600060208284031215613b62578081fd5b813567ffffffffffffffff80821115613b79578283fd5b81840191506101c0808387031215613b8f578384fd5b613b98816141c4565b905082358152613baa60208401613a8f565b6020820152613bbb60408401613a8f565b6040820152606083013582811115613bd1578485fd5b613bdd87828601613ac8565b606083015250608083013582811115613bf4578485fd5b613c0087828601613ac8565b608083015250613c1260a08401613b40565b60a0820152613c2360c08401613b40565b60c0820152613c3460e08401613aa6565b60e08201526101009150613c49828401613ab6565b828201526101209150613c5d828401613ab6565b828201526101409150613c71828401613ab6565b828201526101609150613c85828401613ab6565b828201526101809150613c99828401613b2d565b828201526101a09150613cad828401613a8f565b91810191909152949350505050565b60008151613cce8185602086016141e8565b9290920192915050565b7fe29aa0efb88f20444953434c41494d45523a204475652064696c6967656e636581527f20697320696d7065726174697665207768656e20617373657373696e6720746860208201527f6973204e46542e204d616b65207375726520746f6b656e20616464726573736560408201527f73206d617463682074686520657870656374656420746f6b656e732c2061732060608201527f746f6b656e2073796d626f6c73206d617920626520696d6974617465642e00006080820152609e0190565b632e372e3760e11b815260040190565b60007f54686973204e465420726570726573656e74732061206c69717569646974792082527f706f736974696f6e20696e206120556e6973776170205633200000000000000060208301528551613e07816039850160208a016141e8565b602d60f81b6039918401918201528551613e2881603a840160208a016141e8565b660103837b7b617160cd1b603a92909101918201527f546865206f776e6572206f662074686973204e46542063616e206d6f6469667960418201527f206f722072656465656d2074686520706f736974696f6e2e5c6e00000000000060618201526f02e372837b7b61020b2323932b9b99d160851b607b8201528451613eb581608b8401602089016141e8565b612e3760f11b608b92909101918201526103ab608d820185613cbc565b683d913730b6b2911d1160b91b81528451600090613ef7816009850160208a016141e8565b71111610113232b9b1b934b83a34b7b7111d1160711b6009918401918201528551613f2981601b840160208a016141e8565b8551910190613f3f81601b8401602089016141e8565b6c1116101134b6b0b3b2911d101160991b601b92909101918201527f646174613a696d6167652f7376672b786d6c3b6261736536342c00000000000060288201528351613f938160428401602088016141e8565b61227d60f01b604292909101918201526044019695505050505050565b60006902ab734b9bbb0b81016960b51b82528651613fd581600a850160208b016141e8565b80830190506201016960ed1b80600a8301528751613ffa81600d850160208c016141e8565b602f60f81b600d9390910192830152865161401c81600e850160208b016141e8565b600e92019182015284516140378160118401602089016141e8565b611e1f60f11b60119290910191820152835161405a8160138401602088016141e8565b01601301979650505050505050565b60006901020b2323932b9b99d160b51b808352875161408f81600a860160208c016141e8565b612e3760f11b600a9185019182015287516140b181600c840160208c016141e8565b01600c8101919091528551906140ce826016830160208a016141e8565b8181019150506b02e372332b2902a34b2b91d160a51b601682015284516140fc8160228401602089016141e8565b6b02e372a37b5b2b71024a21d160a51b60229290910191820152835161412981602e8401602088016141e8565b61413f61413a602e83850101613d99565b613cd8565b9998505050505050505050565b60007f646174613a6170706c69636174696f6e2f6a736f6e3b6261736536342c0000008252825161418481601d8501602087016141e8565b91909101601d0192915050565b60006020825282518060208401526141b08160408501602087016141e8565b601f01601f19169190910160400192915050565b60405181810167ffffffffffffffff811182821017156141e057fe5b604052919050565b60005b838110156142035781810151838201526020016141eb565b83811115614212576000848401525b5050505056fe203c616e696d6174652061646469746976653d2273756d22206174747269627574654e616d653d2273746172744f6666736574222066726f6d3d2230252220746f3d22313030252220626567696e3d22307322206475723d223330732220726570656174436f756e743d22696e646566696e69746522202f3e3c2f74657874506174683e3c2f746578743e3c73746f70206f66667365743d222e39222073746f702d636f6c6f723d227768697465222073746f702d6f7061636974793d223022202f3e3c2f6c696e6561724772616469656e743e3c72656374207374796c653d2266696c7465723a2075726c28236631292220783d223070782220793d22307078222077696474683d22323930707822206865696768743d22353030707822202f3e3c6665496d61676520726573756c743d2270332220786c696e6b3a687265663d22646174613a696d6167652f7376672b786d6c3b6261736536342c3c67206d61736b3d2275726c2823666164652d73796d626f6c29223e3c726563742066696c6c3d226e6f6e652220783d223070782220793d22307078222077696474683d22323930707822206865696768743d22323030707822202f3e203c7465787420793d22373070782220783d2233327078222066696c6c3d2277686974652220666f6e742d66616d696c793d2227436f7572696572204e6577272c206d6f6e6f73706163652220666f6e742d7765696768743d223230302220666f6e742d73697a653d2233367078223e3c7376672077696474683d2232393022206865696768743d22353030222076696577426f783d2230203020323930203530302220786d6c6e733d22687474703a2f2f7777772e77332e6f72672f323030302f7376672270782c2030707829222063783d22307078222063793d223070782220723d22347078222066696c6c3d227768697465222f3e3c2f673e203c616e696d6174652061646469746976653d2273756d22206174747269627574654e616d653d2273746172744f6666736574222066726f6d3d2230252220746f3d22313030252220626567696e3d22307322206475723d223330732220726570656174436f756e743d22696e646566696e69746522202f3e203c2f74657874506174683e3c6d61736b2069643d22666164652d757022206d61736b436f6e74656e74556e6974733d226f626a656374426f756e64696e67426f78223e3c726563742077696474683d223122206865696768743d2231222066696c6c3d2275726c2823677261642d75702922202f3e3c2f6d61736b3e22207374726f6b653d227267626128302c302c302c302e332922207374726f6b652d77696474683d2233327078222066696c6c3d226e6f6e6522207374726f6b652d6c696e656361703d22726f756e6422202f3e203c616e696d6174652061646469746976653d2273756d22206174747269627574654e616d653d2273746172744f6666736574222066726f6d3d2230252220746f3d22313030252220626567696e3d22307322206475723d2233307322203c67207374796c653d227472616e73666f726d3a7472616e736c61746528323970782c20343434707829223e3c636972636c65207374796c653d227472616e73666f726d3a7472616e736c6174653364283c7376672077696474683d2732393027206865696768743d27353030272076696577426f783d2730203020323930203530302720786d6c6e733d27687474703a2f2f7777772e77332e6f72672f323030302f737667273e3c636972636c652063783d27203c67207374796c653d2266696c7465723a75726c2823746f702d726567696f6e2d626c7572293b207472616e73666f726d3a7363616c6528312e35293b207472616e73666f726d2d6f726967696e3a63656e74657220746f703b223e22202f3e3c6665426c656e64206d6f64653d226f7665726c61792220696e3d2270302220696e323d22703122202f3e3c6665426c656e64206d6f64653d226578636c7573696f6e2220696e323d22703222202f3e3c6665426c656e64206d6f64653d226f7665726c61792220696e323d2270332220726573756c743d22626c656e644f757422202f3e3c6665476175737369616e426c7572203c706174682069643d226d696e696d61702220643d224d3233342034343443323334203435372e393439203234322e323120343633203235332034363322202f3e3c6d61736b2069643d226e6f6e6522206d61736b436f6e74656e74556e6974733d226f626a656374426f756e64696e67426f78223e3c726563742077696474683d223122206865696768743d2231222066696c6c3d22776869746522202f3e3c2f6d61736b3e2220783d223070782220793d22307078222077696474683d22323930707822206865696768743d22353030707822202f3e203c616e696d6174652061646469746976653d2273756d22206174747269627574654e616d653d2273746172744f6666736574222066726f6d3d2230252220746f3d22313030252220626567696e3d22307322206475723d223330732220726570656174436f756e743d22696e646566696e69746522202f3e3c7465787420783d22313270782220793d22313770782220666f6e742d66616d696c793d2227436f7572696572204e6577272c206d6f6e6f73706163652220666f6e742d73697a653d2231327078222066696c6c3d227768697465223e3c747370616e2066696c6c3d2272676261283235352c3235352c3235352c302e3629223e4d696e205469636b3a203c2f747370616e3e3c74657874506174682073746172744f66667365743d222d31303025222066696c6c3d2277686974652220666f6e742d66616d696c793d2227436f7572696572204e6577272c206d6f6e6f73706163652220666f6e742d73697a653d22313070782220786c696e6b3a687265663d2223746578742d706174682d61223e3c6c696e6561724772616469656e742069643d22677261642d646f776e222078313d2230222078323d2231222079313d2230222079323d2231223e3c73746f70206f66667365743d22302e30222073746f702d636f6c6f723d227768697465222073746f702d6f7061636974793d223122202f3e3c73746f70206f66667365743d22302e39222073746f702d636f6c6f723d227768697465222073746f702d6f7061636974793d223022202f3e3c2f6c696e6561724772616469656e743e3c66696c7465722069643d226631223e3c6665496d61676520726573756c743d2270302220786c696e6b3a687265663d22646174613a696d6167652f7376672b786d6c3b6261736536342c3c7376672077696474683d2732393027206865696768743d27353030272076696577426f783d2730203020323930203530302720786d6c6e733d27687474703a2f2f7777772e77332e6f72672f323030302f737667273e3c726563742077696474683d27323930707827206865696768743d273530307078272066696c6c3d2723222f3e3c6665496d61676520726573756c743d2270322220786c696e6b3a687265663d22646174613a696d6167652f7376672b786d6c3b6261736536342c3c656c6c697073652063783d22353025222063793d22307078222072783d223138307078222072793d223132307078222066696c6c3d222330303022206f7061636974793d22302e383522202f3e3c2f673e707822206865696768743d2232367078222072783d22387078222072793d22387078222066696c6c3d227267626128302c302c302c302e362922202f3e70782220723d22347078222066696c6c3d22776869746522202f3e3c636972636c652063783d2231312e333437384c32342031324c31342e343334312031322e363532324c32322e333932332031384c31332e373831392031332e373831394c31382032322e333932334c31322e363532322031342e343334314c31322032344c31312e333437382031342e343334314c362032322e33393c726563742066696c6c3d226e6f6e652220783d223070782220793d22307078222077696474683d22323930707822206865696768743d22353030707822202f3e4142434445464748494a4b4c4d4e4f505152535455565758595a6162636465666768696a6b6c6d6e6f707172737475767778797a303132333435363738392b2f20786d6c6e733a786c696e6b3d27687474703a2f2f7777772e77332e6f72672f313939392f786c696e6b273e3c6c696e6561724772616469656e742069643d22677261642d73796d626f6c223e3c73746f70206f66667365743d22302e37222073746f702d636f6c6f723d227768697465222073746f702d6f7061636974793d223122202f3e3c73746f70206f66667365743d222e3935222073746f702d636f6c6f723d227768697465222073746f702d6f7061636974793d223022202f3e3c2f6c696e6561724772616469656e743e207374796c653d227472616e73666f726d3a7472616e736c61746528373270782c313839707829223e3c7265637420783d222d313670782220793d222d31367078222077696474683d22313830707822206865696768743d223138307078222066696c6c3d226e6f6e6522202f3e3c7061746820643d22207374796c653d227472616e73666f726d3a7472616e736c61746528373270782c313839707829223e70782220723d2232347078222066696c6c3d226e6f6e6522207374726f6b653d22776869746522202f3e3c7265637420783d222d313670782220793d222d31367078222077696474683d22313830707822206865696768743d223138307078222066696c6c3d226e6f6e6522202f3e536166654d6174683a206d756c7469706c69636174696f6e206f766572666c6f773c673e3c70617468207374796c653d227472616e73666f726d3a7472616e736c617465283670782c367078292220643d224d313220304c31322e3635323220392e35363538374c313820312e363037374c31332e373831392031302e323138314c32322e3339323320364c31342e34333431203c70617468207374726f6b652d6c696e656361703d22726f756e642220643d224d38203943382e30303030342032322e393439342031362e32303939203238203237203238222066696c6c3d226e6f6e6522207374726f6b653d22776869746522202f3e20726570656174436f756e743d22696e646566696e69746522202f3e3c2f74657874506174683e3c74657874506174682073746172744f66667365743d222d353025222066696c6c3d2277686974652220666f6e742d66616d696c793d2227436f7572696572204e6577272c206d6f6e6f73706163652220666f6e742d73697a653d22313070782220786c696e6b3a687265663d2223746578742d706174682d61223e3c6d61736b2069643d22666164652d646f776e22206d61736b436f6e74656e74556e6974733d226f626a656374426f756e64696e67426f78223e3c726563742077696474683d223122206865696768743d2231222066696c6c3d2275726c2823677261642d646f776e2922202f3e3c2f6d61736b3e22207374726f6b653d2272676261283235352c3235352c3235352c3129222066696c6c3d226e6f6e6522207374726f6b652d6c696e656361703d22726f756e6422202f3e3c2f673e696e3d22626c656e644f75742220737464446576696174696f6e3d22343222202f3e3c2f66696c7465723e203c636c6970506174682069643d22636f726e657273223e3c726563742077696474683d2232393022206865696768743d22353030222072783d223432222072793d22343222202f3e3c2f636c6970506174683e203c67207374796c653d227472616e73666f726d3a7472616e736c61746528323970782c20333834707829223e3c6c696e6561724772616469656e742069643d22677261642d7570222078313d2231222078323d2230222079313d2231222079323d2230223e3c73746f70206f66667365743d22302e30222073746f702d636f6c6f723d227768697465222073746f702d6f7061636974793d223122202f3e32334c31302e323138312031332e373831394c312e363037372031384c392e35363538372031322e363532324c302031324c392e35363538372031312e333437384c312e3630373720364c31302e323138312031302e323138314c3620312e363037374c31312e3334373820392e35363538374c313220305a222066696c6c3d22776869746522202f3e3c67207374796c653d227472616e73666f726d3a7472616e736c6174652832323670782c20333932707829223e3c726563742077696474683d223336707822206865696768743d2233367078222072783d22387078222072793d22387078222066696c6c3d226e6f6e6522207374726f6b653d2272676261283235352c3235352c3235352c302e322922202f3e3c74657874506174682073746172744f66667365743d22353025222066696c6c3d2277686974652220666f6e742d66616d696c793d2227436f7572696572204e6577272c206d6f6e6f73706163652220666f6e742d73697a653d22313070782220786c696e6b3a687265663d2223746578742d706174682d61223e3c7465787420783d22313270782220793d22313770782220666f6e742d66616d696c793d2227436f7572696572204e6577272c206d6f6e6f73706163652220666f6e742d73697a653d2231327078222066696c6c3d227768697465223e3c747370616e2066696c6c3d2272676261283235352c3235352c3235352c302e3629223e4d6178205469636b3a203c2f747370616e3e3c616e696d6174655472616e73666f726d206174747269627574654e616d653d227472616e73666f726d2220747970653d22726f74617465222066726f6d3d22302031382031382220746f3d2233363020313820313822206475723d223130732220726570656174436f756e743d22696e646566696e697465222f3e3c2f673e3c2f673e3c706174682069643d22746578742d706174682d612220643d224d34302031322048323530204132382032382030203020312032373820343020563436302041323820323820302030203120323530203438382048343020413238203238203020302031203132203436302056343020413238203238203020302031203430203132207a22202f3e222f3e3c6665496d61676520726573756c743d2270312220786c696e6b3a687265663d22646174613a696d6167652f7376672b786d6c3b6261736536342c3c6d61736b2069643d22666164652d73796d626f6c22206d61736b436f6e74656e74556e6974733d227573657253706163654f6e557365223e3c726563742077696474683d22323930707822206865696768743d223230307078222066696c6c3d2275726c2823677261642d73796d626f6c2922202f3e3c2f6d61736b3e3c2f646566733e3c7265637420783d22302220793d2230222077696474683d2232393022206865696768743d22353030222072783d223432222072793d223432222066696c6c3d227267626128302c302c302c302922207374726f6b653d2272676261283235352c3235352c3235352c302e322922202f3e3c2f673e3c66696c7465722069643d22746f702d726567696f6e2d626c7572223e3c6665476175737369616e426c757220696e3d22536f75726365477261706869632220737464446576696174696f6e3d22323422202f3e3c2f66696c7465723e3c2f74657874506174683e203c74657874506174682073746172744f66667365743d223025222066696c6c3d2277686974652220666f6e742d66616d696c793d2227436f7572696572204e6577272c206d6f6e6f73706163652220666f6e742d73697a653d22313070782220786c696e6b3a687265663d2223746578742d706174682d61223e3c7465787420746578742d72656e646572696e673d226f7074696d697a655370656564223e5369676e6564536166654d6174683a207375627472616374696f6e206f766572666c6f773c7265637420783d2231362220793d223136222077696474683d2232353822206865696768743d22343638222072783d223236222072793d223236222066696c6c3d227267626128302c302c302c302922207374726f6b653d2272676261283235352c3235352c3235352c302e322922202f3e3c7465787420783d22313270782220793d22313770782220666f6e742d66616d696c793d2227436f7572696572204e6577272c206d6f6e6f73706163652220666f6e742d73697a653d2231327078222066696c6c3d227768697465223e3c747370616e2066696c6c3d2272676261283235352c3235352c3235352c302e3629223e49443a203c2f747370616e3e3c726563742077696474683d223336707822206865696768743d2233367078222072783d22387078222072793d22387078222066696c6c3d226e6f6e6522207374726f6b653d2272676261283235352c3235352c3235352c302e322922202f3e3c2f746578743e3c7465787420793d2231313570782220783d2233327078222066696c6c3d2277686974652220666f6e742d66616d696c793d2227436f7572696572204e6577272c206d6f6e6f73706163652220666f6e742d7765696768743d223230302220666f6e742d73697a653d2233367078223e3c2f746578743e3c2f673e3c67207374796c653d227472616e73666f726d3a7472616e736c6174652832323670782c20343333707829223e203c67207374796c653d227472616e73666f726d3a7472616e736c61746528323970782c20343134707829223ea264697066735822122016a1c5eee478e5932832d078dc654ea1884f1493f04b335bde6fa658fc07d8d164736f6c63430007060033",
  "immutableReferences": {},
  "source": "// SPDX-License-Identifier: UNLICENSED\npragma solidity >=0.7.0;\npragma abicoder v2;\n\nimport \"../interfaces/IUniswapV3Pool.sol\";\nimport \"./TickMath.sol\";\nimport \"./BitMath.sol\";\nimport \"./FullMath.sol\";\nimport \"@openzeppelin/contracts/utils/Strings.sol\";\nimport \"@openzeppelin/contracts/math/SafeMath.sol\";\nimport \"@openzeppelin/contracts/math/SignedSafeMath.sol\";\nimport \"./Base64.sol\";\nimport \"./HexStrings.sol\";\nimport \"./NFTSVG.sol\";\n\nlibrary NFTDescriptor {\n    using TickMath for int24;\n    using Strings for uint256;\n    using SafeMath for uint256;\n    using SafeMath for uint160;\n    using SafeMath for uint8;\n    using SignedSafeMath for int256;\n    using HexStrings for uint256;\n\n    uint256 constant sqrt10X128 = 1076067327063303206878105757264492625226;\n\n    struct ConstructTokenURIParams {\n        uint256 tokenId;\n        address quoteTokenAddress;\n        address baseTokenAddress;\n        string quoteTokenSymbol;\n        string baseTokenSymbol;\n        uint8 quoteTokenDecimals;\n        uint8 baseTokenDecimals;\n        bool flipRatio;\n        int24 tickLower;\n        int24 tickUpper;\n        int24 tickCurrent;\n        int24 tickSpacing;\n        uint24 fee;\n        address poolAddress;\n    }\n\n    function constructTokenURI(ConstructTokenURIParams memory params)\n        public\n        pure\n        returns (string memory)\n    {\n        string memory name = generateName(\n            params,\n            feeToPercentString(params.fee)\n        );\n        string memory descriptionPartOne = generateDescriptionPartOne(\n            escapeQuotes(params.quoteTokenSymbol),\n            escapeQuotes(params.baseTokenSymbol),\n            addressToString(params.poolAddress)\n        );\n        string memory descriptionPartTwo = generateDescriptionPartTwo(\n            params.tokenId.toString(),\n            escapeQuotes(params.baseTokenSymbol),\n            addressToString(params.quoteTokenAddress),\n            addressToString(params.baseTokenAddress),\n            feeToPercentString(params.fee)\n        );\n        string memory image = Base64.encode(bytes(generateSVGImage(params)));\n\n        return\n            string(\n                abi.encodePacked(\n                    \"data:application/json;base64,\",\n                    Base64.encode(\n                        bytes(\n                            abi.encodePacked(\n                                '{\"name\":\"',\n                                name,\n                                '\", \"description\":\"',\n                                descriptionPartOne,\n                                descriptionPartTwo,\n                                '\", \"image\": \"',\n                                \"data:image/svg+xml;base64,\",\n                                image,\n                                '\"}'\n                            )\n                        )\n                    )\n                )\n            );\n    }\n\n    function escapeQuotes(string memory symbol)\n        internal\n        pure\n        returns (string memory)\n    {\n        bytes memory symbolBytes = bytes(symbol);\n        uint8 quotesCount = 0;\n        for (uint8 i = 0; i < symbolBytes.length; i++) {\n            if (symbolBytes[i] == '\"') {\n                quotesCount++;\n            }\n        }\n        if (quotesCount > 0) {\n            bytes memory escapedBytes = new bytes(\n                symbolBytes.length + (quotesCount)\n            );\n            uint256 index;\n            for (uint8 i = 0; i < symbolBytes.length; i++) {\n                if (symbolBytes[i] == '\"') {\n                    escapedBytes[index++] = \"\\\\\";\n                }\n                escapedBytes[index++] = symbolBytes[i];\n            }\n            return string(escapedBytes);\n        }\n        return symbol;\n    }\n\n    function generateDescriptionPartOne(\n        string memory quoteTokenSymbol,\n        string memory baseTokenSymbol,\n        string memory poolAddress\n    ) private pure returns (string memory) {\n        return\n            string(\n                abi.encodePacked(\n                    \"This NFT represents a liquidity position in a Uniswap V3 \",\n                    quoteTokenSymbol,\n                    \"-\",\n                    baseTokenSymbol,\n                    \" pool. \",\n                    \"The owner of this NFT can modify or redeem the position.\\\\n\",\n                    \"\\\\nPool Address: \",\n                    poolAddress,\n                    \"\\\\n\",\n                    quoteTokenSymbol\n                )\n            );\n    }\n\n    function generateDescriptionPartTwo(\n        string memory tokenId,\n        string memory baseTokenSymbol,\n        string memory quoteTokenAddress,\n        string memory baseTokenAddress,\n        string memory feeTier\n    ) private pure returns (string memory) {\n        return\n            string(\n                abi.encodePacked(\n                    \" Address: \",\n                    quoteTokenAddress,\n                    \"\\\\n\",\n                    baseTokenSymbol,\n                    \" Address: \",\n                    baseTokenAddress,\n                    \"\\\\nFee Tier: \",\n                    feeTier,\n                    \"\\\\nToken ID: \",\n                    tokenId,\n                    \"\\\\n\\\\n\",\n                    unicode\" DISCLAIMER: Due diligence is imperative when assessing this NFT. Make sure token addresses match the expected tokens, as token symbols may be imitated.\"\n                )\n            );\n    }\n\n    function generateName(\n        ConstructTokenURIParams memory params,\n        string memory feeTier\n    ) private pure returns (string memory) {\n        return\n            string(\n                abi.encodePacked(\n                    \"Uniswap - \",\n                    feeTier,\n                    \" - \",\n                    escapeQuotes(params.quoteTokenSymbol),\n                    \"/\",\n                    escapeQuotes(params.baseTokenSymbol),\n                    \" - \",\n                    tickToDecimalString(\n                        !params.flipRatio ? params.tickLower : params.tickUpper,\n                        params.tickSpacing,\n                        params.baseTokenDecimals,\n                        params.quoteTokenDecimals,\n                        params.flipRatio\n                    ),\n                    \"<>\",\n                    tickToDecimalString(\n                        !params.flipRatio ? params.tickUpper : params.tickLower,\n                        params.tickSpacing,\n                        params.baseTokenDecimals,\n                        params.quoteTokenDecimals,\n                        params.flipRatio\n                    )\n                )\n            );\n    }\n\n    struct DecimalStringParams {\n        // significant figures of decimal\n        uint256 sigfigs;\n        // length of decimal string\n        uint8 bufferLength;\n        // ending index for significant figures (funtion works backwards when copying sigfigs)\n        uint8 sigfigIndex;\n        // index of decimal place (0 if no decimal)\n        uint8 decimalIndex;\n        // start index for trailing/leading 0's for very small/large numbers\n        uint8 zerosStartIndex;\n        // end index for trailing/leading 0's for very small/large numbers\n        uint8 zerosEndIndex;\n        // true if decimal number is less than one\n        bool isLessThanOne;\n        // true if string should include \"%\"\n        bool isPercent;\n    }\n\n    function generateDecimalString(DecimalStringParams memory params)\n        private\n        pure\n        returns (string memory)\n    {\n        bytes memory buffer = new bytes(params.bufferLength);\n        if (params.isPercent) {\n            buffer[buffer.length - 1] = \"%\";\n        }\n        if (params.isLessThanOne) {\n            buffer[0] = \"0\";\n            buffer[1] = \".\";\n        }\n\n        // add leading/trailing 0's\n        for (\n            uint256 zerosCursor = params.zerosStartIndex;\n            zerosCursor < params.zerosEndIndex.add(1);\n            zerosCursor++\n        ) {\n            buffer[zerosCursor] = bytes1(uint8(48));\n        }\n        // add sigfigs\n        while (params.sigfigs > 0) {\n            if (\n                params.decimalIndex > 0 &&\n                params.sigfigIndex == params.decimalIndex\n            ) {\n                buffer[params.sigfigIndex--] = \".\";\n            }\n            buffer[params.sigfigIndex--] = bytes1(\n                uint8(uint256(48).add(params.sigfigs % 10))\n            );\n            params.sigfigs /= 10;\n        }\n        return string(buffer);\n    }\n\n    function tickToDecimalString(\n        int24 tick,\n        int24 tickSpacing,\n        uint8 baseTokenDecimals,\n        uint8 quoteTokenDecimals,\n        bool flipRatio\n    ) internal pure returns (string memory) {\n        if (tick == (TickMath.MIN_TICK / tickSpacing) * tickSpacing) {\n            return !flipRatio ? \"MIN\" : \"MAX\";\n        } else if (tick == (TickMath.MAX_TICK / tickSpacing) * tickSpacing) {\n            return !flipRatio ? \"MAX\" : \"MIN\";\n        } else {\n            uint160 sqrtRatioX96 = TickMath.getSqrtRatioAtTick(tick);\n            if (flipRatio) {\n                sqrtRatioX96 = uint160(uint256(1 << 192).div(sqrtRatioX96));\n            }\n            return\n                fixedPointToDecimalString(\n                    sqrtRatioX96,\n                    baseTokenDecimals,\n                    quoteTokenDecimals\n                );\n        }\n    }\n\n    function sigfigsRounded(uint256 value, uint8 digits)\n        private\n        pure\n        returns (uint256, bool)\n    {\n        bool extraDigit;\n        if (digits > 5) {\n            value = value.div((10**(digits - 5)));\n        }\n        bool roundUp = value % 10 > 4;\n        value = value.div(10);\n        if (roundUp) {\n            value = value + 1;\n        }\n        // 99999 -> 100000 gives an extra sigfig\n        if (value == 100000) {\n            value /= 10;\n            extraDigit = true;\n        }\n        return (value, extraDigit);\n    }\n\n    function adjustForDecimalPrecision(\n        uint160 sqrtRatioX96,\n        uint8 baseTokenDecimals,\n        uint8 quoteTokenDecimals\n    ) private pure returns (uint256 adjustedSqrtRatioX96) {\n        uint256 difference = abs(\n            int256(baseTokenDecimals).sub(int256(quoteTokenDecimals))\n        );\n        if (difference > 0 && difference <= 18) {\n            if (baseTokenDecimals > quoteTokenDecimals) {\n                adjustedSqrtRatioX96 = sqrtRatioX96.mul(\n                    10**(difference.div(2))\n                );\n                if (difference % 2 == 1) {\n                    adjustedSqrtRatioX96 = FullMath.mulDiv(\n                        adjustedSqrtRatioX96,\n                        sqrt10X128,\n                        1 << 128\n                    );\n                }\n            } else {\n                adjustedSqrtRatioX96 = sqrtRatioX96.div(\n                    10**(difference.div(2))\n                );\n                if (difference % 2 == 1) {\n                    adjustedSqrtRatioX96 = FullMath.mulDiv(\n                        adjustedSqrtRatioX96,\n                        1 << 128,\n                        sqrt10X128\n                    );\n                }\n            }\n        } else {\n            adjustedSqrtRatioX96 = uint256(sqrtRatioX96);\n        }\n    }\n\n    function abs(int256 x) private pure returns (uint256) {\n        return uint256(x >= 0 ? x : -x);\n    }\n\n    // @notice Returns string that includes first 5 significant figures of a decimal number\n    // @param sqrtRatioX96 a sqrt price\n    function fixedPointToDecimalString(\n        uint160 sqrtRatioX96,\n        uint8 baseTokenDecimals,\n        uint8 quoteTokenDecimals\n    ) internal pure returns (string memory) {\n        uint256 adjustedSqrtRatioX96 = adjustForDecimalPrecision(\n            sqrtRatioX96,\n            baseTokenDecimals,\n            quoteTokenDecimals\n        );\n        uint256 value = FullMath.mulDiv(\n            adjustedSqrtRatioX96,\n            adjustedSqrtRatioX96,\n            1 << 64\n        );\n\n        bool priceBelow1 = adjustedSqrtRatioX96 < 2**96;\n        if (priceBelow1) {\n            // 10 ** 43 is precision needed to retreive 5 sigfigs of smallest possible price + 1 for rounding\n            value = FullMath.mulDiv(value, 10**44, 1 << 128);\n        } else {\n            // leave precision for 4 decimal places + 1 place for rounding\n            value = FullMath.mulDiv(value, 10**5, 1 << 128);\n        }\n\n        // get digit count\n        uint256 temp = value;\n        uint8 digits;\n        while (temp != 0) {\n            digits++;\n            temp /= 10;\n        }\n        // don't count extra digit kept for rounding\n        digits = digits - 1;\n\n        // address rounding\n        (uint256 sigfigs, bool extraDigit) = sigfigsRounded(value, digits);\n        if (extraDigit) {\n            digits++;\n        }\n\n        DecimalStringParams memory params;\n        if (priceBelow1) {\n            // 7 bytes ( \"0.\" and 5 sigfigs) + leading 0's bytes\n            params.bufferLength = uint8(uint8(7).add(uint8(43).sub(digits)));\n            params.zerosStartIndex = 2;\n            params.zerosEndIndex = uint8(uint256(43).sub(digits).add(1));\n            params.sigfigIndex = uint8(params.bufferLength.sub(1));\n        } else if (digits >= 9) {\n            // no decimal in price string\n            params.bufferLength = uint8(digits.sub(4));\n            params.zerosStartIndex = 5;\n            params.zerosEndIndex = uint8(params.bufferLength.sub(1));\n            params.sigfigIndex = 4;\n        } else {\n            // 5 sigfigs surround decimal\n            params.bufferLength = 6;\n            params.sigfigIndex = 5;\n            params.decimalIndex = uint8(digits.sub(5).add(1));\n        }\n        params.sigfigs = sigfigs;\n        params.isLessThanOne = priceBelow1;\n        params.isPercent = false;\n\n        return generateDecimalString(params);\n    }\n\n    // @notice Returns string as decimal percentage of fee amount.\n    // @param fee fee amount\n    function feeToPercentString(uint24 fee)\n        internal\n        pure\n        returns (string memory)\n    {\n        if (fee == 0) {\n            return \"0%\";\n        }\n        uint24 temp = fee;\n        uint256 digits;\n        uint8 numSigfigs;\n        while (temp != 0) {\n            if (numSigfigs > 0) {\n                // count all digits preceding least significant figure\n                numSigfigs++;\n            } else if (temp % 10 != 0) {\n                numSigfigs++;\n            }\n            digits++;\n            temp /= 10;\n        }\n\n        DecimalStringParams memory params;\n        uint256 nZeros;\n        if (digits >= 5) {\n            // if decimal > 1 (5th digit is the ones place)\n            uint256 decimalPlace = digits.sub(numSigfigs) >= 4 ? 0 : 1;\n            nZeros = digits.sub(5) < (numSigfigs.sub(1))\n                ? 0\n                : digits.sub(5).sub(numSigfigs.sub(1));\n            params.zerosStartIndex = numSigfigs;\n            params.zerosEndIndex = uint8(\n                params.zerosStartIndex.add(nZeros).sub(1)\n            );\n            params.sigfigIndex = uint8(\n                params.zerosStartIndex.sub(1).add(decimalPlace)\n            );\n            params.bufferLength = uint8(\n                nZeros.add(numSigfigs.add(1)).add(decimalPlace)\n            );\n        } else {\n            // else if decimal < 1\n            nZeros = uint256(5).sub(digits);\n            params.zerosStartIndex = 2;\n            params.zerosEndIndex = uint8(\n                nZeros.add(params.zerosStartIndex).sub(1)\n            );\n            params.bufferLength = uint8(nZeros.add(numSigfigs.add(2)));\n            params.sigfigIndex = uint8((params.bufferLength).sub(2));\n            params.isLessThanOne = true;\n        }\n        params.sigfigs = uint256(fee).div(10**(digits.sub(numSigfigs)));\n        params.isPercent = true;\n        params.decimalIndex = digits > 4 ? uint8(digits.sub(4)) : 0;\n\n        return generateDecimalString(params);\n    }\n\n    function addressToString(address addr)\n        internal\n        pure\n        returns (string memory)\n    {\n        return (uint256(addr)).toHexString(20);\n    }\n\n    function generateSVGImage(ConstructTokenURIParams memory params)\n        internal\n        pure\n        returns (string memory svg)\n    {\n        NFTSVG.SVGParams memory svgParams = NFTSVG.SVGParams({\n            quoteToken: addressToString(params.quoteTokenAddress),\n            baseToken: addressToString(params.baseTokenAddress),\n            poolAddress: params.poolAddress,\n            quoteTokenSymbol: params.quoteTokenSymbol,\n            baseTokenSymbol: params.baseTokenSymbol,\n            feeTier: feeToPercentString(params.fee),\n            tickLower: params.tickLower,\n            tickUpper: params.tickUpper,\n            tickSpacing: params.tickSpacing,\n            overRange: overRange(\n                params.tickLower,\n                params.tickUpper,\n                params.tickCurrent\n            ),\n            tokenId: params.tokenId,\n            color0: tokenToColorHex(uint256(params.quoteTokenAddress), 136),\n            color1: tokenToColorHex(uint256(params.baseTokenAddress), 136),\n            color2: tokenToColorHex(uint256(params.quoteTokenAddress), 0),\n            color3: tokenToColorHex(uint256(params.baseTokenAddress), 0),\n            x1: scale(\n                getCircleCoord(\n                    uint256(params.quoteTokenAddress),\n                    16,\n                    params.tokenId\n                ),\n                0,\n                255,\n                16,\n                274\n            ),\n            y1: scale(\n                getCircleCoord(\n                    uint256(params.baseTokenAddress),\n                    16,\n                    params.tokenId\n                ),\n                0,\n                255,\n                100,\n                484\n            ),\n            x2: scale(\n                getCircleCoord(\n                    uint256(params.quoteTokenAddress),\n                    32,\n                    params.tokenId\n                ),\n                0,\n                255,\n                16,\n                274\n            ),\n            y2: scale(\n                getCircleCoord(\n                    uint256(params.baseTokenAddress),\n                    32,\n                    params.tokenId\n                ),\n                0,\n                255,\n                100,\n                484\n            ),\n            x3: scale(\n                getCircleCoord(\n                    uint256(params.quoteTokenAddress),\n                    48,\n                    params.tokenId\n                ),\n                0,\n                255,\n                16,\n                274\n            ),\n            y3: scale(\n                getCircleCoord(\n                    uint256(params.baseTokenAddress),\n                    48,\n                    params.tokenId\n                ),\n                0,\n                255,\n                100,\n                484\n            )\n        });\n\n        return NFTSVG.generateSVG(svgParams);\n    }\n\n    function overRange(\n        int24 tickLower,\n        int24 tickUpper,\n        int24 tickCurrent\n    ) private pure returns (int8) {\n        if (tickCurrent < tickLower) {\n            return -1;\n        } else if (tickCurrent > tickUpper) {\n            return 1;\n        } else {\n            return 0;\n        }\n    }\n\n    function scale(\n        uint256 n,\n        uint256 inMn,\n        uint256 inMx,\n        uint256 outMn,\n        uint256 outMx\n    ) private pure returns (string memory) {\n        return\n            (n.sub(inMn).mul(outMx.sub(outMn)).div(inMx.sub(inMn)).add(outMn))\n                .toString();\n    }\n\n    function tokenToColorHex(uint256 token, uint256 offset)\n        internal\n        pure\n        returns (string memory str)\n    {\n        return string((token >> offset).toHexStringNoPrefix(3));\n    }\n\n    function getCircleCoord(\n        uint256 tokenAddress,\n        uint256 offset,\n        uint256 tokenId\n    ) internal pure returns (uint256) {\n        return (sliceTokenHex(tokenAddress, offset) * tokenId) % 255;\n    }\n\n    function sliceTokenHex(uint256 token, uint256 offset)\n        internal\n        pure\n        returns (uint256)\n    {\n        return uint256(uint8(token >> offset));\n    }\n}\n",
  "sourcePath": "/Users/shifenghu/Documents/work/study/blockchain/uniswap/v3-ui/uniswap-v3/contracts/libraries/NFTDescriptor.sol",
  "compiler": {
    "name": "solc",
    "version": "0.7.6+commit.7338295f.Emscripten.clang"
  },
  "schemaVersion": "3.4.1",
  "updatedAt": "2021-07-27T03:55:39.897Z",
  "networkType": "ethereum",
  "devdoc": {
    "kind": "dev",
    "methods": {},
    "version": 1
  },
  "userdoc": {
    "kind": "user",
    "methods": {},
    "version": 1
  }
}