{
  "contractName": "NonfungiblePositionManager",
  "abi": [
    {
      "inputs": [
        {
          "internalType": "address",
          "name": "_factory",
          "type": "address"
        },
        {
          "internalType": "address",
          "name": "_WETH9",
          "type": "address"
        },
        {
          "internalType": "address",
          "name": "_tokenDescriptor_",
          "type": "address"
        },
        {
          "internalType": "string",
          "name": "_nftName",
          "type": "string"
        },
        {
          "internalType": "string",
          "name": "_nftDescriptor",
          "type": "string"
        },
        {
          "internalType": "string",
          "name": "_nftVersion",
          "type": "string"
        }
      ],
      "stateMutability": "nonpayable",
      "type": "constructor"
    },
    {
      "anonymous": false,
      "inputs": [
        {
          "indexed": true,
          "internalType": "address",
          "name": "owner",
          "type": "address"
        },
        {
          "indexed": true,
          "internalType": "address",
          "name": "approved",
          "type": "address"
        },
        {
          "indexed": true,
          "internalType": "uint256",
          "name": "tokenId",
          "type": "uint256"
        }
      ],
      "name": "Approval",
      "type": "event"
    },
    {
      "anonymous": false,
      "inputs": [
        {
          "indexed": true,
          "internalType": "address",
          "name": "owner",
          "type": "address"
        },
        {
          "indexed": true,
          "internalType": "address",
          "name": "operator",
          "type": "address"
        },
        {
          "indexed": false,
          "internalType": "bool",
          "name": "approved",
          "type": "bool"
        }
      ],
      "name": "ApprovalForAll",
      "type": "event"
    },
    {
      "anonymous": false,
      "inputs": [
        {
          "indexed": true,
          "internalType": "uint256",
          "name": "tokenId",
          "type": "uint256"
        },
        {
          "indexed": false,
          "internalType": "address",
          "name": "recipient",
          "type": "address"
        },
        {
          "indexed": false,
          "internalType": "uint256",
          "name": "amount0",
          "type": "uint256"
        },
        {
          "indexed": false,
          "internalType": "uint256",
          "name": "amount1",
          "type": "uint256"
        }
      ],
      "name": "Collect",
      "type": "event"
    },
    {
      "anonymous": false,
      "inputs": [
        {
          "indexed": true,
          "internalType": "uint256",
          "name": "tokenId",
          "type": "uint256"
        },
        {
          "indexed": false,
          "internalType": "uint128",
          "name": "liquidity",
          "type": "uint128"
        },
        {
          "indexed": false,
          "internalType": "uint256",
          "name": "amount0",
          "type": "uint256"
        },
        {
          "indexed": false,
          "internalType": "uint256",
          "name": "amount1",
          "type": "uint256"
        }
      ],
      "name": "DecreaseLiquidity",
      "type": "event"
    },
    {
      "anonymous": false,
      "inputs": [
        {
          "indexed": true,
          "internalType": "uint256",
          "name": "tokenId",
          "type": "uint256"
        },
        {
          "indexed": false,
          "internalType": "uint128",
          "name": "liquidity",
          "type": "uint128"
        },
        {
          "indexed": false,
          "internalType": "uint256",
          "name": "amount0",
          "type": "uint256"
        },
        {
          "indexed": false,
          "internalType": "uint256",
          "name": "amount1",
          "type": "uint256"
        }
      ],
      "name": "IncreaseLiquidity",
      "type": "event"
    },
    {
      "anonymous": false,
      "inputs": [
        {
          "indexed": true,
          "internalType": "address",
          "name": "from",
          "type": "address"
        },
        {
          "indexed": true,
          "internalType": "address",
          "name": "to",
          "type": "address"
        },
        {
          "indexed": true,
          "internalType": "uint256",
          "name": "tokenId",
          "type": "uint256"
        }
      ],
      "name": "Transfer",
      "type": "event"
    },
    {
      "inputs": [],
      "name": "DOMAIN_SEPARATOR",
      "outputs": [
        {
          "internalType": "bytes32",
          "name": "",
          "type": "bytes32"
        }
      ],
      "stateMutability": "view",
      "type": "function",
      "constant": true
    },
    {
      "inputs": [],
      "name": "PERMIT_TYPEHASH",
      "outputs": [
        {
          "internalType": "bytes32",
          "name": "",
          "type": "bytes32"
        }
      ],
      "stateMutability": "view",
      "type": "function",
      "constant": true
    },
    {
      "inputs": [],
      "name": "WETH9",
      "outputs": [
        {
          "internalType": "address",
          "name": "",
          "type": "address"
        }
      ],
      "stateMutability": "view",
      "type": "function",
      "constant": true
    },
    {
      "inputs": [
        {
          "internalType": "address",
          "name": "to",
          "type": "address"
        },
        {
          "internalType": "uint256",
          "name": "tokenId",
          "type": "uint256"
        }
      ],
      "name": "approve",
      "outputs": [],
      "stateMutability": "nonpayable",
      "type": "function"
    },
    {
      "inputs": [
        {
          "internalType": "address",
          "name": "owner",
          "type": "address"
        }
      ],
      "name": "balanceOf",
      "outputs": [
        {
          "internalType": "uint256",
          "name": "",
          "type": "uint256"
        }
      ],
      "stateMutability": "view",
      "type": "function",
      "constant": true
    },
    {
      "inputs": [
        {
          "internalType": "address",
          "name": "token0",
          "type": "address"
        },
        {
          "internalType": "address",
          "name": "token1",
          "type": "address"
        },
        {
          "internalType": "uint24",
          "name": "fee",
          "type": "uint24"
        },
        {
          "internalType": "uint160",
          "name": "sqrtPriceX96",
          "type": "uint160"
        }
      ],
      "name": "createAndInitializePoolIfNecessary",
      "outputs": [
        {
          "internalType": "address",
          "name": "poolAddress",
          "type": "address"
        }
      ],
      "stateMutability": "payable",
      "type": "function",
      "payable": true
    },
    {
      "inputs": [],
      "name": "factory",
      "outputs": [
        {
          "internalType": "address",
          "name": "",
          "type": "address"
        }
      ],
      "stateMutability": "view",
      "type": "function",
      "constant": true
    },
    {
      "inputs": [
        {
          "internalType": "address",
          "name": "owner",
          "type": "address"
        },
        {
          "internalType": "address",
          "name": "operator",
          "type": "address"
        }
      ],
      "name": "isApprovedForAll",
      "outputs": [
        {
          "internalType": "bool",
          "name": "",
          "type": "bool"
        }
      ],
      "stateMutability": "view",
      "type": "function",
      "constant": true
    },
    {
      "inputs": [
        {
          "internalType": "bytes[]",
          "name": "data",
          "type": "bytes[]"
        }
      ],
      "name": "multicall",
      "outputs": [
        {
          "internalType": "bytes[]",
          "name": "results",
          "type": "bytes[]"
        }
      ],
      "stateMutability": "payable",
      "type": "function",
      "payable": true
    },
    {
      "inputs": [],
      "name": "name",
      "outputs": [
        {
          "internalType": "string",
          "name": "",
          "type": "string"
        }
      ],
      "stateMutability": "view",
      "type": "function",
      "constant": true
    },
    {
      "inputs": [
        {
          "internalType": "uint256",
          "name": "tokenId",
          "type": "uint256"
        }
      ],
      "name": "ownerOf",
      "outputs": [
        {
          "internalType": "address",
          "name": "",
          "type": "address"
        }
      ],
      "stateMutability": "view",
      "type": "function",
      "constant": true
    },
    {
      "inputs": [
        {
          "internalType": "address",
          "name": "spender",
          "type": "address"
        },
        {
          "internalType": "uint256",
          "name": "tokenId",
          "type": "uint256"
        },
        {
          "internalType": "uint256",
          "name": "deadline",
          "type": "uint256"
        },
        {
          "internalType": "uint8",
          "name": "v",
          "type": "uint8"
        },
        {
          "internalType": "bytes32",
          "name": "r",
          "type": "bytes32"
        },
        {
          "internalType": "bytes32",
          "name": "s",
          "type": "bytes32"
        }
      ],
      "name": "permit",
      "outputs": [],
      "stateMutability": "payable",
      "type": "function",
      "payable": true
    },
    {
      "inputs": [],
      "name": "refundETH",
      "outputs": [],
      "stateMutability": "payable",
      "type": "function",
      "payable": true
    },
    {
      "inputs": [
        {
          "internalType": "address",
          "name": "from",
          "type": "address"
        },
        {
          "internalType": "address",
          "name": "to",
          "type": "address"
        },
        {
          "internalType": "uint256",
          "name": "tokenId",
          "type": "uint256"
        }
      ],
      "name": "safeTransferFrom",
      "outputs": [],
      "stateMutability": "nonpayable",
      "type": "function"
    },
    {
      "inputs": [
        {
          "internalType": "address",
          "name": "from",
          "type": "address"
        },
        {
          "internalType": "address",
          "name": "to",
          "type": "address"
        },
        {
          "internalType": "uint256",
          "name": "tokenId",
          "type": "uint256"
        },
        {
          "internalType": "bytes",
          "name": "_data",
          "type": "bytes"
        }
      ],
      "name": "safeTransferFrom",
      "outputs": [],
      "stateMutability": "nonpayable",
      "type": "function"
    },
    {
      "inputs": [
        {
          "internalType": "address",
          "name": "token",
          "type": "address"
        },
        {
          "internalType": "uint256",
          "name": "value",
          "type": "uint256"
        },
        {
          "internalType": "uint256",
          "name": "deadline",
          "type": "uint256"
        },
        {
          "internalType": "uint8",
          "name": "v",
          "type": "uint8"
        },
        {
          "internalType": "bytes32",
          "name": "r",
          "type": "bytes32"
        },
        {
          "internalType": "bytes32",
          "name": "s",
          "type": "bytes32"
        }
      ],
      "name": "selfPermit",
      "outputs": [],
      "stateMutability": "payable",
      "type": "function",
      "payable": true
    },
    {
      "inputs": [
        {
          "internalType": "address",
          "name": "token",
          "type": "address"
        },
        {
          "internalType": "uint256",
          "name": "nonce",
          "type": "uint256"
        },
        {
          "internalType": "uint256",
          "name": "expiry",
          "type": "uint256"
        },
        {
          "internalType": "uint8",
          "name": "v",
          "type": "uint8"
        },
        {
          "internalType": "bytes32",
          "name": "r",
          "type": "bytes32"
        },
        {
          "internalType": "bytes32",
          "name": "s",
          "type": "bytes32"
        }
      ],
      "name": "selfPermitAllowed",
      "outputs": [],
      "stateMutability": "payable",
      "type": "function",
      "payable": true
    },
    {
      "inputs": [
        {
          "internalType": "address",
          "name": "token",
          "type": "address"
        },
        {
          "internalType": "uint256",
          "name": "nonce",
          "type": "uint256"
        },
        {
          "internalType": "uint256",
          "name": "expiry",
          "type": "uint256"
        },
        {
          "internalType": "uint8",
          "name": "v",
          "type": "uint8"
        },
        {
          "internalType": "bytes32",
          "name": "r",
          "type": "bytes32"
        },
        {
          "internalType": "bytes32",
          "name": "s",
          "type": "bytes32"
        }
      ],
      "name": "selfPermitAllowedIfNecessary",
      "outputs": [],
      "stateMutability": "payable",
      "type": "function",
      "payable": true
    },
    {
      "inputs": [
        {
          "internalType": "address",
          "name": "token",
          "type": "address"
        },
        {
          "internalType": "uint256",
          "name": "value",
          "type": "uint256"
        },
        {
          "internalType": "uint256",
          "name": "deadline",
          "type": "uint256"
        },
        {
          "internalType": "uint8",
          "name": "v",
          "type": "uint8"
        },
        {
          "internalType": "bytes32",
          "name": "r",
          "type": "bytes32"
        },
        {
          "internalType": "bytes32",
          "name": "s",
          "type": "bytes32"
        }
      ],
      "name": "selfPermitIfNecessary",
      "outputs": [],
      "stateMutability": "payable",
      "type": "function",
      "payable": true
    },
    {
      "inputs": [
        {
          "internalType": "address",
          "name": "operator",
          "type": "address"
        },
        {
          "internalType": "bool",
          "name": "approved",
          "type": "bool"
        }
      ],
      "name": "setApprovalForAll",
      "outputs": [],
      "stateMutability": "nonpayable",
      "type": "function"
    },
    {
      "inputs": [
        {
          "internalType": "bytes4",
          "name": "interfaceId",
          "type": "bytes4"
        }
      ],
      "name": "supportsInterface",
      "outputs": [
        {
          "internalType": "bool",
          "name": "",
          "type": "bool"
        }
      ],
      "stateMutability": "view",
      "type": "function",
      "constant": true
    },
    {
      "inputs": [
        {
          "internalType": "address",
          "name": "token",
          "type": "address"
        },
        {
          "internalType": "uint256",
          "name": "amountMinimum",
          "type": "uint256"
        },
        {
          "internalType": "address",
          "name": "recipient",
          "type": "address"
        }
      ],
      "name": "sweepToken",
      "outputs": [],
      "stateMutability": "payable",
      "type": "function",
      "payable": true
    },
    {
      "inputs": [],
      "name": "symbol",
      "outputs": [
        {
          "internalType": "string",
          "name": "",
          "type": "string"
        }
      ],
      "stateMutability": "view",
      "type": "function",
      "constant": true
    },
    {
      "inputs": [
        {
          "internalType": "uint256",
          "name": "index",
          "type": "uint256"
        }
      ],
      "name": "tokenByIndex",
      "outputs": [
        {
          "internalType": "uint256",
          "name": "",
          "type": "uint256"
        }
      ],
      "stateMutability": "view",
      "type": "function",
      "constant": true
    },
    {
      "inputs": [
        {
          "internalType": "address",
          "name": "owner",
          "type": "address"
        },
        {
          "internalType": "uint256",
          "name": "index",
          "type": "uint256"
        }
      ],
      "name": "tokenOfOwnerByIndex",
      "outputs": [
        {
          "internalType": "uint256",
          "name": "",
          "type": "uint256"
        }
      ],
      "stateMutability": "view",
      "type": "function",
      "constant": true
    },
    {
      "inputs": [],
      "name": "totalSupply",
      "outputs": [
        {
          "internalType": "uint256",
          "name": "",
          "type": "uint256"
        }
      ],
      "stateMutability": "view",
      "type": "function",
      "constant": true
    },
    {
      "inputs": [
        {
          "internalType": "address",
          "name": "from",
          "type": "address"
        },
        {
          "internalType": "address",
          "name": "to",
          "type": "address"
        },
        {
          "internalType": "uint256",
          "name": "tokenId",
          "type": "uint256"
        }
      ],
      "name": "transferFrom",
      "outputs": [],
      "stateMutability": "nonpayable",
      "type": "function"
    },
    {
      "inputs": [
        {
          "internalType": "uint256",
          "name": "amount0Owed",
          "type": "uint256"
        },
        {
          "internalType": "uint256",
          "name": "amount1Owed",
          "type": "uint256"
        },
        {
          "internalType": "bytes",
          "name": "data",
          "type": "bytes"
        }
      ],
      "name": "uniswapV3MintCallback",
      "outputs": [],
      "stateMutability": "nonpayable",
      "type": "function"
    },
    {
      "inputs": [
        {
          "internalType": "uint256",
          "name": "amountMinimum",
          "type": "uint256"
        },
        {
          "internalType": "address",
          "name": "recipient",
          "type": "address"
        }
      ],
      "name": "unwrapWETH9",
      "outputs": [],
      "stateMutability": "payable",
      "type": "function",
      "payable": true
    },
    {
      "stateMutability": "payable",
      "type": "receive",
      "payable": true
    },
    {
      "inputs": [
        {
          "internalType": "uint256",
          "name": "tokenId",
          "type": "uint256"
        }
      ],
      "name": "positions",
      "outputs": [
        {
          "internalType": "uint96",
          "name": "nonce",
          "type": "uint96"
        },
        {
          "internalType": "address",
          "name": "operator",
          "type": "address"
        },
        {
          "internalType": "address",
          "name": "token0",
          "type": "address"
        },
        {
          "internalType": "address",
          "name": "token1",
          "type": "address"
        },
        {
          "internalType": "uint24",
          "name": "fee",
          "type": "uint24"
        },
        {
          "internalType": "int24",
          "name": "tickLower",
          "type": "int24"
        },
        {
          "internalType": "int24",
          "name": "tickUpper",
          "type": "int24"
        },
        {
          "internalType": "uint128",
          "name": "liquidity",
          "type": "uint128"
        },
        {
          "internalType": "uint256",
          "name": "feeGrowthInside0LastX128",
          "type": "uint256"
        },
        {
          "internalType": "uint256",
          "name": "feeGrowthInside1LastX128",
          "type": "uint256"
        },
        {
          "internalType": "uint128",
          "name": "tokensOwed0",
          "type": "uint128"
        },
        {
          "internalType": "uint128",
          "name": "tokensOwed1",
          "type": "uint128"
        }
      ],
      "stateMutability": "view",
      "type": "function",
      "constant": true
    },
    {
      "inputs": [
        {
          "components": [
            {
              "internalType": "address",
              "name": "token0",
              "type": "address"
            },
            {
              "internalType": "address",
              "name": "token1",
              "type": "address"
            },
            {
              "internalType": "uint24",
              "name": "fee",
              "type": "uint24"
            },
            {
              "internalType": "int24",
              "name": "tickLower",
              "type": "int24"
            },
            {
              "internalType": "int24",
              "name": "tickUpper",
              "type": "int24"
            },
            {
              "internalType": "uint256",
              "name": "amount0Desired",
              "type": "uint256"
            },
            {
              "internalType": "uint256",
              "name": "amount1Desired",
              "type": "uint256"
            },
            {
              "internalType": "uint256",
              "name": "amount0Min",
              "type": "uint256"
            },
            {
              "internalType": "uint256",
              "name": "amount1Min",
              "type": "uint256"
            },
            {
              "internalType": "address",
              "name": "recipient",
              "type": "address"
            },
            {
              "internalType": "uint256",
              "name": "deadline",
              "type": "uint256"
            }
          ],
          "internalType": "struct INonfungiblePositionManager.MintParams",
          "name": "params",
          "type": "tuple"
        }
      ],
      "name": "mint",
      "outputs": [
        {
          "internalType": "uint256",
          "name": "tokenId",
          "type": "uint256"
        },
        {
          "internalType": "uint128",
          "name": "liquidity",
          "type": "uint128"
        },
        {
          "internalType": "uint256",
          "name": "amount0",
          "type": "uint256"
        },
        {
          "internalType": "uint256",
          "name": "amount1",
          "type": "uint256"
        }
      ],
      "stateMutability": "payable",
      "type": "function",
      "payable": true
    },
    {
      "inputs": [
        {
          "internalType": "uint256",
          "name": "tokenId",
          "type": "uint256"
        }
      ],
      "name": "tokenURI",
      "outputs": [
        {
          "internalType": "string",
          "name": "",
          "type": "string"
        }
      ],
      "stateMutability": "view",
      "type": "function",
      "constant": true
    },
    {
      "inputs": [],
      "name": "baseURI",
      "outputs": [
        {
          "internalType": "string",
          "name": "",
          "type": "string"
        }
      ],
      "stateMutability": "pure",
      "type": "function",
      "constant": true
    },
    {
      "inputs": [
        {
          "components": [
            {
              "internalType": "uint256",
              "name": "tokenId",
              "type": "uint256"
            },
            {
              "internalType": "uint256",
              "name": "amount0Desired",
              "type": "uint256"
            },
            {
              "internalType": "uint256",
              "name": "amount1Desired",
              "type": "uint256"
            },
            {
              "internalType": "uint256",
              "name": "amount0Min",
              "type": "uint256"
            },
            {
              "internalType": "uint256",
              "name": "amount1Min",
              "type": "uint256"
            },
            {
              "internalType": "uint256",
              "name": "deadline",
              "type": "uint256"
            }
          ],
          "internalType": "struct INonfungiblePositionManager.IncreaseLiquidityParams",
          "name": "params",
          "type": "tuple"
        }
      ],
      "name": "increaseLiquidity",
      "outputs": [
        {
          "internalType": "uint128",
          "name": "liquidity",
          "type": "uint128"
        },
        {
          "internalType": "uint256",
          "name": "amount0",
          "type": "uint256"
        },
        {
          "internalType": "uint256",
          "name": "amount1",
          "type": "uint256"
        }
      ],
      "stateMutability": "payable",
      "type": "function",
      "payable": true
    },
    {
      "inputs": [
        {
          "components": [
            {
              "internalType": "uint256",
              "name": "tokenId",
              "type": "uint256"
            },
            {
              "internalType": "uint128",
              "name": "liquidity",
              "type": "uint128"
            },
            {
              "internalType": "uint256",
              "name": "amount0Min",
              "type": "uint256"
            },
            {
              "internalType": "uint256",
              "name": "amount1Min",
              "type": "uint256"
            },
            {
              "internalType": "uint256",
              "name": "deadline",
              "type": "uint256"
            }
          ],
          "internalType": "struct INonfungiblePositionManager.DecreaseLiquidityParams",
          "name": "params",
          "type": "tuple"
        }
      ],
      "name": "decreaseLiquidity",
      "outputs": [
        {
          "internalType": "uint256",
          "name": "amount0",
          "type": "uint256"
        },
        {
          "internalType": "uint256",
          "name": "amount1",
          "type": "uint256"
        }
      ],
      "stateMutability": "payable",
      "type": "function",
      "payable": true
    },
    {
      "inputs": [
        {
          "components": [
            {
              "internalType": "uint256",
              "name": "tokenId",
              "type": "uint256"
            },
            {
              "internalType": "address",
              "name": "recipient",
              "type": "address"
            },
            {
              "internalType": "uint128",
              "name": "amount0Max",
              "type": "uint128"
            },
            {
              "internalType": "uint128",
              "name": "amount1Max",
              "type": "uint128"
            }
          ],
          "internalType": "struct INonfungiblePositionManager.CollectParams",
          "name": "params",
          "type": "tuple"
        }
      ],
      "name": "collect",
      "outputs": [
        {
          "internalType": "uint256",
          "name": "amount0",
          "type": "uint256"
        },
        {
          "internalType": "uint256",
          "name": "amount1",
          "type": "uint256"
        }
      ],
      "stateMutability": "payable",
      "type": "function",
      "payable": true
    },
    {
      "inputs": [
        {
          "internalType": "uint256",
          "name": "tokenId",
          "type": "uint256"
        }
      ],
      "name": "burn",
      "outputs": [],
      "stateMutability": "payable",
      "type": "function",
      "payable": true
    },
    {
      "inputs": [
        {
          "internalType": "uint256",
          "name": "tokenId",
          "type": "uint256"
        }
      ],
      "name": "getApproved",
      "outputs": [
        {
          "internalType": "address",
          "name": "",
          "type": "address"
        }
      ],
      "stateMutability": "view",
      "type": "function",
      "constant": true
    }
  ],
  "bytecode": "0x610120604052600d80546001600160b01b0319166001176001600160b01b0316600160b01b1790553480156200003457600080fd5b5060405162005e0a38038062005e0a833981016040819052620000579162000305565b85858385848282620000706301ffc9a760e01b6200011c565b815162000085906006906020850190620001a1565b5080516200009b906007906020840190620001a1565b50620000ae6380ac58cd60e01b6200011c565b620000c0635b5e139f60e01b6200011c565b620000d263780e9d6360e01b6200011c565b50508251602093840120608052805192019190912060a052506001600160601b0319606092831b811660c05290821b811660e05294901b9093166101005250620003ca9350505050565b6001600160e01b031980821614156200017c576040805162461bcd60e51b815260206004820152601c60248201527f4552433136353a20696e76616c696420696e7465726661636520696400000000604482015290519081900360640190fd5b6001600160e01b0319166000908152602081905260409020805460ff19166001179055565b828054600181600116156101000203166002900490600052602060002090601f016020900481019282620001d9576000855562000224565b82601f10620001f457805160ff191683800117855562000224565b8280016001018555821562000224579182015b828111156200022457825182559160200191906001019062000207565b506200023292915062000236565b5090565b5b8082111562000232576000815560010162000237565b80516001600160a01b03811681146200026557600080fd5b919050565b600082601f8301126200027b578081fd5b81516001600160401b03808211156200029057fe5b6040516020601f8401601f1916820181018381118382101715620002b057fe5b6040528382528584018101871015620002c7578485fd5b8492505b83831015620002ea5785830181015182840182015291820191620002cb565b83831115620002fb57848185840101525b5095945050505050565b60008060008060008060c087890312156200031e578182fd5b62000329876200024d565b955062000339602088016200024d565b945062000349604088016200024d565b60608801519094506001600160401b038082111562000366578384fd5b620003748a838b016200026a565b945060808901519150808211156200038a578384fd5b620003988a838b016200026a565b935060a0890151915080821115620003ae578283fd5b50620003bd89828a016200026a565b9150509295509295509295565b60805160a05160c05160601c60e05160601c6101005160601c6159bb6200044f600039806127e5525080610239528061160f52806116fa52806117825280613a865280613acc5280613b40525080610a055280610d255280610dec528061279852806128855280612b7f528061338252508061140f5250806113ee52506159bb6000f3fe6080604052600436106102295760003560e01c80636352211e11610123578063ac9650d8116100ab578063d34879971161006f578063d34879971461064e578063df2ab5bb1461066e578063e985e9c514610681578063f3995c67146106a1578063fc6f7865146106b457610299565b8063ac9650d8146105c6578063b88d4fde146105e6578063c2e3140a14610606578063c45a015514610619578063c87b56dd1461062e57610299565b806388316456116100f2578063883164561461052357806395d89b411461054657806399fbab881461055b578063a22cb46514610593578063a4a78f0c146105b357610299565b80636352211e146104bb5780636c0360eb146104db57806370a08231146104f05780637ac2ff7b1461051057610299565b806323b872dd116101b157806342966c681161017557806342966c681461044d5780634659a4941461046057806349404b7c146104735780634aa4a4fc146104865780634f6ccce71461049b57610299565b806323b872dd146103c35780632f745c59146103e357806330adf81f146104035780633644e5151461041857806342842e0e1461042d57610299565b80630c49ccbe116101f85780630c49ccbe1461034357806312210e8a1461036457806313ead5621461036c57806318160ddd1461037f578063219f5d17146103a157610299565b806301ffc9a71461029e57806306fdde03146102d4578063081812fc146102f6578063095ea7b31461032357610299565b3661029957336001600160a01b037f00000000000000000000000000000000000000000000000000000000000000001614610297576040805162461bcd60e51b81526020600482015260096024820152684e6f7420574554483960b81b604482015290519081900360640190fd5b005b600080fd5b3480156102aa57600080fd5b506102be6102b9366004614e9c565b6106c7565b6040516102cb91906153dd565b60405180910390f35b3480156102e057600080fd5b506102e96106ea565b6040516102cb9190615430565b34801561030257600080fd5b50610316610311366004615196565b610780565b6040516102cb91906152c0565b34801561032f57600080fd5b5061029761033e366004614d66565b6107d3565b610356610351366004614f61565b6108a9565b6040516102cb9291906155b7565b610297610cf1565b61031661037a366004614bf9565b610d03565b34801561038b57600080fd5b50610394610ffd565b6040516102cb91906153e8565b6103b46103af366004614f72565b61100e565b6040516102cb93929190615572565b3480156103cf57600080fd5b506102976103de366004614c52565b611323565b3480156103ef57600080fd5b506103946103fe366004614d66565b61137a565b34801561040f57600080fd5b506103946113a5565b34801561042457600080fd5b506103946113c9565b34801561043957600080fd5b50610297610448366004614c52565b611487565b61029761045b366004615196565b6114a2565b61029761046e366004614dd2565b611571565b6102976104813660046151ae565b61160b565b34801561049257600080fd5b50610316611780565b3480156104a757600080fd5b506103946104b6366004615196565b6117a4565b3480156104c757600080fd5b506103166104d6366004615196565b6117ba565b3480156104e757600080fd5b506102e96117e2565b3480156104fc57600080fd5b5061039461050b366004614ba5565b6117e7565b61029761051e366004614dd2565b61184f565b61053661053136600461502e565b611c41565b6040516102cb9493929190615593565b34801561055257600080fd5b506102e9612159565b34801561056757600080fd5b5061057b610576366004615196565b6121ba565b6040516102cb9c9b9a999897969594939291906155c5565b34801561059f57600080fd5b506102976105ae366004614d39565b6123cb565b6102976105c1366004614dd2565b6124d0565b6105d96105d4366004614e2d565b612569565b6040516102cb919061537d565b3480156105f257600080fd5b50610297610601366004614c92565b6126a9565b610297610614366004614dd2565b612707565b34801561062557600080fd5b50610316612796565b34801561063a57600080fd5b506102e9610649366004615196565b6127ba565b34801561065a57600080fd5b506102976106693660046151f5565b612870565b61029761067c366004614d91565b6128ee565b34801561068d57600080fd5b506102be61069c366004614bc1565b6129c6565b6102976106af366004614dd2565b6129f4565b6103566106c2366004614f4a565b612a66565b6001600160e01b0319811660009081526020819052604090205460ff165b919050565b60068054604080516020601f60026000196101006001881615020190951694909404938401819004810282018101909252828152606093909290918301828280156107765780601f1061074b57610100808354040283529160200191610776565b820191906000526020600020905b81548152906001019060200180831161075957829003601f168201915b5050505050905090565b600061078b82612f31565b6107b05760405162461bcd60e51b81526004016107a790615469565b60405180910390fd5b506000908152600c6020526040902054600160601b90046001600160a01b031690565b60006107de826117ba565b9050806001600160a01b0316836001600160a01b031614156108315760405162461bcd60e51b81526004018080602001828103825260218152602001806159346021913960400191505060405180910390fd5b806001600160a01b0316610843612f3e565b6001600160a01b0316148061085f575061085f8161069c612f3e565b61089a5760405162461bcd60e51b815260040180806020018281038252603881526020018061585e6038913960400191505060405180910390fd5b6108a48383612f42565b505050565b60008082356108b83382612fb8565b6108d45760405162461bcd60e51b81526004016107a790615443565b8360800135806108e2613054565b111561092b576040805162461bcd60e51b8152602060048201526013602482015272151c985b9cd858dd1a5bdb881d1bdbc81bdb19606a1b604482015290519081900360640190fd5b600061093d6040870160208801615040565b6001600160801b03161161095057600080fd5b84356000908152600c602090815260409182902060018101549092600160801b9091046001600160801b03169161098b918901908901615040565b6001600160801b0316816001600160801b031610156109a957600080fd5b6001828101546001600160501b03166000908152600b60209081526040808320815160608101835281546001600160a01b039081168252919095015490811692850192909252600160a01b90910462ffffff1690830152610a2a7f000000000000000000000000000000000000000000000000000000000000000083613058565b60018501549091506001600160a01b0382169063a34123a790600160501b8104600290810b91600160681b9004900b610a6960408e0160208f01615040565b6040518463ffffffff1660e01b8152600401610a879392919061540a565b6040805180830381600087803b158015610aa057600080fd5b505af1158015610ab4573d6000803e3d6000fd5b505050506040513d601f19601f82011682018060405250810190610ad891906151d2565b909850965060408901358810801590610af5575088606001358710155b610b115760405162461bcd60e51b81526004016107a7906154b5565b6001840154600090610b3a903090600160501b8104600290810b91600160681b9004900b613137565b9050600080836001600160a01b031663514ea4bf846040518263ffffffff1660e01b8152600401610b6b91906153e8565b60a06040518083038186803b158015610b8357600080fd5b505afa158015610b97573d6000803e3d6000fd5b505050506040513d601f19601f82011682018060405250810190610bbb919061508a565b50509250925050610be087600201548303876001600160801b0316600160801b61318c565b6004880180546001600160801b03198116928e016001600160801b039182160181169290921790556003880154610c2191908303908816600160801b61318c565b6004880180546001600160801b03808216938e01600160801b9283900482160116029190911790556002870182905560038701819055610c6760408d0160208e01615040565b86038760010160106101000a8154816001600160801b0302191690836001600160801b031602179055508b600001357f26f6a048ee9138f2c0ce266f322cb99228e8d619ae2bff30c67f8dcf9d2377b48d6020016020810190610cca9190615040565b8d8d604051610cdb93929190615572565b60405180910390a2505050505050505050915091565b4715610d0157610d01334761323b565b565b6000836001600160a01b0316856001600160a01b031610610d2357600080fd5b7f00000000000000000000000000000000000000000000000000000000000000006001600160a01b0316631698ee828686866040518463ffffffff1660e01b815260040180846001600160a01b03168152602001836001600160a01b031681526020018262ffffff168152602001935050505060206040518083038186803b158015610dae57600080fd5b505afa158015610dc2573d6000803e3d6000fd5b505050506040513d6020811015610dd857600080fd5b505190506001600160a01b038116610f0e577f00000000000000000000000000000000000000000000000000000000000000006001600160a01b031663a16712958686866040518463ffffffff1660e01b815260040180846001600160a01b03168152602001836001600160a01b031681526020018262ffffff1681526020019350505050602060405180830381600087803b158015610e7757600080fd5b505af1158015610e8b573d6000803e3d6000fd5b505050506040513d6020811015610ea157600080fd5b50516040805163f637731d60e01b81526001600160a01b03858116600483015291519293509083169163f637731d9160248082019260009290919082900301818387803b158015610ef157600080fd5b505af1158015610f05573d6000803e3d6000fd5b50505050610ff5565b60008190506000816001600160a01b0316633850c7bd6040518163ffffffff1660e01b815260040160e06040518083038186803b158015610f4e57600080fd5b505afa158015610f62573d6000803e3d6000fd5b505050506040513d60e0811015610f7857600080fd5b505190506001600160a01b038116610ff257816001600160a01b031663f637731d856040518263ffffffff1660e01b815260040180826001600160a01b03168152602001915050600060405180830381600087803b158015610fd957600080fd5b505af1158015610fed573d6000803e3d6000fd5b505050505b50505b949350505050565b6000611009600261332a565b905090565b60008060008360a0013580611021613054565b111561106a576040805162461bcd60e51b8152602060048201526013602482015272151c985b9cd858dd1a5bdb881d1bdbc81bdb19606a1b604482015290519081900360640190fd5b84356000908152600c602090815260408083206001808201546001600160501b0381168652600b855283862084516060808201875282546001600160a01b039081168352929094015480831682890190815262ffffff600160a01b9092048216838901908152885161014081018a528451861681529151909416818a0152925116828701523082850152600160501b8304600290810b810b608080850191909152600160681b909404810b900b60a0830152958c013560c0820152938b013560e0850152908a0135610100840152890135610120830152929061114c90613335565b6001870154939a509198509650915060009061117f903090600160501b8104600290810b91600160681b9004900b613137565b9050600080836001600160a01b031663514ea4bf846040518263ffffffff1660e01b81526004016111b091906153e8565b60a06040518083038186803b1580156111c857600080fd5b505afa1580156111dc573d6000803e3d6000fd5b505050506040513d601f19601f82011682018060405250810190611200919061508a565b5050925092505061123c866002015483038760010160109054906101000a90046001600160801b03166001600160801b0316600160801b61318c565b6004870180546001600160801b0380821690930183166001600160801b0319909116179055600387015460018801546112839291840391600160801b91829004169061318c565b6004870180546001600160801b03600160801b80830482169094018116840291811691909117909155600288018490556003880183905560018801805483810483168e018316909302929091169190911790556040518b35907f3067048beee31b25b2f1681f88dac838c8bba36af25bfb2b7cf7473a5847e35f9061130d908d908d908d90615572565b60405180910390a2505050505050509193909250565b61133461132e612f3e565b82612fb8565b61136f5760405162461bcd60e51b81526004018080602001828103825260318152602001806159556031913960400191505060405180910390fd5b6108a4838383613570565b6001600160a01b038216600090815260016020526040812061139c90836136bc565b90505b92915050565b7f49ecf333e5b8c95c40fdafc95c1ad136e8914a8fb55e9dc8bb01eaa83a2df9ad81565b60007f8b73c3c69bb8fe3d512ecc4cf759cc79239f7b179b0ffacaa9a75d522b39400f7f00000000000000000000000000000000000000000000000000000000000000007f00000000000000000000000000000000000000000000000000000000000000006114366136c8565b3060405160200180868152602001858152602001848152602001838152602001826001600160a01b031681526020019550505050505060405160208183030381529060405280519060200120905090565b6108a4838383604051806020016040528060008152506126a9565b806114ad3382612fb8565b6114c95760405162461bcd60e51b81526004016107a790615443565b6000828152600c602052604090206001810154600160801b90046001600160801b0316158015611504575060048101546001600160801b0316155b801561152257506004810154600160801b90046001600160801b0316155b61153e5760405162461bcd60e51b81526004016107a79061550d565b6000838152600c60205260408120818155600181018290556002810182905560038101829055600401556108a4836136cc565b604080516323f2ebc360e21b815233600482015230602482015260448101879052606481018690526001608482015260ff851660a482015260c4810184905260e4810183905290516001600160a01b03881691638fcbaf0c9161010480830192600092919082900301818387803b1580156115eb57600080fd5b505af11580156115ff573d6000803e3d6000fd5b50505050505050505050565b60007f00000000000000000000000000000000000000000000000000000000000000006001600160a01b03166370a08231306040518263ffffffff1660e01b815260040180826001600160a01b0316815260200191505060206040518083038186803b15801561167a57600080fd5b505afa15801561168e573d6000803e3d6000fd5b505050506040513d60208110156116a457600080fd5b50519050828110156116f2576040805162461bcd60e51b8152602060048201526012602482015271496e73756666696369656e7420574554483960701b604482015290519081900360640190fd5b80156108a4577f00000000000000000000000000000000000000000000000000000000000000006001600160a01b0316632e1a7d4d826040518263ffffffff1660e01b815260040180828152602001915050600060405180830381600087803b15801561175e57600080fd5b505af1158015611772573d6000803e3d6000fd5b505050506108a4828261323b565b7f000000000000000000000000000000000000000000000000000000000000000081565b6000806117b2600284613799565b509392505050565b600061139f826040518060600160405280602981526020016158c060299139600291906137b7565b606090565b60006001600160a01b03821661182e5760405162461bcd60e51b815260040180806020018281038252602a815260200180615896602a913960400191505060405180910390fd5b6001600160a01b038216600090815260016020526040902061139f9061332a565b83611858613054565b111561189c576040805162461bcd60e51b815260206004820152600e60248201526d14195c9b5a5d08195e1c1a5c995960921b604482015290519081900360640190fd5b60006118a66113c9565b7f49ecf333e5b8c95c40fdafc95c1ad136e8914a8fb55e9dc8bb01eaa83a2df9ad88886118d2816137c4565b604080516020808201969096526001600160a01b03909416848201526060840192909252608083015260a08083018a90528151808403909101815260c08301825280519084012061190160f01b60e084015260e28301949094526101028083019490945280518083039094018452610122909101905281519101209050600061195a876117ba565b9050806001600160a01b0316886001600160a01b031614156119ad5760405162461bcd60e51b81526004018080602001828103825260278152602001806157c16027913960400191505060405180910390fd5b6119b6816137f9565b15611b1e576040805160208082018790528183018690526001600160f81b031960f889901b1660608301528251604181840301815260618301808552630b135d3f60e11b90526065830186815260858401948552815160a585015281516001600160a01b03871695631626ba7e958995919260c59091019185019080838360005b83811015611a4f578181015183820152602001611a37565b50505050905090810190601f168015611a7c5780820380516001836020036101000a031916815260200191505b50935050505060206040518083038186803b158015611a9a57600080fd5b505afa158015611aae573d6000803e3d6000fd5b505050506040513d6020811015611ac457600080fd5b50516001600160e01b031916630b135d3f60e11b14611b19576040805162461bcd60e51b815260206004820152600c60248201526b155b985d5d1a1bdc9a5e995960a21b604482015290519081900360640190fd5b611c2d565b600060018387878760405160008152602001604052604051808581526020018460ff1681526020018381526020018281526020019450505050506020604051602081039080840390855afa158015611b7a573d6000803e3d6000fd5b5050604051601f1901519150506001600160a01b038116611bd6576040805162461bcd60e51b8152602060048201526011602482015270496e76616c6964207369676e617475726560781b604482015290519081900360640190fd5b816001600160a01b0316816001600160a01b031614611c2b576040805162461bcd60e51b815260206004820152600c60248201526b155b985d5d1a1bdc9a5e995960a21b604482015290519081900360640190fd5b505b611c378888612f42565b5050505050505050565b60008060008084610140013580611c56613054565b1115611c9f576040805162461bcd60e51b8152602060048201526013602482015272151c985b9cd858dd1a5bdb881d1bdbc81bdb19606a1b604482015290519081900360640190fd5b604080516101408101909152600090611d6b9080611cc060208b018b614ba5565b6001600160a01b03168152602001896020016020810190611ce19190614ba5565b6001600160a01b03168152602001611cff60608b0160408c0161517c565b62ffffff168152306020820152604001611d1f60808b0160608c01614ec4565b60020b8152602001611d3760a08b0160808c01614ec4565b60020b81526020018960a0013581526020018960c0013581526020018960e001358152602001896101000135815250613335565b92975090955093509050611db8611d8a61014089016101208a01614ba5565b600d80546001600160b01b0319811660016001600160b01b03928316908101909216179091559750876137ff565b6000611de330611dce60808b0160608c01614ec4565b611dde60a08c0160808d01614ec4565b613137565b9050600080836001600160a01b031663514ea4bf846040518263ffffffff1660e01b8152600401611e1491906153e8565b60a06040518083038186803b158015611e2c57600080fd5b505afa158015611e40573d6000803e3d6000fd5b505050506040513d601f19601f82011682018060405250810190611e64919061508a565b505092509250506000611edd8560405180606001604052808e6000016020810190611e8f9190614ba5565b6001600160a01b031681526020018e6020016020810190611eb09190614ba5565b6001600160a01b031681526020018e6040016020810190611ed1919061517c565b62ffffff16905261392d565b905060405180610140016040528060006001600160601b0316815260200160006001600160a01b03168152602001826001600160501b031681526020018c6060016020810190611f2d9190614ec4565b60020b8152602001611f4560a08e0160808f01614ec4565b60020b81526020018a6001600160801b0316815260200184815260200183815260200160006001600160801b0316815260200160006001600160801b0316815250600c60008c815260200190815260200160002060008201518160000160006101000a8154816001600160601b0302191690836001600160601b03160217905550602082015181600001600c6101000a8154816001600160a01b0302191690836001600160a01b0316021790555060408201518160010160006101000a8154816001600160501b0302191690836001600160501b03160217905550606082015181600101600a6101000a81548162ffffff021916908360020b62ffffff160217905550608082015181600101600d6101000a81548162ffffff021916908360020b62ffffff16021790555060a08201518160010160106101000a8154816001600160801b0302191690836001600160801b0316021790555060c0820151816002015560e082015181600301556101008201518160040160006101000a8154816001600160801b0302191690836001600160801b031602179055506101208201518160040160106101000a8154816001600160801b0302191690836001600160801b03160217905550905050897f3067048beee31b25b2f1681f88dac838c8bba36af25bfb2b7cf7473a5847e35f8a8a8a60405161214493929190615572565b60405180910390a25050505050509193509193565b60078054604080516020601f60026000196101006001881615020190951694909404938401819004810282018101909252828152606093909290918301828280156107765780601f1061074b57610100808354040283529160200191610776565b6000818152600c6020908152604080832081516101408101835281546001600160601b03811682526001600160a01b03600160601b909104169381019390935260018101546001600160501b038116928401839052600160501b8104600290810b810b810b6060860152600160681b8204810b810b810b60808601526001600160801b03600160801b92839004811660a08701529083015460c0860152600383015460e0860152600490920154808316610100860152041661012083015282918291829182918291829182918291829182918291906122ab5760405162461bcd60e51b81526004016107a7906154e3565b6000600b600083604001516001600160501b03166001600160501b031681526020019081526020016000206040518060600160405290816000820160009054906101000a90046001600160a01b03166001600160a01b03166001600160a01b031681526020016001820160009054906101000a90046001600160a01b03166001600160a01b03166001600160a01b031681526020016001820160149054906101000a900462ffffff1662ffffff1662ffffff1681525050905081600001518260200151826000015183602001518460400151866060015187608001518860a001518960c001518a60e001518b61010001518c61012001519d509d509d509d509d509d509d509d509d509d509d509d50505091939597999b5091939597999b565b6123d3612f3e565b6001600160a01b0316826001600160a01b03161415612439576040805162461bcd60e51b815260206004820152601960248201527f4552433732313a20617070726f766520746f2063616c6c657200000000000000604482015290519081900360640190fd5b8060056000612446612f3e565b6001600160a01b03908116825260208083019390935260409182016000908120918716808252919093529120805460ff19169215159290921790915561248a612f3e565b6001600160a01b03167f17307eab39ab6107e8899845ad3d59bd9653f200f220920489ca2b5937696c318360405180821515815260200191505060405180910390a35050565b60408051636eb1769f60e11b81523360048201523060248201529051600019916001600160a01b0389169163dd62ed3e91604480820192602092909190829003018186803b15801561252157600080fd5b505afa158015612535573d6000803e3d6000fd5b505050506040513d602081101561254b57600080fd5b5051101561256157612561868686868686611571565b505050505050565b60608167ffffffffffffffff8111801561258257600080fd5b506040519080825280602002602001820160405280156125b657816020015b60608152602001906001900390816125a15790505b50905060005b828110156126a257600080308686858181106125d457fe5b90506020028101906125e6919061565f565b6040516125f49291906152b0565b600060405180830381855af49150503d806000811461262f576040519150601f19603f3d011682016040523d82523d6000602084013e612634565b606091505b5091509150816126805760448151101561264d57600080fd5b600481019050808060200190518101906126679190614ee0565b60405162461bcd60e51b81526004016107a79190615430565b8084848151811061268d57fe5b602090810291909101015250506001016125bc565b5092915050565b6126ba6126b4612f3e565b83612fb8565b6126f55760405162461bcd60e51b81526004018080602001828103825260318152602001806159556031913960400191505060405180910390fd5b61270184848484613a0f565b50505050565b60408051636eb1769f60e11b8152336004820152306024820152905186916001600160a01b0389169163dd62ed3e91604480820192602092909190829003018186803b15801561275657600080fd5b505afa15801561276a573d6000803e3d6000fd5b505050506040513d602081101561278057600080fd5b50511015612561576125618686868686866129f4565b7f000000000000000000000000000000000000000000000000000000000000000081565b60606127c582612f31565b6127ce57600080fd5b60405163e9dc637560e01b81526001600160a01b037f0000000000000000000000000000000000000000000000000000000000000000169063e9dc63759061281c90309086906004016153f1565b60006040518083038186803b15801561283457600080fd5b505afa158015612848573d6000803e3d6000fd5b505050506040513d6000823e601f3d908101601f1916820160405261139f9190810190614ee0565b600061287e82840184614f83565b90506128ae7f00000000000000000000000000000000000000000000000000000000000000008260000151613a61565b5084156128c95780515160208201516128c991903388613a84565b83156128e7576128e781600001516020015182602001513387613a84565b5050505050565b6000836001600160a01b03166370a08231306040518263ffffffff1660e01b815260040180826001600160a01b0316815260200191505060206040518083038186803b15801561293d57600080fd5b505afa158015612951573d6000803e3d6000fd5b505050506040513d602081101561296757600080fd5b50519050828110156129b5576040805162461bcd60e51b815260206004820152601260248201527124b739bab33334b1b4b2b73a103a37b5b2b760711b604482015290519081900360640190fd5b801561270157612701848383613c14565b6001600160a01b03918216600090815260056020908152604080832093909416825291909152205460ff1690565b6040805163d505accf60e01b8152336004820152306024820152604481018790526064810186905260ff8516608482015260a4810184905260c4810183905290516001600160a01b0388169163d505accf9160e480830192600092919082900301818387803b1580156115eb57600080fd5b6000808235612a753382612fb8565b612a915760405162461bcd60e51b81526004016107a790615443565b6000612aa36060860160408701615040565b6001600160801b03161180612ad057506000612ac56080860160608701615040565b6001600160801b0316115b612ad957600080fd5b600080612aec6040870160208801614ba5565b6001600160a01b031614612b0f57612b0a6040860160208701614ba5565b612b11565b305b85356000908152600c602090815260408083206001808201546001600160501b03168552600b8452828520835160608101855281546001600160a01b039081168252919092015490811694820194909452600160a01b90930462ffffff169183019190915292935090612ba47f000000000000000000000000000000000000000000000000000000000000000083613058565b600484015460018501549192506001600160801b0380821692600160801b9283900482169290041615612d9a57600185015460405163a34123a760e01b81526001600160a01b0385169163a34123a791612c1b91600160501b8104600290810b92600160681b909204900b9060009060040161540a565b6040805180830381600087803b158015612c3457600080fd5b505af1158015612c48573d6000803e3d6000fd5b505050506040513d601f19601f82011682018060405250810190612c6c91906151d2565b5050600185015460009081906001600160a01b0386169063514ea4bf90612caa903090600160501b8104600290810b91600160681b9004900b613137565b6040518263ffffffff1660e01b8152600401612cc691906153e8565b60a06040518083038186803b158015612cde57600080fd5b505afa158015612cf2573d6000803e3d6000fd5b505050506040513d601f19601f82011682018060405250810190612d16919061508a565b50509250925050612d52876002015483038860010160109054906101000a90046001600160801b03166001600160801b0316600160801b61318c565b84019350612d8b876003015482038860010160109054906101000a90046001600160801b03166001600160801b0316600160801b61318c565b60028801929092556003870155015b6000806001600160801b038416612db760608e0160408f01615040565b6001600160801b031611612dda57612dd560608d0160408e01615040565b612ddc565b835b836001600160801b03168d6060016020810190612df99190615040565b6001600160801b031611612e1c57612e1760808e0160608f01615040565b612e1e565b835b60018901546040516309e3d67b60e31b81529294509092506001600160a01b03871691634f1eb3d891612e71918c91600160501b8104600290810b92600160681b909204900b9088908890600401615316565b6040805180830381600087803b158015612e8a57600080fd5b505af1158015612e9e573d6000803e3d6000fd5b505050506040513d601f19601f82011682018060405250810190612ec2919061505c565b6004890180546001600160801b03196001600160801b03918216600160801b878a0384160217168689038216179091556040519281169d50169a508c35907f40d0efd1a53d60ecbf40971b9daf7dc90178c3aadc7aab1765632738fa8b8f0190610cdb908b9086908690615353565b600061139f600283613d5b565b3390565b6000818152600c6020526040902080546001600160601b0316600160601b6001600160a01b038516908102919091179091558190612f7f826117ba565b6001600160a01b03167f8c5be1e5ebec7d5bd14f71427d1e84f3dd0314c0f7b2291e5b200ac8c7c3b92560405160405180910390a45050565b6000612fc382612f31565b612ffe5760405162461bcd60e51b815260040180806020018281038252602c815260200180615832602c913960400191505060405180910390fd5b6000613009836117ba565b9050806001600160a01b0316846001600160a01b031614806130445750836001600160a01b031661303984610780565b6001600160a01b0316145b80610ff55750610ff581856129c6565b4290565b600081602001516001600160a01b031682600001516001600160a01b03161061308057600080fd5b50805160208083015160409384015184516001600160a01b0394851681850152939091168385015262ffffff166060808401919091528351808403820181526080840185528051908301206001600160f81b031960a085015294901b6001600160601b03191660a183015260b58201939093527fb36af8e1340d0a753a78292bd62a6582c86bd615e9b26623592b410a7fbc45d460d5808301919091528251808303909101815260f5909101909152805191012090565b604080516001600160601b0319606086901b16602080830191909152600285810b60e890811b60348501529085900b901b60378301528251601a818403018152603a90920190925280519101205b9392505050565b60008080600019858709868602925082811090839003039050806131c257600084116131b757600080fd5b508290049050613185565b8084116131ce57600080fd5b6000848688096000868103871696879004966002600389028118808a02820302808a02820302808a02820302808a02820302808a02820302808a02909103029181900381900460010186841190950394909402919094039290920491909117919091029150509392505050565b604080516000808252602082019092526001600160a01b0384169083906040518082805190602001908083835b602083106132875780518252601f199092019160209182019101613268565b6001836020036101000a03801982511681845116808217855250505050505090500191505060006040518083038185875af1925050503d80600081146132e9576040519150601f19603f3d011682016040523d82523d6000602084013e6132ee565b606091505b50509050806108a4576040805162461bcd60e51b815260206004820152600360248201526253544560e81b604482015290519081900360640190fd5b600061139f82613d67565b6000806000806000604051806060016040528087600001516001600160a01b0316815260200187602001516001600160a01b03168152602001876040015162ffffff1681525090506133a77f000000000000000000000000000000000000000000000000000000000000000082613058565b91506000826001600160a01b0316633850c7bd6040518163ffffffff1660e01b815260040160e06040518083038186803b1580156133e457600080fd5b505afa1580156133f8573d6000803e3d6000fd5b505050506040513d601f19601f8201168201806040525081019061341c91906150eb565b505050505050905060006134338860800151613d6b565b905060006134448960a00151613d6b565b905061345b8383838c60c001518d60e0015161409d565b9750505050816001600160a01b0316633c8a7d8d876060015188608001518960a00151896040518060400160405280888152602001336001600160a01b03168152506040516020016134ad9190615532565b6040516020818303038152906040526040518663ffffffff1660e01b81526004016134dc9594939291906152d4565b6040805180830381600087803b1580156134f557600080fd5b505af1158015613509573d6000803e3d6000fd5b505050506040513d601f19601f8201168201806040525081019061352d91906151d2565b6101008801519195509350841080159061354c57508561012001518310155b6135685760405162461bcd60e51b81526004016107a7906154b5565b509193509193565b826001600160a01b0316613583826117ba565b6001600160a01b0316146135c85760405162461bcd60e51b815260040180806020018281038252602981526020018061590b6029913960400191505060405180910390fd5b6001600160a01b03821661360d5760405162461bcd60e51b81526004018080602001828103825260248152602001806157e86024913960400191505060405180910390fd5b6136188383836108a4565b613623600082612f42565b6001600160a01b03831660009081526001602052604090206136459082614161565b506001600160a01b0382166000908152600160205260409020613668908261416d565b5061367560028284614179565b5080826001600160a01b0316846001600160a01b03167fddf252ad1be2c89b69c2b068fc378daa952ba7f163c4a11628f55a4df523b3ef60405160405180910390a4505050565b600061139c838361418f565b4690565b60006136d7826117ba565b90506136e5816000846108a4565b6136f0600083612f42565b600082815260086020526040902054600260001961010060018416150201909116041561372e57600082815260086020526040812061372e91614b15565b6001600160a01b03811660009081526001602052604090206137509083614161565b5061375c6002836141f3565b5060405182906000906001600160a01b038416907fddf252ad1be2c89b69c2b068fc378daa952ba7f163c4a11628f55a4df523b3ef908390a45050565b60008080806137a886866141ff565b909450925050505b9250929050565b6000610ff584848461427a565b6000908152600c6020526040902080546001600160601b0319811660016001600160601b039283169081019092161790915590565b3b151590565b6001600160a01b03821661385a576040805162461bcd60e51b815260206004820181905260248201527f4552433732313a206d696e7420746f20746865207a65726f2061646472657373604482015290519081900360640190fd5b61386381612f31565b156138b5576040805162461bcd60e51b815260206004820152601c60248201527f4552433732313a20746f6b656e20616c7265616479206d696e74656400000000604482015290519081900360640190fd5b6138c1600083836108a4565b6001600160a01b03821660009081526001602052604090206138e3908261416d565b506138f060028284614179565b5060405181906001600160a01b038416906000907fddf252ad1be2c89b69c2b068fc378daa952ba7f163c4a11628f55a4df523b3ef908290a45050565b6001600160a01b0382166000908152600a60205260409020546001600160501b03168061139f5750600d805460016001600160501b03600160b01b8084048216838101909216026001600160b01b03909316929092179092556001600160a01b038085166000908152600a60209081526040808320805469ffffffffffffffffffff191686179055848352600b825291829020865181549085166001600160a01b031991821617825591870151950180549287015162ffffff16600160a01b0262ffffff60a01b19969094169290911691909117939093161790915592915050565b613a1a848484613570565b613a2684848484614344565b6127015760405162461bcd60e51b815260040180806020018281038252603281526020018061578f6032913960400191505060405180910390fd5b6000613a6d8383613058565b9050336001600160a01b0382161461139f57600080fd5b7f00000000000000000000000000000000000000000000000000000000000000006001600160a01b0316846001600160a01b0316148015613ac55750804710155b15613be7577f00000000000000000000000000000000000000000000000000000000000000006001600160a01b031663d0e30db0826040518263ffffffff1660e01b81526004016000604051808303818588803b158015613b2557600080fd5b505af1158015613b39573d6000803e3d6000fd5b50505050507f00000000000000000000000000000000000000000000000000000000000000006001600160a01b031663a9059cbb83836040518363ffffffff1660e01b815260040180836001600160a01b0316815260200182815260200192505050602060405180830381600087803b158015613bb557600080fd5b505af1158015613bc9573d6000803e3d6000fd5b505050506040513d6020811015613bdf57600080fd5b506127019050565b6001600160a01b038316301415613c0857613c03848383613c14565b612701565b612701848484846144ac565b604080516001600160a01b038481166024830152604480830185905283518084039091018152606490920183526020820180516001600160e01b031663a9059cbb60e01b1781529251825160009485949389169392918291908083835b60208310613c905780518252601f199092019160209182019101613c71565b6001836020036101000a0380198251168184511680821785525050505050509050019150506000604051808303816000865af19150503d8060008114613cf2576040519150601f19603f3d011682016040523d82523d6000602084013e613cf7565b606091505b5091509150818015613d25575080511580613d255750808060200190516020811015613d2257600080fd5b50515b6128e7576040805162461bcd60e51b815260206004820152600260248201526114d560f21b604482015290519081900360640190fd5b600061139c83836145fc565b5490565b60008060008360020b12613d82578260020b613d8a565b8260020b6000035b9050620d89e8811115613dc8576040805162461bcd60e51b81526020600482015260016024820152601560fa1b604482015290519081900360640190fd5b600060018216613ddc57600160801b613dee565b6ffffcb933bd6fad37aa2d162d1a5940015b70ffffffffffffffffffffffffffffffffff1690506002821615613e22576ffff97272373d413259a46990580e213a0260801c5b6004821615613e41576ffff2e50f5f656932ef12357cf3c7fdcc0260801c5b6008821615613e60576fffe5caca7e10e4e61c3624eaa0941cd00260801c5b6010821615613e7f576fffcb9843d60f6159c9db58835c9266440260801c5b6020821615613e9e576fff973b41fa98c081472e6896dfb254c00260801c5b6040821615613ebd576fff2ea16466c96a3843ec78b326b528610260801c5b6080821615613edc576ffe5dee046a99a2a811c461f1969c30530260801c5b610100821615613efc576ffcbe86c7900a88aedcffc83b479aa3a40260801c5b610200821615613f1c576ff987a7253ac413176f2b074cf7815e540260801c5b610400821615613f3c576ff3392b0822b70005940c7a398e4b70f30260801c5b610800821615613f5c576fe7159475a2c29b7443b29c7fa6e889d90260801c5b611000821615613f7c576fd097f3bdfd2022b8845ad8f792aa58250260801c5b612000821615613f9c576fa9f746462d870fdf8a65dc1f90e061e50260801c5b614000821615613fbc576f70d869a156d2a1b890bb3df62baf32f70260801c5b618000821615613fdc576f31be135f97d08fd981231505542fcfa60260801c5b62010000821615613ffd576f09aa508b5b7a84e1c677de54f3e99bc90260801c5b6202000082161561401d576e5d6af8dedb81196699c329225ee6040260801c5b6204000082161561403c576d2216e584f5fa1ea926041bedfe980260801c5b62080000821615614059576b048a170391f7dc42444e8fa20260801c5b60008460020b131561407457806000198161407057fe5b0490505b64010000000081061561408857600161408b565b60005b60ff16602082901c0192505050919050565b6000836001600160a01b0316856001600160a01b031611156140bd579293925b846001600160a01b0316866001600160a01b0316116140e8576140e1858585614614565b9050614158565b836001600160a01b0316866001600160a01b0316101561414a57600061410f878686614614565b9050600061411e878986614677565b9050806001600160801b0316826001600160801b03161061413f5780614141565b815b92505050614158565b614155858584614677565b90505b95945050505050565b600061139c83836146b4565b600061139c838361477a565b6000610ff584846001600160a01b0385166147c4565b815460009082106141d15760405162461bcd60e51b815260040180806020018281038252602281526020018061576d6022913960400191505060405180910390fd5b8260000182815481106141e057fe5b9060005260206000200154905092915050565b600061139c838361485b565b8154600090819083106142435760405162461bcd60e51b81526004018080602001828103825260228152602001806158e96022913960400191505060405180910390fd5b600084600001848154811061425457fe5b906000526020600020906002020190508060000154816001015492509250509250929050565b600082815260018401602052604081205482816143155760405162461bcd60e51b81526004018080602001828103825283818151815260200191508051906020019080838360005b838110156142da5781810151838201526020016142c2565b50505050905090810190601f1680156143075780820380516001836020036101000a031916815260200191505b509250505060405180910390fd5b5084600001600182038154811061432857fe5b9060005260206000209060020201600101549150509392505050565b6000614358846001600160a01b03166137f9565b61436457506001610ff5565b6000614472630a85bd0160e11b614379612f3e565b88878760405160240180856001600160a01b03168152602001846001600160a01b0316815260200183815260200180602001828103825283818151815260200191508051906020019080838360005b838110156143e05781810151838201526020016143c8565b50505050905090810190601f16801561440d5780820380516001836020036101000a031916815260200191505b5095505050505050604051602081830303815290604052906001600160e01b0319166020820180516001600160e01b03838183161783525050505060405180606001604052806032815260200161578f603291396001600160a01b038816919061492f565b9050600081806020019051602081101561448b57600080fd5b50516001600160e01b031916630a85bd0160e11b1492505050949350505050565b604080516001600160a01b0385811660248301528481166044830152606480830185905283518084039091018152608490920183526020820180516001600160e01b03166323b872dd60e01b178152925182516000948594938a169392918291908083835b602083106145305780518252601f199092019160209182019101614511565b6001836020036101000a0380198251168184511680821785525050505050509050019150506000604051808303816000865af19150503d8060008114614592576040519150601f19603f3d011682016040523d82523d6000602084013e614597565b606091505b50915091508180156145c55750805115806145c557508080602001905160208110156145c257600080fd5b50515b612561576040805162461bcd60e51b815260206004820152600360248201526229aa2360e91b604482015290519081900360640190fd5b60009081526001919091016020526040902054151590565b6000826001600160a01b0316846001600160a01b03161115614634579192915b6000614657856001600160a01b0316856001600160a01b0316600160601b61318c565b905061415861467284838888036001600160a01b031661318c565b61493e565b6000826001600160a01b0316846001600160a01b03161115614697579192915b610ff561467283600160601b8787036001600160a01b031661318c565b6000818152600183016020526040812054801561477057835460001980830191908101906000908790839081106146e757fe5b906000526020600020015490508087600001848154811061470457fe5b60009182526020808320909101929092558281526001898101909252604090209084019055865487908061473457fe5b6001900381819060005260206000200160009055905586600101600087815260200190815260200160002060009055600194505050505061139f565b600091505061139f565b600061478683836145fc565b6147bc5750815460018181018455600084815260208082209093018490558454848252828601909352604090209190915561139f565b50600061139f565b600082815260018401602052604081205480614829575050604080518082018252838152602080820184815286546001818101895560008981528481209551600290930290950191825591519082015586548684528188019092529290912055613185565b8285600001600183038154811061483c57fe5b9060005260206000209060020201600101819055506000915050613185565b60008181526001830160205260408120548015614770578354600019808301919081019060009087908390811061488e57fe5b90600052602060002090600202019050808760000184815481106148ae57fe5b6000918252602080832084546002909302019182556001938401549184019190915583548252898301905260409020908401905586548790806148ed57fe5b600082815260208082206002600019909401938402018281556001908101839055929093558881528982019092526040822091909155945061139f9350505050565b6060610ff58484600085614954565b806001600160801b03811681146106e557600080fd5b6060824710156149955760405162461bcd60e51b815260040180806020018281038252602681526020018061580c6026913960400191505060405180910390fd5b61499e856137f9565b6149ef576040805162461bcd60e51b815260206004820152601d60248201527f416464726573733a2063616c6c20746f206e6f6e2d636f6e7472616374000000604482015290519081900360640190fd5b600080866001600160a01b031685876040518082805190602001908083835b60208310614a2d5780518252601f199092019160209182019101614a0e565b6001836020036101000a03801982511681845116808217855250505050505090500191505060006040518083038185875af1925050503d8060008114614a8f576040519150601f19603f3d011682016040523d82523d6000602084013e614a94565b606091505b5091509150614aa4828286614aaf565b979650505050505050565b60608315614abe575081613185565b825115614ace5782518084602001fd5b60405162461bcd60e51b81526020600482018181528451602484015284518593919283926044019190850190808383600083156142da5781810151838201526020016142c2565b50805460018160011615610100020316600290046000825580601f10614b3b5750614b59565b601f016020900490600052602060002090810190614b599190614b5c565b50565b5b80821115614b715760008155600101614b5d565b5090565b80356106e581615716565b805161ffff811681146106e557600080fd5b803562ffffff811681146106e557600080fd5b600060208284031215614bb6578081fd5b813561318581615716565b60008060408385031215614bd3578081fd5b8235614bde81615716565b91506020830135614bee81615716565b809150509250929050565b60008060008060808587031215614c0e578182fd5b8435614c1981615716565b93506020850135614c2981615716565b9250614c3760408601614b92565b91506060850135614c4781615716565b939692955090935050565b600080600060608486031215614c66578081fd5b8335614c7181615716565b92506020840135614c8181615716565b929592945050506040919091013590565b60008060008060808587031215614ca7578182fd5b8435614cb281615716565b93506020850135614cc281615716565b925060408501359150606085013567ffffffffffffffff811115614ce4578182fd5b8501601f81018713614cf4578182fd5b8035614d07614d02826156c8565b6156a4565b818152886020838501011115614d1b578384fd5b81602084016020830137908101602001929092525092959194509250565b60008060408385031215614d4b578182fd5b8235614d5681615716565b91506020830135614bee8161572b565b60008060408385031215614d78578182fd5b8235614d8381615716565b946020939093013593505050565b600080600060608486031215614da5578081fd5b8335614db081615716565b9250602084013591506040840135614dc781615716565b809150509250925092565b60008060008060008060c08789031215614dea578384fd5b8635614df581615716565b955060208701359450604087013593506060870135614e138161575d565b9598949750929560808101359460a0909101359350915050565b60008060208385031215614e3f578182fd5b823567ffffffffffffffff80821115614e56578384fd5b818501915085601f830112614e69578384fd5b813581811115614e77578485fd5b8660208083028501011115614e8a578485fd5b60209290920196919550909350505050565b600060208284031215614ead578081fd5b81356001600160e01b031981168114613185578182fd5b600060208284031215614ed5578081fd5b813561318581615739565b600060208284031215614ef1578081fd5b815167ffffffffffffffff811115614f07578182fd5b8201601f81018413614f17578182fd5b8051614f25614d02826156c8565b818152856020838501011115614f39578384fd5b6141588260208301602086016156ea565b600060808284031215614f5b578081fd5b50919050565b600060a08284031215614f5b578081fd5b600060c08284031215614f5b578081fd5b60008183036080811215614f95578182fd5b6040516040810167ffffffffffffffff8282108183111715614fb357fe5b816040526060841215614fc4578485fd5b60a0830193508184108185111715614fd857fe5b508260405284359250614fea83615716565b918252602084013591614ffc83615716565b82606083015261500e60408601614b92565b6080830152815261502160608501614b75565b6020820152949350505050565b60006101608284031215614f5b578081fd5b600060208284031215615051578081fd5b813561318581615748565b6000806040838503121561506e578182fd5b825161507981615748565b6020840151909250614bee81615748565b600080600080600060a086880312156150a1578283fd5b85516150ac81615748565b80955050602086015193506040860151925060608601516150cc81615748565b60808701519092506150dd81615748565b809150509295509295909350565b600080600080600080600060e0888a031215615105578485fd5b875161511081615716565b602089015190975061512181615739565b955061512f60408901614b80565b945061513d60608901614b80565b935061514b60808901614b80565b925060a088015161515b8161575d565b60c089015190925061516c8161572b565b8091505092959891949750929550565b60006020828403121561518d578081fd5b61139c82614b92565b6000602082840312156151a7578081fd5b5035919050565b600080604083850312156151c0578182fd5b823591506020830135614bee81615716565b600080604083850312156151e4578182fd5b505080516020909101519092909150565b6000806000806060858703121561520a578182fd5b8435935060208501359250604085013567ffffffffffffffff8082111561522f578384fd5b818701915087601f830112615242578384fd5b813581811115615250578485fd5b886020828501011115615261578485fd5b95989497505060200194505050565b600081518084526152888160208601602086016156ea565b601f01601f19169290920160200192915050565b60020b9052565b6001600160801b03169052565b6000828483379101908152919050565b6001600160a01b0391909116815260200190565b600060018060a01b03871682528560020b60208301528460020b60408301526001600160801b038416606083015260a06080830152614aa460a0830184615270565b6001600160a01b03959095168552600293840b60208601529190920b60408401526001600160801b03918216606084015216608082015260a00190565b6001600160a01b039390931683526001600160801b03918216602084015216604082015260600190565b6000602080830181845280855180835260408601915060408482028701019250838701855b828110156153d057603f198886030184526153be858351615270565b945092850192908501906001016153a2565b5092979650505050505050565b901515815260200190565b90815260200190565b6001600160a01b03929092168252602082015260400190565b600293840b81529190920b60208201526001600160801b03909116604082015260600190565b60006020825261139c6020830184615270565b6020808252600c908201526b139bdd08185c1c1c9bdd995960a21b604082015260600190565b6020808252602c908201527f4552433732313a20617070726f76656420717565727920666f72206e6f6e657860408201526b34b9ba32b73a103a37b5b2b760a11b606082015260800190565b602080825260149082015273507269636520736c69707061676520636865636b60601b604082015260600190565b60208082526010908201526f125b9d985b1a59081d1bdad95b88125160821b604082015260600190565b6020808252600b908201526a139bdd0818db19585c995960aa1b604082015260600190565b815180516001600160a01b03908116835260208083015182168185015260409283015162ffffff1692840192909252920151909116606082015260800190565b6001600160801b039390931683526020830191909152604082015260600190565b9384526001600160801b039290921660208401526040830152606082015260800190565b918252602082015260400190565b6001600160601b038d1681526001600160a01b038c811660208301528b811660408301528a16606082015262ffffff89166080820152600288900b60a0820152610180810161561760c083018961529c565b61562460e08301886152a3565b85610100830152846101208301526156406101408301856152a3565b61564e6101608301846152a3565b9d9c50505050505050505050505050565b6000808335601e19843603018112615675578283fd5b83018035915067ffffffffffffffff82111561568f578283fd5b6020019150368190038213156137b057600080fd5b60405181810167ffffffffffffffff811182821017156156c057fe5b604052919050565b600067ffffffffffffffff8211156156dc57fe5b50601f01601f191660200190565b60005b838110156157055781810151838201526020016156ed565b838111156127015750506000910152565b6001600160a01b0381168114614b5957600080fd5b8015158114614b5957600080fd5b8060020b8114614b5957600080fd5b6001600160801b0381168114614b5957600080fd5b60ff81168114614b5957600080fdfe456e756d657261626c655365743a20696e646578206f7574206f6620626f756e64734552433732313a207472616e7366657220746f206e6f6e20455243373231526563656976657220696d706c656d656e7465724552433732315065726d69743a20617070726f76616c20746f2063757272656e74206f776e65724552433732313a207472616e7366657220746f20746865207a65726f2061646472657373416464726573733a20696e73756666696369656e742062616c616e636520666f722063616c6c4552433732313a206f70657261746f7220717565727920666f72206e6f6e6578697374656e7420746f6b656e4552433732313a20617070726f76652063616c6c6572206973206e6f74206f776e6572206e6f7220617070726f76656420666f7220616c6c4552433732313a2062616c616e636520717565727920666f7220746865207a65726f20616464726573734552433732313a206f776e657220717565727920666f72206e6f6e6578697374656e7420746f6b656e456e756d657261626c654d61703a20696e646578206f7574206f6620626f756e64734552433732313a207472616e73666572206f6620746f6b656e2074686174206973206e6f74206f776e4552433732313a20617070726f76616c20746f2063757272656e74206f776e65724552433732313a207472616e736665722063616c6c6572206973206e6f74206f776e6572206e6f7220617070726f766564a26469706673582212204f34cebb9cd824b0156a01812bdbfc626a2dcf3c5c61ffe7b29bbafca7cb980a64736f6c63430007060033",
  "immutableReferences": {
    "3808": [
      {
        "length": 32,
        "start": 5102
      }
    ],
    "3811": [
      {
        "length": 32,
        "start": 5135
      }
    ],
    "4301": [
      {
        "length": 32,
        "start": 2565
      },
      {
        "length": 32,
        "start": 3365
      },
      {
        "length": 32,
        "start": 3564
      },
      {
        "length": 32,
        "start": 10136
      },
      {
        "length": 32,
        "start": 10373
      },
      {
        "length": 32,
        "start": 11135
      },
      {
        "length": 32,
        "start": 13186
      }
    ],
    "4305": [
      {
        "length": 32,
        "start": 569
      },
      {
        "length": 32,
        "start": 5647
      },
      {
        "length": 32,
        "start": 5882
      },
      {
        "length": 32,
        "start": 6018
      },
      {
        "length": 32,
        "start": 14982
      },
      {
        "length": 32,
        "start": 15052
      },
      {
        "length": 32,
        "start": 15168
      }
    ],
    "17432": [
      {
        "length": 32,
        "start": 10213
      }
    ]
  },
  "source": "// SPDX-License-Identifier: GPL-2.0-or-later\npragma solidity >=0.7.6;\npragma abicoder v2;\n\nimport \"../interfaces/IUniswapV3Pool.sol\";\nimport \"../libraries/FixedPoint128.sol\";\nimport \"../libraries/FullMath.sol\";\n\nimport \"../libraries/PositionKey.sol\";\nimport \"../libraries/PoolAddress.sol\";\nimport \"../base/Multicall.sol\";\nimport \"../base/ERC721Permit.sol\";\nimport \"../base/PeripheryValidation.sol\";\nimport \"../base/SelfPermit.sol\";\nimport \"../base/PeripheryImmutableState.sol\";\nimport \"../base/PoolInitializer.sol\";\nimport \"../base/LiquidityManagement.sol\";\nimport \"../interfaces/nonfungiable/INonfungibleTokenPositionDescriptor.sol\";\n\n/// @title NFT positions\n/// @notice Wraps Uniswap V3 positions in the ERC721 non-fungible token interface\ncontract NonfungiblePositionManager is\n    INonfungiblePositionManager,\n    Multicall,\n    ERC721Permit,\n    PeripheryImmutableState,\n    PoolInitializer,\n    LiquidityManagement,\n    PeripheryValidation,\n    SelfPermit\n{\n    // details about the uniswap position nft\n    struct Position {\n        // the nonce for permits\n        uint96 nonce;\n        // the address that is approved for spending this token\n        address operator;\n        // the ID of the pool with which this token is connected\n        uint80 poolId;\n        // the tick range of the position\n        int24 tickLower;\n        int24 tickUpper;\n        // the liquidity of the position\n        uint128 liquidity;\n        // the fee growth of the aggregate position as of the last action on the individual position\n        uint256 feeGrowthInside0LastX128;\n        uint256 feeGrowthInside1LastX128;\n        // how many uncollected tokens are owed to the position, as of the last computation\n        uint128 tokensOwed0;\n        uint128 tokensOwed1;\n    }\n\n    /// @dev IDs of pools assigned by this contract\n    //  pool  id\n    mapping(address => uint80) private _poolIds;\n\n    /// @dev Pool keys by pool ID, to save on SSTOREs for position data\n    // pool address  key [token1,token2,fee]\n    mapping(uint80 => PoolAddress.PoolKey) private _poolIdToPoolKey;\n\n    /// @dev The token ID position data\n    //  token id  position \n    mapping(uint256 => Position) private _positions;\n\n    /// @dev The ID of the next token that will be minted. Skips 0\n    //  token position id\n    uint176 private _nextId = 1;\n    /// @dev The ID of the next pool that is used for the first time. Skips 0\n    //  pool id\n    uint80 private _nextPoolId = 1;\n\n    /// @dev The address of the token descriptor contract, which handles generating token URIs for position tokens\n    // NFT \n    address private immutable _tokenDescriptor;\n\n    //\"Uniswap V3 Positions NFT-V1\", \"UNI-V3-POS\", \"1\"\n    constructor(\n        address _factory,\n        address _WETH9,\n        address _tokenDescriptor_,\n        string memory _nftName,\n        string memory _nftDescriptor,\n        string memory _nftVersion\n    )\n        ERC721Permit(_nftDescriptor, _nftName, _nftVersion)\n        PeripheryImmutableState(_factory, _WETH9)\n    {\n        _tokenDescriptor = _tokenDescriptor_;\n    }\n\n    /// @inheritdoc INonfungiblePositionManager\n    function positions(uint256 tokenId)\n        external\n        view\n        override\n        returns (\n            uint96 nonce,\n            address operator,\n            address token0,\n            address token1,\n            uint24 fee,\n            int24 tickLower,\n            int24 tickUpper,\n            uint128 liquidity,\n            uint256 feeGrowthInside0LastX128,\n            uint256 feeGrowthInside1LastX128,\n            uint128 tokensOwed0,\n            uint128 tokensOwed1\n        )\n    {\n        Position memory position = _positions[tokenId];\n        require(position.poolId != 0, \"Invalid token ID\");\n        PoolAddress.PoolKey memory poolKey = _poolIdToPoolKey[position.poolId];\n        return (\n            position.nonce,\n            position.operator,\n            poolKey.token0,\n            poolKey.token1,\n            poolKey.fee,\n            position.tickLower,\n            position.tickUpper,\n            position.liquidity,\n            position.feeGrowthInside0LastX128,\n            position.feeGrowthInside1LastX128,\n            position.tokensOwed0,\n            position.tokensOwed1\n        );\n    }\n\n    /// @dev Caches a pool key\n    function cachePoolKey(address pool, PoolAddress.PoolKey memory poolKey)\n        private\n        returns (uint80 poolId)\n    {\n        poolId = _poolIds[pool];\n        if (poolId == 0) {\n            _poolIds[pool] = (poolId = _nextPoolId++);\n            _poolIdToPoolKey[poolId] = poolKey;\n        }\n    }\n\n    /// @inheritdoc INonfungiblePositionManager\n    function mint(MintParams calldata params)\n        external\n        payable\n        override\n        checkDeadline(params.deadline)\n        returns (\n            uint256 tokenId,\n            uint128 liquidity,\n            uint256 amount0,\n            uint256 amount1\n        )\n    {\n        IUniswapV3Pool pool;\n        (liquidity, amount0, amount1, pool) = addLiquidity(\n            AddLiquidityParams({\n                token0: params.token0,\n                token1: params.token1,\n                fee: params.fee,\n                recipient: address(this),\n                tickLower: params.tickLower,\n                tickUpper: params.tickUpper,\n                amount0Desired: params.amount0Desired,\n                amount1Desired: params.amount1Desired,\n                amount0Min: params.amount0Min,\n                amount1Min: params.amount1Min\n            })\n        );\n\n        _mint(params.recipient, (tokenId = _nextId++));\n\n        bytes32 positionKey = PositionKey.compute(\n            address(this),\n            params.tickLower,\n            params.tickUpper\n        );\n        (\n            ,\n            uint256 feeGrowthInside0LastX128,\n            uint256 feeGrowthInside1LastX128,\n            ,\n\n        ) = pool.positions(positionKey);\n\n        // idempotent set\n        uint80 poolId = cachePoolKey(\n            address(pool),\n            PoolAddress.PoolKey({\n                token0: params.token0,\n                token1: params.token1,\n                fee: params.fee\n            })\n        );\n\n        _positions[tokenId] = Position({\n            nonce: 0,\n            operator: address(0),\n            poolId: poolId,\n            tickLower: params.tickLower,\n            tickUpper: params.tickUpper,\n            liquidity: liquidity,\n            feeGrowthInside0LastX128: feeGrowthInside0LastX128,\n            feeGrowthInside1LastX128: feeGrowthInside1LastX128,\n            tokensOwed0: 0,\n            tokensOwed1: 0\n        });\n\n        emit IncreaseLiquidity(tokenId, liquidity, amount0, amount1);\n    }\n\n    modifier isAuthorizedForToken(uint256 tokenId) {\n        require(_isApprovedOrOwner(msg.sender, tokenId), \"Not approved\");\n        _;\n    }\n\n    function tokenURI(uint256 tokenId)\n        public\n        view\n        override(ERC721, IERC721Metadata)\n        returns (string memory)\n    {\n        require(_exists(tokenId));\n        return\n            INonfungibleTokenPositionDescriptor(_tokenDescriptor).tokenURI(\n                this,\n                tokenId\n            );\n    }\n\n    // save bytecode by removing implementation of unused method\n    function baseURI() public pure override returns (string memory) {}\n\n    /// @inheritdoc INonfungiblePositionManager\n    function increaseLiquidity(IncreaseLiquidityParams calldata params)\n        external\n        payable\n        override\n        checkDeadline(params.deadline)\n        returns (\n            uint128 liquidity,\n            uint256 amount0,\n            uint256 amount1\n        )\n    {\n        Position storage position = _positions[params.tokenId];\n\n        PoolAddress.PoolKey memory poolKey = _poolIdToPoolKey[position.poolId];\n\n        IUniswapV3Pool pool;\n        (liquidity, amount0, amount1, pool) = addLiquidity(\n            AddLiquidityParams({\n                token0: poolKey.token0,\n                token1: poolKey.token1,\n                fee: poolKey.fee,\n                tickLower: position.tickLower,\n                tickUpper: position.tickUpper,\n                amount0Desired: params.amount0Desired,\n                amount1Desired: params.amount1Desired,\n                amount0Min: params.amount0Min,\n                amount1Min: params.amount1Min,\n                recipient: address(this)\n            })\n        );\n\n        bytes32 positionKey = PositionKey.compute(\n            address(this),\n            position.tickLower,\n            position.tickUpper\n        );\n\n        // this is now updated to the current transaction\n        (\n            ,\n            uint256 feeGrowthInside0LastX128,\n            uint256 feeGrowthInside1LastX128,\n            ,\n\n        ) = pool.positions(positionKey);\n\n        position.tokensOwed0 += uint128(\n            FullMath.mulDiv(\n                feeGrowthInside0LastX128 - position.feeGrowthInside0LastX128,\n                position.liquidity,\n                FixedPoint128.Q128\n            )\n        );\n        position.tokensOwed1 += uint128(\n            FullMath.mulDiv(\n                feeGrowthInside1LastX128 - position.feeGrowthInside1LastX128,\n                position.liquidity,\n                FixedPoint128.Q128\n            )\n        );\n\n        position.feeGrowthInside0LastX128 = feeGrowthInside0LastX128;\n        position.feeGrowthInside1LastX128 = feeGrowthInside1LastX128;\n        position.liquidity += liquidity;\n\n        emit IncreaseLiquidity(params.tokenId, liquidity, amount0, amount1);\n    }\n\n    /// @inheritdoc INonfungiblePositionManager\n    function decreaseLiquidity(DecreaseLiquidityParams calldata params)\n        external\n        payable\n        override\n        isAuthorizedForToken(params.tokenId)\n        checkDeadline(params.deadline)\n        returns (uint256 amount0, uint256 amount1)\n    {\n        require(params.liquidity > 0);\n        Position storage position = _positions[params.tokenId];\n\n        uint128 positionLiquidity = position.liquidity;\n        require(positionLiquidity >= params.liquidity);\n\n        PoolAddress.PoolKey memory poolKey = _poolIdToPoolKey[position.poolId];\n        IUniswapV3Pool pool = IUniswapV3Pool(\n            PoolAddress.computeAddress(factory, poolKey)\n        );\n        (amount0, amount1) = pool.burn(\n            position.tickLower,\n            position.tickUpper,\n            params.liquidity\n        );\n\n        require(\n            amount0 >= params.amount0Min && amount1 >= params.amount1Min,\n            \"Price slippage check\"\n        );\n\n        bytes32 positionKey = PositionKey.compute(\n            address(this),\n            position.tickLower,\n            position.tickUpper\n        );\n        // this is now updated to the current transaction\n        (\n            ,\n            uint256 feeGrowthInside0LastX128,\n            uint256 feeGrowthInside1LastX128,\n            ,\n\n        ) = pool.positions(positionKey);\n\n        position.tokensOwed0 +=\n            uint128(amount0) +\n            uint128(\n                FullMath.mulDiv(\n                    feeGrowthInside0LastX128 -\n                        position.feeGrowthInside0LastX128,\n                    positionLiquidity,\n                    FixedPoint128.Q128\n                )\n            );\n        position.tokensOwed1 +=\n            uint128(amount1) +\n            uint128(\n                FullMath.mulDiv(\n                    feeGrowthInside1LastX128 -\n                        position.feeGrowthInside1LastX128,\n                    positionLiquidity,\n                    FixedPoint128.Q128\n                )\n            );\n\n        position.feeGrowthInside0LastX128 = feeGrowthInside0LastX128;\n        position.feeGrowthInside1LastX128 = feeGrowthInside1LastX128;\n        // subtraction is safe because we checked positionLiquidity is gte params.liquidity\n        position.liquidity = positionLiquidity - params.liquidity;\n\n        emit DecreaseLiquidity(\n            params.tokenId,\n            params.liquidity,\n            amount0,\n            amount1\n        );\n    }\n\n    /// @inheritdoc INonfungiblePositionManager\n    function collect(CollectParams calldata params)\n        external\n        payable\n        override\n        isAuthorizedForToken(params.tokenId)\n        returns (uint256 amount0, uint256 amount1)\n    {\n        require(params.amount0Max > 0 || params.amount1Max > 0);\n        // allow collecting to the nft position manager address with address 0\n        address recipient = params.recipient == address(0)\n            ? address(this)\n            : params.recipient;\n\n        Position storage position = _positions[params.tokenId];\n\n        PoolAddress.PoolKey memory poolKey = _poolIdToPoolKey[position.poolId];\n\n        IUniswapV3Pool pool = IUniswapV3Pool(\n            PoolAddress.computeAddress(factory, poolKey)\n        );\n\n        (uint128 tokensOwed0, uint128 tokensOwed1) = (\n            position.tokensOwed0,\n            position.tokensOwed1\n        );\n\n        // trigger an update of the position fees owed and fee growth snapshots if it has any liquidity\n        if (position.liquidity > 0) {\n            pool.burn(position.tickLower, position.tickUpper, 0);\n            (\n                ,\n                uint256 feeGrowthInside0LastX128,\n                uint256 feeGrowthInside1LastX128,\n                ,\n\n            ) = pool.positions(\n                PositionKey.compute(\n                    address(this),\n                    position.tickLower,\n                    position.tickUpper\n                )\n            );\n\n            tokensOwed0 += uint128(\n                FullMath.mulDiv(\n                    feeGrowthInside0LastX128 -\n                        position.feeGrowthInside0LastX128,\n                    position.liquidity,\n                    FixedPoint128.Q128\n                )\n            );\n            tokensOwed1 += uint128(\n                FullMath.mulDiv(\n                    feeGrowthInside1LastX128 -\n                        position.feeGrowthInside1LastX128,\n                    position.liquidity,\n                    FixedPoint128.Q128\n                )\n            );\n\n            position.feeGrowthInside0LastX128 = feeGrowthInside0LastX128;\n            position.feeGrowthInside1LastX128 = feeGrowthInside1LastX128;\n        }\n\n        // compute the arguments to give to the pool#collect method\n        (uint128 amount0Collect, uint128 amount1Collect) = (\n            params.amount0Max > tokensOwed0 ? tokensOwed0 : params.amount0Max,\n            params.amount1Max > tokensOwed1 ? tokensOwed1 : params.amount1Max\n        );\n\n        // the actual amounts collected are returned\n        (amount0, amount1) = pool.collect(\n            recipient,\n            position.tickLower,\n            position.tickUpper,\n            amount0Collect,\n            amount1Collect\n        );\n\n        // sometimes there will be a few less wei than expected due to rounding down in core, but we just subtract the full amount expected\n        // instead of the actual amount so we can burn the token\n        (position.tokensOwed0, position.tokensOwed1) = (\n            tokensOwed0 - amount0Collect,\n            tokensOwed1 - amount1Collect\n        );\n\n        emit Collect(params.tokenId, recipient, amount0Collect, amount1Collect);\n    }\n\n    /// @inheritdoc INonfungiblePositionManager\n    function burn(uint256 tokenId)\n        external\n        payable\n        override\n        isAuthorizedForToken(tokenId)\n    {\n        Position storage position = _positions[tokenId];\n        require(\n            position.liquidity == 0 &&\n                position.tokensOwed0 == 0 &&\n                position.tokensOwed1 == 0,\n            \"Not cleared\"\n        );\n        delete _positions[tokenId];\n        _burn(tokenId);\n    }\n\n    function _getAndIncrementNonce(uint256 tokenId)\n        internal\n        override\n        returns (uint256)\n    {\n        return uint256(_positions[tokenId].nonce++);\n    }\n\n    /// @inheritdoc IERC721\n    function getApproved(uint256 tokenId)\n        public\n        view\n        override(ERC721, IERC721)\n        returns (address)\n    {\n        require(\n            _exists(tokenId),\n            \"ERC721: approved query for nonexistent token\"\n        );\n\n        return _positions[tokenId].operator;\n    }\n\n    /// @dev Overrides _approve to use the operator in the position, which is packed with the position permit nonce\n    function _approve(address to, uint256 tokenId) internal override(ERC721) {\n        _positions[tokenId].operator = to;\n        emit Approval(ownerOf(tokenId), to, tokenId);\n    }\n}\n",
  "sourcePath": "/Users/shifenghu/Documents/work/study/blockchain/uniswap/v3-ui/uniswap-v3/contracts/nonfungible/NonfungiblePositionManager.sol",
  "compiler": {
    "name": "solc",
    "version": "0.7.6+commit.7338295f.Emscripten.clang"
  },
  "schemaVersion": "3.4.1",
  "updatedAt": "2021-07-27T03:55:39.860Z",
  "networkType": "ethereum",
  "devdoc": {
    "kind": "dev",
    "methods": {
      "DOMAIN_SEPARATOR()": {
        "returns": {
          "_0": "The domain seperator used in encoding of permit signature"
        }
      },
      "approve(address,uint256)": {
        "details": "See {IERC721-approve}."
      },
      "balanceOf(address)": {
        "details": "See {IERC721-balanceOf}."
      },
      "baseURI()": {
        "details": "Returns the base URI set via {_setBaseURI}. This will be automatically added as a prefix in {tokenURI} to each token's URI, or to the token ID if no specific URI is set for that token ID."
      },
      "burn(uint256)": {
        "params": {
          "tokenId": "The ID of the token that is being burned"
        }
      },
      "collect((uint256,address,uint128,uint128))": {
        "params": {
          "params": "tokenId The ID of the NFT for which tokens are being collected, recipient The account that should receive the tokens, amount0Max The maximum amount of token0 to collect, amount1Max The maximum amount of token1 to collect"
        },
        "returns": {
          "amount0": "The amount of fees collected in token0",
          "amount1": "The amount of fees collected in token1"
        }
      },
      "createAndInitializePoolIfNecessary(address,address,uint24,uint160)": {
        "details": "This method can be bundled with others via IMulticall for the first action (e.g. mint) performed against a pool",
        "params": {
          "fee": "The fee amount of the v3 pool for the specified token pair",
          "sqrtPriceX96": "The initial square root price of the pool as a Q64.96 value",
          "token0": "The contract address of token0 of the pool",
          "token1": "The contract address of token1 of the pool"
        },
        "returns": {
          "poolAddress": "Returns the pool address based on the pair of tokens and fee, will return the newly created pool address if necessary"
        }
      },
      "decreaseLiquidity((uint256,uint128,uint256,uint256,uint256))": {
        "params": {
          "params": "tokenId The ID of the token for which liquidity is being decreased, amount The amount by which liquidity will be decreased, amount0Min The minimum amount of token0 that should be accounted for the burned liquidity, amount1Min The minimum amount of token1 that should be accounted for the burned liquidity, deadline The time by which the transaction must be included to effect the change"
        },
        "returns": {
          "amount0": "The amount of token0 accounted to the position's tokens owed",
          "amount1": "The amount of token1 accounted to the position's tokens owed"
        }
      },
      "getApproved(uint256)": {
        "details": "Returns the account approved for `tokenId` token. Requirements: - `tokenId` must exist."
      },
      "increaseLiquidity((uint256,uint256,uint256,uint256,uint256,uint256))": {
        "params": {
          "params": "tokenId The ID of the token for which liquidity is being increased, amount0Desired The desired amount of token0 to be spent, amount1Desired The desired amount of token1 to be spent, amount0Min The minimum amount of token0 to spend, which serves as a slippage check, amount1Min The minimum amount of token1 to spend, which serves as a slippage check, deadline The time by which the transaction must be included to effect the change"
        },
        "returns": {
          "amount0": "The amount of token0 to acheive resulting liquidity",
          "amount1": "The amount of token1 to acheive resulting liquidity",
          "liquidity": "The new liquidity amount as a result of the increase"
        }
      },
      "isApprovedForAll(address,address)": {
        "details": "See {IERC721-isApprovedForAll}."
      },
      "mint((address,address,uint24,int24,int24,uint256,uint256,uint256,uint256,address,uint256))": {
        "details": "Call this when the pool does exist and is initialized. Note that if the pool is created but not initialized a method does not exist, i.e. the pool is assumed to be initialized.",
        "params": {
          "params": "The params necessary to mint a position, encoded as `MintParams` in calldata"
        },
        "returns": {
          "amount0": "The amount of token0",
          "amount1": "The amount of token1",
          "liquidity": "The amount of liquidity for this position",
          "tokenId": "The ID of the token that represents the minted position"
        }
      },
      "multicall(bytes[])": {
        "details": "The `msg.value` should not be trusted for any method callable from multicall.",
        "params": {
          "data": "The encoded function data for each of the calls to make to this contract"
        },
        "returns": {
          "results": "The results from each of the calls passed in via data"
        }
      },
      "name()": {
        "details": "See {IERC721Metadata-name}."
      },
      "ownerOf(uint256)": {
        "details": "See {IERC721-ownerOf}."
      },
      "permit(address,uint256,uint256,uint8,bytes32,bytes32)": {
        "params": {
          "deadline": "The deadline timestamp by which the call must be mined for the approve to work",
          "r": "Must produce valid secp256k1 signature from the holder along with `v` and `s`",
          "s": "Must produce valid secp256k1 signature from the holder along with `r` and `v`",
          "spender": "The account that is being approved",
          "tokenId": "The ID of the token that is being approved for spending",
          "v": "Must produce valid secp256k1 signature from the holder along with `r` and `s`"
        }
      },
      "positions(uint256)": {
        "details": "Throws if the token ID is not valid.",
        "params": {
          "tokenId": "The ID of the token that represents the position"
        },
        "returns": {
          "fee": "The fee associated with the pool",
          "feeGrowthInside0LastX128": "The fee growth of token0 as of the last action on the individual position",
          "feeGrowthInside1LastX128": "The fee growth of token1 as of the last action on the individual position",
          "liquidity": "The liquidity of the position",
          "nonce": "The nonce for permits",
          "operator": "The address that is approved for spending",
          "tickLower": "The lower end of the tick range for the position",
          "tickUpper": "The higher end of the tick range for the position",
          "token0": "The address of the token0 for a specific pool",
          "token1": "The address of the token1 for a specific pool",
          "tokensOwed0": "The uncollected amount of token0 owed to the position as of the last computation",
          "tokensOwed1": "The uncollected amount of token1 owed to the position as of the last computation"
        }
      },
      "refundETH()": {
        "details": "Useful for bundling with mint or increase liquidity that uses ether, or exact output swaps that use ether for the input amount"
      },
      "safeTransferFrom(address,address,uint256)": {
        "details": "See {IERC721-safeTransferFrom}."
      },
      "safeTransferFrom(address,address,uint256,bytes)": {
        "details": "See {IERC721-safeTransferFrom}."
      },
      "selfPermit(address,uint256,uint256,uint8,bytes32,bytes32)": {
        "details": "The `owner` is always msg.sender and the `spender` is always address(this).",
        "params": {
          "deadline": "A timestamp, the current blocktime must be less than or equal to this timestamp",
          "r": "Must produce valid secp256k1 signature from the holder along with `v` and `s`",
          "s": "Must produce valid secp256k1 signature from the holder along with `r` and `v`",
          "token": "The address of the token spent",
          "v": "Must produce valid secp256k1 signature from the holder along with `r` and `s`",
          "value": "The amount that can be spent of token"
        }
      },
      "selfPermitAllowed(address,uint256,uint256,uint8,bytes32,bytes32)": {
        "details": "The `owner` is always msg.sender and the `spender` is always address(this)",
        "params": {
          "expiry": "The timestamp at which the permit is no longer valid",
          "nonce": "The current nonce of the owner",
          "r": "Must produce valid secp256k1 signature from the holder along with `v` and `s`",
          "s": "Must produce valid secp256k1 signature from the holder along with `r` and `v`",
          "token": "The address of the token spent",
          "v": "Must produce valid secp256k1 signature from the holder along with `r` and `s`"
        }
      },
      "selfPermitAllowedIfNecessary(address,uint256,uint256,uint8,bytes32,bytes32)": {
        "details": "The `owner` is always msg.sender and the `spender` is always address(this) Can be used instead of #selfPermitAllowed to prevent calls from failing due to a frontrun of a call to #selfPermitAllowed.",
        "params": {
          "expiry": "The timestamp at which the permit is no longer valid",
          "nonce": "The current nonce of the owner",
          "r": "Must produce valid secp256k1 signature from the holder along with `v` and `s`",
          "s": "Must produce valid secp256k1 signature from the holder along with `r` and `v`",
          "token": "The address of the token spent",
          "v": "Must produce valid secp256k1 signature from the holder along with `r` and `s`"
        }
      },
      "selfPermitIfNecessary(address,uint256,uint256,uint8,bytes32,bytes32)": {
        "details": "The `owner` is always msg.sender and the `spender` is always address(this). Can be used instead of #selfPermit to prevent calls from failing due to a frontrun of a call to #selfPermit",
        "params": {
          "deadline": "A timestamp, the current blocktime must be less than or equal to this timestamp",
          "r": "Must produce valid secp256k1 signature from the holder along with `v` and `s`",
          "s": "Must produce valid secp256k1 signature from the holder along with `r` and `v`",
          "token": "The address of the token spent",
          "v": "Must produce valid secp256k1 signature from the holder along with `r` and `s`",
          "value": "The amount that can be spent of token"
        }
      },
      "setApprovalForAll(address,bool)": {
        "details": "See {IERC721-setApprovalForAll}."
      },
      "supportsInterface(bytes4)": {
        "details": "See {IERC165-supportsInterface}. Time complexity O(1), guaranteed to always use less than 30 000 gas."
      },
      "sweepToken(address,uint256,address)": {
        "details": "The amountMinimum parameter prevents malicious contracts from stealing the token from users",
        "params": {
          "amountMinimum": "The minimum amount of token required for a transfer",
          "recipient": "The destination address of the token",
          "token": "The contract address of the token which will be transferred to `recipient`"
        }
      },
      "symbol()": {
        "details": "See {IERC721Metadata-symbol}."
      },
      "tokenByIndex(uint256)": {
        "details": "See {IERC721Enumerable-tokenByIndex}."
      },
      "tokenOfOwnerByIndex(address,uint256)": {
        "details": "See {IERC721Enumerable-tokenOfOwnerByIndex}."
      },
      "totalSupply()": {
        "details": "See {IERC721Enumerable-totalSupply}."
      },
      "transferFrom(address,address,uint256)": {
        "details": "See {IERC721-transferFrom}."
      },
      "uniswapV3MintCallback(uint256,uint256,bytes)": {
        "details": "In the implementation you must pay the pool tokens owed for the minted liquidity. The caller of this method must be checked to be a UniswapV3Pool deployed by the canonical UniswapV3Factory.",
        "params": {
          "amount0Owed": "The amount of token0 due to the pool for the minted liquidity",
          "amount1Owed": "The amount of token1 due to the pool for the minted liquidity",
          "data": "Any data passed through by the caller via the IUniswapV3PoolActions#mint call"
        }
      },
      "unwrapWETH9(uint256,address)": {
        "details": "The amountMinimum parameter prevents malicious contracts from stealing WETH9 from users.",
        "params": {
          "amountMinimum": "The minimum amount of WETH9 to unwrap",
          "recipient": "The address receiving ETH"
        }
      }
    },
    "stateVariables": {
      "_nextId": {
        "details": "The ID of the next token that will be minted. Skips 0"
      },
      "_nextPoolId": {
        "details": "The ID of the next pool that is used for the first time. Skips 0"
      },
      "_poolIdToPoolKey": {
        "details": "Pool keys by pool ID, to save on SSTOREs for position data"
      },
      "_poolIds": {
        "details": "IDs of pools assigned by this contract"
      },
      "_positions": {
        "details": "The token ID position data"
      },
      "_tokenDescriptor": {
        "details": "The address of the token descriptor contract, which handles generating token URIs for position tokens"
      }
    },
    "title": "NFT positions",
    "version": 1
  },
  "userdoc": {
    "events": {
      "Collect(uint256,address,uint256,uint256)": {
        "notice": "Emitted when tokens are collected for a position NFT"
      },
      "DecreaseLiquidity(uint256,uint128,uint256,uint256)": {
        "notice": "Emitted when liquidity is decreased for a position NFT"
      },
      "IncreaseLiquidity(uint256,uint128,uint256,uint256)": {
        "notice": "Emitted when liquidity is increased for a position NFT"
      }
    },
    "kind": "user",
    "methods": {
      "DOMAIN_SEPARATOR()": {
        "notice": "The domain separator used in the permit signature"
      },
      "PERMIT_TYPEHASH()": {
        "notice": "The permit typehash used in the permit signature"
      },
      "burn(uint256)": {
        "notice": "Burns a token ID, which deletes it from the NFT contract. The token must have 0 liquidity and all tokens must be collected first."
      },
      "collect((uint256,address,uint128,uint128))": {
        "notice": "Collects up to a maximum amount of fees owed to a specific position to the recipient"
      },
      "createAndInitializePoolIfNecessary(address,address,uint24,uint160)": {
        "notice": "Creates a new pool if it does not exist, then initializes if not initialized"
      },
      "decreaseLiquidity((uint256,uint128,uint256,uint256,uint256))": {
        "notice": "Decreases the amount of liquidity in a position and accounts it to the position"
      },
      "increaseLiquidity((uint256,uint256,uint256,uint256,uint256,uint256))": {
        "notice": "Increases the amount of liquidity in a position, with tokens paid by the `msg.sender`"
      },
      "mint((address,address,uint24,int24,int24,uint256,uint256,uint256,uint256,address,uint256))": {
        "notice": "Creates a new position wrapped in a NFT"
      },
      "multicall(bytes[])": {
        "notice": "Call multiple functions in the current contract and return the data from all of them if they all succeed"
      },
      "permit(address,uint256,uint256,uint8,bytes32,bytes32)": {
        "notice": "Approve of a specific token ID for spending by spender via signature"
      },
      "positions(uint256)": {
        "notice": "Returns the position information associated with a given token ID."
      },
      "refundETH()": {
        "notice": "Refunds any ETH balance held by this contract to the `msg.sender`"
      },
      "selfPermit(address,uint256,uint256,uint8,bytes32,bytes32)": {
        "notice": "Permits this contract to spend a given token from `msg.sender`"
      },
      "selfPermitAllowed(address,uint256,uint256,uint8,bytes32,bytes32)": {
        "notice": "Permits this contract to spend the sender's tokens for permit signatures that have the `allowed` parameter"
      },
      "selfPermitAllowedIfNecessary(address,uint256,uint256,uint8,bytes32,bytes32)": {
        "notice": "Permits this contract to spend the sender's tokens for permit signatures that have the `allowed` parameter"
      },
      "selfPermitIfNecessary(address,uint256,uint256,uint8,bytes32,bytes32)": {
        "notice": "Permits this contract to spend a given token from `msg.sender`"
      },
      "sweepToken(address,uint256,address)": {
        "notice": "Transfers the full amount of a token held by this contract to recipient"
      },
      "uniswapV3MintCallback(uint256,uint256,bytes)": {
        "notice": "Called to `msg.sender` after minting liquidity to a position from IUniswapV3Pool#mint."
      },
      "unwrapWETH9(uint256,address)": {
        "notice": "Unwraps the contract's WETH9 balance and sends it to recipient as ETH."
      }
    },
    "notice": "Wraps Uniswap V3 positions in the ERC721 non-fungible token interface",
    "version": 1
  }
}