{
  "contractName": "TickMathTest",
  "abi": [
    {
      "inputs": [
        {
          "internalType": "int24",
          "name": "tick",
          "type": "int24"
        }
      ],
      "name": "getSqrtRatioAtTick",
      "outputs": [
        {
          "internalType": "uint160",
          "name": "",
          "type": "uint160"
        }
      ],
      "stateMutability": "pure",
      "type": "function"
    },
    {
      "inputs": [
        {
          "internalType": "int24",
          "name": "tick",
          "type": "int24"
        }
      ],
      "name": "getGasCostOfGetSqrtRatioAtTick",
      "outputs": [
        {
          "internalType": "uint256",
          "name": "",
          "type": "uint256"
        }
      ],
      "stateMutability": "view",
      "type": "function"
    },
    {
      "inputs": [
        {
          "internalType": "uint160",
          "name": "sqrtPriceX96",
          "type": "uint160"
        }
      ],
      "name": "getTickAtSqrtRatio",
      "outputs": [
        {
          "internalType": "int24",
          "name": "",
          "type": "int24"
        }
      ],
      "stateMutability": "pure",
      "type": "function"
    },
    {
      "inputs": [
        {
          "internalType": "uint160",
          "name": "sqrtPriceX96",
          "type": "uint160"
        }
      ],
      "name": "getGasCostOfGetTickAtSqrtRatio",
      "outputs": [
        {
          "internalType": "uint256",
          "name": "",
          "type": "uint256"
        }
      ],
      "stateMutability": "view",
      "type": "function"
    },
    {
      "inputs": [],
      "name": "MIN_SQRT_RATIO",
      "outputs": [
        {
          "internalType": "uint160",
          "name": "",
          "type": "uint160"
        }
      ],
      "stateMutability": "pure",
      "type": "function"
    },
    {
      "inputs": [],
      "name": "MAX_SQRT_RATIO",
      "outputs": [
        {
          "internalType": "uint160",
          "name": "",
          "type": "uint160"
        }
      ],
      "stateMutability": "pure",
      "type": "function"
    }
  ],
  "bytecode": "0x608060405234801561001057600080fd5b5061083d806100206000396000f3fe608060405234801561001057600080fd5b50600436106100625760003560e01c80634f76c058146100675780636d2cc304146100a4578063986cfba3146100c8578063a7398eb4146100e8578063b0622f671461011a578063ee8847ff14610140575b600080fd5b61008d6004803603602081101561007d57600080fd5b50356001600160a01b0316610148565b6040805160029290920b8252519081900360200190f35b6100ac610159565b604080516001600160a01b039092168252519081900360200190f35b6100ac600480360360208110156100de57600080fd5b503560020b610171565b610108600480360360208110156100fe57600080fd5b503560020b61017c565b60408051918252519081900360200190f35b6101086004803603602081101561013057600080fd5b50356001600160a01b0316610195565b6100ac6101a4565b6000610153826101ad565b92915050565b73fffd8963efd1fc6a506488495d951d5263988d2690565b6000610153826104d5565b6000805a905061018b836104d5565b505a900392915050565b6000805a905061018b836101ad565b6401000276a390565b60006401000276a36001600160a01b038316108015906101e9575073fffd8963efd1fc6a506488495d951d5263988d266001600160a01b038316105b61021e576040805162461bcd60e51b81526020600482015260016024820152602960f91b604482015290519081900360640190fd5b640100000000600160c01b03602083901b166fffffffffffffffffffffffffffffffff811160071b81811c67ffffffffffffffff811160061b90811c63ffffffff811160051b90811c61ffff811160041b90811c60ff8111600390811b91821c600f811160021b90811c918211600190811b92831c979088119617909417909217179091171717608081106102bb57607f810383901c91506102c5565b80607f0383901b91505b908002607f81811c60ff83811c9190911c800280831c81831c1c800280841c81841c1c800280851c81851c1c800280861c81861c1c800280871c81871c1c800280881c81881c1c800280891c81891c1c8002808a1c818a1c1c8002808b1c818b1c1c8002808c1c818c1c1c8002808d1c818d1c1c8002808e1c9c81901c9c909c1c80029c8d901c9e9d607f198f0160401b60c09190911c678000000000000000161760c19b909b1c674000000000000000169a909a1760c29990991c672000000000000000169890981760c39790971c671000000000000000169690961760c49590951c670800000000000000169490941760c59390931c670400000000000000169290921760c69190911c670200000000000000161760c79190911c670100000000000000161760c89190911c6680000000000000161760c99190911c6640000000000000161760ca9190911c6620000000000000161760cb9190911c6610000000000000161760cc9190911c6608000000000000161760cd9190911c66040000000000001617693627a301d71055774c8581026f028f6481ab7f045a5af012a19d003aa9198101608090811d906fdb2df09e81959a81455e260799a0632f8301901d600281810b9083900b146104c657886001600160a01b03166104aa826104d5565b6001600160a01b031611156104bf57816104c1565b805b6104c8565b815b9998505050505050505050565b60008060008360020b126104ec578260020b6104f4565b8260020b6000035b9050620d89e8811115610532576040805162461bcd60e51b81526020600482015260016024820152601560fa1b604482015290519081900360640190fd5b60006001821661054657600160801b610558565b6ffffcb933bd6fad37aa2d162d1a5940015b70ffffffffffffffffffffffffffffffffff169050600282161561058c576ffff97272373d413259a46990580e213a0260801c5b60048216156105ab576ffff2e50f5f656932ef12357cf3c7fdcc0260801c5b60088216156105ca576fffe5caca7e10e4e61c3624eaa0941cd00260801c5b60108216156105e9576fffcb9843d60f6159c9db58835c9266440260801c5b6020821615610608576fff973b41fa98c081472e6896dfb254c00260801c5b6040821615610627576fff2ea16466c96a3843ec78b326b528610260801c5b6080821615610646576ffe5dee046a99a2a811c461f1969c30530260801c5b610100821615610666576ffcbe86c7900a88aedcffc83b479aa3a40260801c5b610200821615610686576ff987a7253ac413176f2b074cf7815e540260801c5b6104008216156106a6576ff3392b0822b70005940c7a398e4b70f30260801c5b6108008216156106c6576fe7159475a2c29b7443b29c7fa6e889d90260801c5b6110008216156106e6576fd097f3bdfd2022b8845ad8f792aa58250260801c5b612000821615610706576fa9f746462d870fdf8a65dc1f90e061e50260801c5b614000821615610726576f70d869a156d2a1b890bb3df62baf32f70260801c5b618000821615610746576f31be135f97d08fd981231505542fcfa60260801c5b62010000821615610767576f09aa508b5b7a84e1c677de54f3e99bc90260801c5b62020000821615610787576e5d6af8dedb81196699c329225ee6040260801c5b620400008216156107a6576d2216e584f5fa1ea926041bedfe980260801c5b620800008216156107c3576b048a170391f7dc42444e8fa20260801c5b60008460020b13156107de5780600019816107da57fe5b0490505b6401000000008106156107f25760016107f5565b60005b60ff16602082901c019250505091905056fea264697066735822122051f667c40600479c5d0531eb17b1d459418b62c0ccfc381e8523f080d1fede8a64736f6c63430007060033",
  "immutableReferences": {},
  "source": "// SPDX-License-Identifier: MIT\npragma solidity >=0.7.6;\n\nimport \"../libraries/TickMath.sol\";\n\ncontract TickMathTest {\n    function getSqrtRatioAtTick(int24 tick) external pure returns (uint160) {\n        return TickMath.getSqrtRatioAtTick(tick);\n    }\n\n    function getGasCostOfGetSqrtRatioAtTick(int24 tick)\n        external\n        view\n        returns (uint256)\n    {\n        uint256 gasBefore = gasleft();\n        TickMath.getSqrtRatioAtTick(tick);\n        return gasBefore - gasleft();\n    }\n\n    function getTickAtSqrtRatio(uint160 sqrtPriceX96)\n        external\n        pure\n        returns (int24)\n    {\n        return TickMath.getTickAtSqrtRatio(sqrtPriceX96);\n    }\n\n    function getGasCostOfGetTickAtSqrtRatio(uint160 sqrtPriceX96)\n        external\n        view\n        returns (uint256)\n    {\n        uint256 gasBefore = gasleft();\n        TickMath.getTickAtSqrtRatio(sqrtPriceX96);\n        return gasBefore - gasleft();\n    }\n\n    function MIN_SQRT_RATIO() external pure returns (uint160) {\n        return TickMath.MIN_SQRT_RATIO;\n    }\n\n    function MAX_SQRT_RATIO() external pure returns (uint160) {\n        return TickMath.MAX_SQRT_RATIO;\n    }\n}\n",
  "sourcePath": "/Users/shifenghu/Documents/work/study/blockchain/uniswap/v3-ui/uniswap-v3/contracts/test/TickMathTest.sol",
  "compiler": {
    "name": "solc",
    "version": "0.7.6+commit.7338295f.Emscripten.clang"
  },
  "schemaVersion": "3.4.1",
  "updatedAt": "2021-07-23T07:16:04.876Z",
  "devdoc": {
    "kind": "dev",
    "methods": {},
    "version": 1
  },
  "userdoc": {
    "kind": "user",
    "methods": {},
    "version": 1
  }
}