{
  "contractName": "TriangularArbitrageOnUniswapV3",
  "abi": [
    {
      "inputs": [
        {
          "internalType": "address",
          "name": "_v3FactoryAddress",
          "type": "address"
        }
      ],
      "stateMutability": "nonpayable",
      "type": "constructor"
    },
    {
      "anonymous": false,
      "inputs": [
        {
          "indexed": true,
          "internalType": "address",
          "name": "whiteAddress",
          "type": "address"
        }
      ],
      "name": "AddWhiteAddress",
      "type": "event"
    },
    {
      "anonymous": false,
      "inputs": [
        {
          "indexed": true,
          "internalType": "address",
          "name": "sender",
          "type": "address"
        },
        {
          "indexed": true,
          "internalType": "address",
          "name": "profitToken",
          "type": "address"
        },
        {
          "indexed": false,
          "internalType": "uint256",
          "name": "amount",
          "type": "uint256"
        },
        {
          "indexed": false,
          "internalType": "uint256",
          "name": "profitAmount",
          "type": "uint256"
        }
      ],
      "name": "Arbitrage",
      "type": "event"
    },
    {
      "anonymous": false,
      "inputs": [],
      "name": "ClearWhiteAddress",
      "type": "event"
    },
    {
      "anonymous": false,
      "inputs": [
        {
          "indexed": true,
          "internalType": "address",
          "name": "sender",
          "type": "address"
        },
        {
          "indexed": true,
          "internalType": "address",
          "name": "token",
          "type": "address"
        },
        {
          "indexed": false,
          "internalType": "uint256",
          "name": "amount",
          "type": "uint256"
        }
      ],
      "name": "Deposit",
      "type": "event"
    },
    {
      "anonymous": false,
      "inputs": [
        {
          "indexed": true,
          "internalType": "address",
          "name": "previousOwner",
          "type": "address"
        },
        {
          "indexed": true,
          "internalType": "address",
          "name": "newOwner",
          "type": "address"
        }
      ],
      "name": "OwnershipTransferred",
      "type": "event"
    },
    {
      "anonymous": false,
      "inputs": [
        {
          "indexed": false,
          "internalType": "address",
          "name": "fromAddress",
          "type": "address"
        },
        {
          "indexed": false,
          "internalType": "address",
          "name": "toAddress",
          "type": "address"
        },
        {
          "indexed": false,
          "internalType": "address",
          "name": "poolAddress",
          "type": "address"
        },
        {
          "indexed": false,
          "internalType": "uint256",
          "name": "amount",
          "type": "uint256"
        },
        {
          "indexed": false,
          "internalType": "uint160",
          "name": "sqrtPriceLimitX96",
          "type": "uint160"
        }
      ],
      "name": "PrintSwap",
      "type": "event"
    },
    {
      "anonymous": false,
      "inputs": [
        {
          "indexed": true,
          "internalType": "address",
          "name": "whiteAddress",
          "type": "address"
        }
      ],
      "name": "RemoveWhiteAddress",
      "type": "event"
    },
    {
      "inputs": [],
      "name": "owner",
      "outputs": [
        {
          "internalType": "address",
          "name": "",
          "type": "address"
        }
      ],
      "stateMutability": "view",
      "type": "function"
    },
    {
      "inputs": [],
      "name": "renounceOwnership",
      "outputs": [],
      "stateMutability": "nonpayable",
      "type": "function"
    },
    {
      "inputs": [
        {
          "internalType": "address",
          "name": "newOwner",
          "type": "address"
        }
      ],
      "name": "transferOwnership",
      "outputs": [],
      "stateMutability": "nonpayable",
      "type": "function"
    },
    {
      "inputs": [
        {
          "internalType": "address",
          "name": "whiteAddress",
          "type": "address"
        }
      ],
      "name": "addWhiteAddress",
      "outputs": [],
      "stateMutability": "nonpayable",
      "type": "function"
    },
    {
      "inputs": [
        {
          "internalType": "address[]",
          "name": "poolAddress",
          "type": "address[]"
        },
        {
          "internalType": "uint16",
          "name": "tickSapcingOffset",
          "type": "uint16"
        }
      ],
      "name": "getPairTicks",
      "outputs": [
        {
          "components": [
            {
              "internalType": "uint160",
              "name": "sqrtPriceX96",
              "type": "uint160"
            },
            {
              "internalType": "int24",
              "name": "tick",
              "type": "int24"
            },
            {
              "internalType": "int24",
              "name": "tickSpace",
              "type": "int24"
            },
            {
              "components": [
                {
                  "internalType": "int24",
                  "name": "tick",
                  "type": "int24"
                },
                {
                  "internalType": "int128",
                  "name": "liquidityNet",
                  "type": "int128"
                },
                {
                  "internalType": "uint128",
                  "name": "liquidityGross",
                  "type": "uint128"
                }
              ],
              "internalType": "struct ITriangularArbitrageOnUniswapV3.PopulatedTick[]",
              "name": "liquidties",
              "type": "tuple[]"
            }
          ],
          "internalType": "struct ITriangularArbitrageOnUniswapV3.PoolPairOuput[]",
          "name": "prices",
          "type": "tuple[]"
        }
      ],
      "stateMutability": "view",
      "type": "function"
    },
    {
      "inputs": [
        {
          "internalType": "int256",
          "name": "amount0Delta",
          "type": "int256"
        },
        {
          "internalType": "int256",
          "name": "amount1Delta",
          "type": "int256"
        },
        {
          "internalType": "bytes",
          "name": "data",
          "type": "bytes"
        }
      ],
      "name": "uniswapV3SwapCallback",
      "outputs": [],
      "stateMutability": "nonpayable",
      "type": "function"
    },
    {
      "inputs": [
        {
          "internalType": "address",
          "name": "whiteAddress",
          "type": "address"
        }
      ],
      "name": "removeWhiteAddress",
      "outputs": [],
      "stateMutability": "nonpayable",
      "type": "function"
    },
    {
      "inputs": [],
      "name": "clearWhiteAddress",
      "outputs": [],
      "stateMutability": "nonpayable",
      "type": "function"
    },
    {
      "inputs": [
        {
          "internalType": "address",
          "name": "token",
          "type": "address"
        },
        {
          "internalType": "uint160",
          "name": "amount",
          "type": "uint160"
        }
      ],
      "name": "deposit",
      "outputs": [],
      "stateMutability": "nonpayable",
      "type": "function"
    },
    {
      "inputs": [
        {
          "internalType": "address",
          "name": "token",
          "type": "address"
        },
        {
          "internalType": "address",
          "name": "to",
          "type": "address"
        },
        {
          "internalType": "uint160",
          "name": "amount",
          "type": "uint160"
        }
      ],
      "name": "withdraw",
      "outputs": [],
      "stateMutability": "nonpayable",
      "type": "function"
    },
    {
      "inputs": [
        {
          "internalType": "address",
          "name": "token",
          "type": "address"
        }
      ],
      "name": "getAccountBalance",
      "outputs": [
        {
          "internalType": "uint256",
          "name": "",
          "type": "uint256"
        }
      ],
      "stateMutability": "view",
      "type": "function"
    },
    {
      "inputs": [
        {
          "internalType": "address",
          "name": "token",
          "type": "address"
        }
      ],
      "name": "getAllBalance",
      "outputs": [
        {
          "internalType": "uint256",
          "name": "",
          "type": "uint256"
        }
      ],
      "stateMutability": "view",
      "type": "function"
    },
    {
      "inputs": [
        {
          "internalType": "address",
          "name": "token",
          "type": "address"
        }
      ],
      "name": "withdrawAll",
      "outputs": [
        {
          "internalType": "uint256",
          "name": "amount",
          "type": "uint256"
        }
      ],
      "stateMutability": "nonpayable",
      "type": "function"
    },
    {
      "inputs": [
        {
          "internalType": "address",
          "name": "checker",
          "type": "address"
        }
      ],
      "name": "isWhiteAddress",
      "outputs": [
        {
          "internalType": "bool",
          "name": "",
          "type": "bool"
        }
      ],
      "stateMutability": "view",
      "type": "function"
    },
    {
      "inputs": [
        {
          "internalType": "address",
          "name": "token",
          "type": "address"
        },
        {
          "internalType": "address[]",
          "name": "poolAddressList",
          "type": "address[]"
        },
        {
          "internalType": "uint160",
          "name": "amount",
          "type": "uint160"
        },
        {
          "internalType": "uint160",
          "name": "minProfit",
          "type": "uint160"
        }
      ],
      "name": "arbitrage",
      "outputs": [],
      "stateMutability": "nonpayable",
      "type": "function"
    }
  ],
  "bytecode": "0x60a06040526003805460ff191690553480156200001b57600080fd5b50604051620032d6380380620032d68339810160408190526200003e91620000e8565b60006200004a620000e4565b600080546001600160a01b0319166001600160a01b0383169081178255604051929350917f8be0079c531659141344cd1fd0a4f28419497f9722a3daafe3b4186f6b6457e0908290a3506001600160601b0319606082901b166080526001806000620000b5620000e4565b6001600160a01b031681526020810191909152604001600020805460ff19169115159190911790555062000118565b3390565b600060208284031215620000fa578081fd5b81516001600160a01b038116811462000111578182fd5b9392505050565b60805160601c6131a562000131600039506131a56000f3fe608060405234801561001057600080fd5b50600436106100f55760003560e01c80638da5cb5b11610097578063f2fde38b11610066578063f2fde38b146101e9578063f65ad55c146101fc578063fa09e6301461020f578063fa461e3314610222576100f5565b80638da5cb5b1461018157806393423e9c146101965780639347fb3d146101b6578063b5a8725f146101c9576100f5565b80632e135c54116100d35780632e135c5414610135578063333dc85614610148578063715018a6146101715780637240637714610179576100f5565b806303fde255146100fa5780631f4c39ff1461010f578063274766f014610122575b600080fd5b61010d6101083660046128e8565b610235565b005b61010d61011d36600461286d565b6104ea565b61010d610130366004612823565b610858565b61010d6101433660046127eb565b610ade565b61015b6101563660046127eb565b610c7a565b6040516101689190612d87565b60405180910390f35b61010d610d01565b61010d610dad565b610189610e44565b6040516101689190612be3565b6101a96101a43660046127eb565b610e53565b60405161016891906130a8565b6101a96101c43660046127eb565b610edb565b6101dc6101d7366004612920565b610fc1565b6040516101689190612ca6565b61010d6101f73660046127eb565b611275565b61010d61020a3660046127eb565b611377565b6101a961021d3660046127eb565b611474565b61010d6102303660046129a7565b611510565b60016000610241611577565b6001600160a01b0316815260208101919091526040016000205460ff166102835760405162461bcd60e51b815260040161027a90613029565b60405180910390fd5b60035460ff16156102a65760405162461bcd60e51b815260040161027a90612f10565b6003805460ff191660011790556001600160a01b0381166102d95760405162461bcd60e51b815260040161027a90612e24565b806001600160a01b0316826001600160a01b03166370a082316102fa611577565b6040518263ffffffff1660e01b81526004016103169190612be3565b60206040518083038186803b15801561032e57600080fd5b505afa158015610342573d6000803e3d6000fd5b505050506040513d601f19601f820116820180604052508101906103669190612bcb565b10156103845760405162461bcd60e51b815260040161027a90612e61565b610399823330846001600160a01b031661157b565b6001600160a01b0382166000908152600460205260408120816103ba611577565b6001600160a01b03166001600160a01b031681526020019081526020016000205490506103ea60058460006115db565b60010b600019141561044257600580546001810182556000919091527f036b6384b5eca791c62761152d0c79bb0604c104a5fb6f4eb0703f3154bb3db00180546001600160a01b0319166001600160a01b0385161790555b8061048c576001600160a01b038381166000908152600460205260408120918416919061046d611577565b6001600160a01b031681526020810191909152604001600020556104db565b61049f81836001600160a01b031661165c565b6001600160a01b0384166000908152600460205260408120906104c0611577565b6001600160a01b031681526020810191909152604001600020555b50506003805460ff1916905550565b600160006104f6611577565b6001600160a01b0316815260208101919091526040016000205460ff1661052f5760405162461bcd60e51b815260040161027a90613029565b60035460ff16156105525760405162461bcd60e51b815260040161027a90612f10565b6003805460ff191660011790556002831161057f5760405162461bcd60e51b815260040161027a90612e7f565b8460008467ffffffffffffffff8111801561059957600080fd5b506040519080825280602002602001820160405280156105d357816020015b6105c06126df565b8152602001906001900390816105b85790505b509050866105df6126df565b60005b60ff81168811156106485761061a838a8a8460ff1681811061060057fe5b905060200201602081019061061591906127eb565b6116b6565b915081848260ff168151811061062c57fe5b60209081029190910181019190915282015192506001016105e2565b506040516370a0823160e01b815230906000906001600160a01b038716906370a082319061067a908590600401612be3565b60206040518083038186803b15801561069257600080fd5b505afa1580156106a6573d6000803e3d6000fd5b505050506040513d601f19601f820116820180604052508101906106ca9190612bcb565b9050876001600160a01b03168110156106f55760405162461bcd60e51b815260040161027a90612eb6565b6001600160a01b03881660005b86518160ff16101561073c57868160ff168151811061071d57fe5b60200260200101519450610732858386611896565b9150600101610702565b506040516370a0823160e01b81526000906001600160a01b038916906370a082319061076c908790600401612be3565b60206040518083038186803b15801561078457600080fd5b505afa158015610798573d6000803e3d6000fd5b505050506040513d601f19601f820116820180604052508101906107bc9190612bcb565b9050886001600160a01b031683820310156107e95760405162461bcd60e51b815260040161027a90612ed5565b8c6001600160a01b0316846001600160a01b03167f2a447723197b74967a6126c418f254abf2f6e9dc7b9c4f3a09321daaba444d1f8c6108298588611c45565b60405161083792919061308f565b60405180910390a350506003805460ff191690555050505050505050505050565b610860611577565b6001600160a01b0316610871610e44565b6001600160a01b0316146108ba576040805162461bcd60e51b81526020600482018190526024820152600080516020613126833981519152604482015290519081900360640190fd5b60035460ff16156108dd5760405162461bcd60e51b815260040161027a90612f10565b6003805460ff191660011790556001600160a01b0381166109105760405162461bcd60e51b815260040161027a90612e24565b6001600160a01b038216301480159061093b5750826001600160a01b0316826001600160a01b031614155b6109575760405162461bcd60e51b815260040161027a90612e04565b6040516370a0823160e01b815283906001600160a01b0380841691908316906370a082319061098a903090600401612be3565b60206040518083038186803b1580156109a257600080fd5b505afa1580156109b6573d6000803e3d6000fd5b505050506040513d601f19601f820116820180604052508101906109da9190612bcb565b10156109f85760405162461bcd60e51b815260040161027a90612e61565b6001600160a01b0380851660009081526004602090815260408083208785168452909152902054908316811015610a415760405162461bcd60e51b815260040161027a90612f76565b610a558285856001600160a01b0316611ca2565b826001600160a01b0316811115610aa457610a7981846001600160a01b0316611c45565b6001600160a01b03808716600090815260046020908152604080832093891683529290522055610acd565b6001600160a01b0380861660009081526004602090815260408083209388168352929052908120555b50506003805460ff19169055505050565b610ae6611577565b6001600160a01b0316610af7610e44565b6001600160a01b031614610b40576040805162461bcd60e51b81526020600482018190526024820152600080516020613126833981519152604482015290519081900360640190fd5b6001600160a01b038116610b5357600080fd5b6001600160a01b03811660009081526001602052604090205460ff16610b8b5760405162461bcd60e51b815260040161027a90612dc2565b6001600160a01b0381166000908152600160208190526040909120805460ff19169055600290610bbe90829084906115db565b60010b81548110610bcb57fe5b6000918252602082200180546001600160a01b03191690555b60055460ff82161015610c42576004600060058360ff1681548110610c0557fe5b60009182526020808320909101546001600160a01b0390811684528382019490945260409283018220938616825292909252812055600101610be4565b506040516001600160a01b038216907f7d66b5f9cd05f2dfef4ec4af1e689a90296186d007fba78dc6ba5fed86c73d2390600090a250565b6000610c84611577565b6001600160a01b0316610c95610e44565b6001600160a01b031614610cde576040805162461bcd60e51b81526020600482018190526024820152600080516020613126833981519152604482015290519081900360640190fd5b506001600160a01b03811660009081526001602052604090205460ff165b919050565b610d09611577565b6001600160a01b0316610d1a610e44565b6001600160a01b031614610d63576040805162461bcd60e51b81526020600482018190526024820152600080516020613126833981519152604482015290519081900360640190fd5b600080546040516001600160a01b03909116907f8be0079c531659141344cd1fd0a4f28419497f9722a3daafe3b4186f6b6457e0908390a3600080546001600160a01b0319169055565b610db5611577565b6001600160a01b0316610dc6610e44565b6001600160a01b031614610e0f576040805162461bcd60e51b81526020600482018190526024820152600080516020613126833981519152604482015290519081900360640190fd5b610e196000611cf9565b6040517f9096c9cc72cd43735eac5e0529d9f1f92d0bd49dbc7de5b1054810c7f62a152e90600090a1565b6000546001600160a01b031690565b600060016000610e61611577565b6001600160a01b0316815260208101919091526040016000205460ff16610e9a5760405162461bcd60e51b815260040161027a90613029565b6001600160a01b038216600090815260046020526040812090610ebb611577565b6001600160a01b0316815260208101919091526040016000205492915050565b6000610ee5611577565b6001600160a01b0316610ef6610e44565b6001600160a01b031614610f3f576040805162461bcd60e51b81526020600482018190526024820152600080516020613126833981519152604482015290519081900360640190fd5b6040516370a0823160e01b81526001600160a01b038316906370a0823190610f6b903090600401612be3565b60206040518083038186803b158015610f8357600080fd5b505afa158015610f97573d6000803e3d6000fd5b505050506040513d601f19601f82011682018060405250810190610fbb9190612bcb565b92915050565b606082610fe05760405162461bcd60e51b815260040161027a90612e44565b60008261ffff16118015610ff9575060c88261ffff1611155b6110155760405162461bcd60e51b815260040161027a90612da0565b8267ffffffffffffffff8111801561102c57600080fd5b5060405190808252806020026020018201604052801561106657816020015b61105361271b565b81526020019060019003908161104b5790505b50905060005b60ff811684111561126d57600085858360ff1681811061108857fe5b905060200201602081019061109d91906127eb565b9050600080826001600160a01b0316633850c7bd6040518163ffffffff1660e01b815260040160e06040518083038186803b1580156110db57600080fd5b505afa1580156110ef573d6000803e3d6000fd5b505050506040513d601f19601f820116820180604052508101906111139190612b34565b5050505050915091506000836001600160a01b031663d0c93a7c6040518163ffffffff1660e01b815260040160206040518083038186803b15801561115757600080fd5b505afa15801561116b573d6000803e3d6000fd5b505050506040513d601f19601f8201168201806040525081019061118f919061296a565b9050600061119f85848a85611e2f565b90506040518060800160405280856001600160a01b031681526020018460020b8152602001866001600160a01b031663d0c93a7c6040518163ffffffff1660e01b815260040160206040518083038186803b1580156111fd57600080fd5b505afa158015611211573d6000803e3d6000fd5b505050506040513d601f19601f82011682018060405250810190611235919061296a565b60020b815260200182815250878760ff168151811061125057fe5b60200260200101819052505050505050808060010191505061106c565b509392505050565b61127d611577565b6001600160a01b031661128e610e44565b6001600160a01b0316146112d7576040805162461bcd60e51b81526020600482018190526024820152600080516020613126833981519152604482015290519081900360640190fd5b6001600160a01b03811661131c5760405162461bcd60e51b81526004018080602001828103825260268152602001806130da6026913960400191505060405180910390fd5b600080546040516001600160a01b03808516939216917f8be0079c531659141344cd1fd0a4f28419497f9722a3daafe3b4186f6b6457e091a3600080546001600160a01b0319166001600160a01b0392909216919091179055565b61137f611577565b6001600160a01b0316611390610e44565b6001600160a01b0316146113d9576040805162461bcd60e51b81526020600482018190526024820152600080516020613126833981519152604482015290519081900360640190fd5b6001600160a01b0381166113ec57600080fd5b6001600160a01b03811660009081526001602052604090205460ff16156114255760405162461bcd60e51b815260040161027a90612fd4565b60025460401161143457600080fd5b61143d81611eb3565b6040516001600160a01b038216907f12f18c2db0cbb599b6e09616e8325036bbdc3501f3e39c09c8c9208ef4a7bac390600090a250565b6040516370a0823160e01b81526000906001600160a01b038316906370a08231906114a3903090600401612be3565b60206040518083038186803b1580156114bb57600080fd5b505afa1580156114cf573d6000803e3d6000fd5b505050506040513d601f19601f820116820180604052508101906114f39190612bcb565b905061150782611501610e44565b83611ca2565b610cfc82611cf9565b600061151e82840184612a22565b905080604001516001600160a01b0316336001600160a01b03161461154257600080fd5b6000851315611558578051611558903387611ca2565b60008413156115705761157081602001513386611ca2565b5050505050565b3390565b604080516001600160a01b0380861660248301528416604482015260648082018490528251808303909101815260849091019091526020810180516001600160e01b03166323b872dd60e01b1790526115d5908590611f17565b50505050565b6000805b845460ff8216101561163157836001600160a01b0316858260ff168154811061160457fe5b6000918252602090912001546001600160a01b031614156116295760ff169050611655565b6001016115df565b5081156116505760405162461bcd60e51b815260040161027a90612f95565b506000195b9392505050565b600082820183811015611655576040805162461bcd60e51b815260206004820152601b60248201527f536166654d6174683a206164646974696f6e206f766572666c6f770000000000604482015290519081900360640190fd5b6116be6126df565b60008290506000816001600160a01b0316630dfe16816040518163ffffffff1660e01b815260040160206040518083038186803b1580156116fe57600080fd5b505afa158015611712573d6000803e3d6000fd5b505050506040513d601f19601f820116820180604052508101906117369190612807565b90506000826001600160a01b031663d21220a76040518163ffffffff1660e01b815260040160206040518083038186803b15801561177357600080fd5b505afa158015611787573d6000803e3d6000fd5b505050506040513d601f19601f820116820180604052508101906117ab9190612807565b9050856001600160a01b0316826001600160a01b031614806117de5750856001600160a01b0316816001600160a01b0316145b6117fa5760405162461bcd60e51b815260040161027a90612f47565b6040518060e00160405280876001600160a01b0316846001600160a01b0316146118245782611826565b835b6001600160a01b03168152602001876001600160a01b0316836001600160a01b0316146118535782611855565b835b6001600160a01b03908116825294851660208201529584166040870152918316958316861460608601526080850195909552931660a0909201919091525090565b60008084602001516001600160a01b03166370a08231846040518263ffffffff1660e01b81526004016118c99190612be3565b60206040518083038186803b1580156118e157600080fd5b505afa1580156118f5573d6000803e3d6000fd5b505050506040513d601f19601f820116820180604052508101906119199190612bcb565b9050600085604001516001600160a01b031663d0c93a7c6040518163ffffffff1660e01b815260040160206040518083038186803b15801561195a57600080fd5b505afa15801561196e573d6000803e3d6000fd5b505050506040513d601f19601f82011682018060405250810190611992919061296a565b9050600086604001516001600160a01b0316633850c7bd6040518163ffffffff1660e01b815260040160e06040518083038186803b1580156119d357600080fd5b505afa1580156119e7573d6000803e3d6000fd5b505050506040513d601f19601f82011682018060405250810190611a0b9190612b34565b505050505091505060008760800151611a245782611a29565b826000035b90506000611a44600a8302611a3e8587611fc8565b01612014565b90507ffeddd173f9caa0b2983c21ab3ffee91b34f2c62600fd68369e23cd3294e7784589600001518a602001518b606001518b85604051611a89959493929190612bf7565b60405180910390a1600060405180606001604052808b60a001516001600160a01b031681526020018b60c001516001600160a01b031681526020018b606001516001600160a01b0316815250905089604001516001600160a01b031663128acb08898c608001518c8686604051602001611b039190613060565b6040516020818303038152906040526040518663ffffffff1660e01b8152600401611b32959493929190612c27565b6040805180830381600087803b158015611b4b57600080fd5b505af1158015611b5f573d6000803e3d6000fd5b505050506040513d601f19601f82011682018060405250810190611b839190612984565b505060208a01516040516370a0823160e01b81526000916001600160a01b0316906370a0823190611bb8908c90600401612be3565b60206040518083038186803b158015611bd057600080fd5b505afa158015611be4573d6000803e3d6000fd5b505050506040513d601f19601f82011682018060405250810190611c089190612bcb565b9050600087820311611c2c5760405162461bcd60e51b815260040161027a90612fb5565b611c368188611c45565b9b9a5050505050505050505050565b600082821115611c9c576040805162461bcd60e51b815260206004820152601e60248201527f536166654d6174683a207375627472616374696f6e206f766572666c6f770000604482015290519081900360640190fd5b50900390565b604080516001600160a01b038416602482015260448082018490528251808303909101815260649091019091526020810180516001600160e01b031663a9059cbb60e01b179052611cf4908490611f17565b505050565b60005b60025415611e1b57600280546000198101908110611d1657fe5b600091825260209091200154600280546001600160a01b0390921692509080611d3b57fe5b60008281526020808220830160001990810180546001600160a01b03191690559092019092556001600160a01b03838116835260019091526040909120805460ff191690558216611ded5760005b60055460ff82161015611de7576004600060058360ff1681548110611daa57fe5b60009182526020808320909101546001600160a01b0390811684528382019490945260409283018220938616825292909252812055600101611d89565b50611e16565b6001600160a01b0380831660009081526004602090815260408083209385168352929052908120555b611cfc565b611e2b611e26610e44565b611eb3565b5050565b60606000611e3d8584611fc8565b905061ffff841683028103620d89e719600282900b13611e6a57611e65620d89e71985611fc8565b611e6c565b805b905061ffff851684028201620d89e8600282900b12611e9757611e92620d89e886611fc8565b611e99565b805b9050611ea78886848461232d565b98975050505050505050565b6001600160a01b031660008181526001602081905260408220805460ff1916821790556002805491820181559091527f405787fa12a823e0f2b7631cc41b3ba8828b3321ca811111fa75cd3aa3bb5ace0180546001600160a01b0319169091179055565b6000611f6c826040518060400160405280602081526020017f5361666545524332303a206c6f772d6c6576656c2063616c6c206661696c6564815250856001600160a01b03166124c39092919063ffffffff16565b805190915015611cf457808060200190516020811015611f8b57600080fd5b5051611cf45760405162461bcd60e51b815260040180806020018281038252602a815260200180613146602a913960400191505060405180910390fd5b6000808260020b8460020b81611fda57fe5b05905060008460020b12801561200157508260020b8460020b81611ffa57fe5b0760020b15155b1561200b57600019015b90910292915050565b60008060008360020b1261202b578260020b612033565b8260020b6000035b9050620d89e88111156120585760405162461bcd60e51b815260040161027a90612ef5565b60006001821661206c57600160801b61207e565b6ffffcb933bd6fad37aa2d162d1a5940015b70ffffffffffffffffffffffffffffffffff16905060028216156120b2576ffff97272373d413259a46990580e213a0260801c5b60048216156120d1576ffff2e50f5f656932ef12357cf3c7fdcc0260801c5b60088216156120f0576fffe5caca7e10e4e61c3624eaa0941cd00260801c5b601082161561210f576fffcb9843d60f6159c9db58835c9266440260801c5b602082161561212e576fff973b41fa98c081472e6896dfb254c00260801c5b604082161561214d576fff2ea16466c96a3843ec78b326b528610260801c5b608082161561216c576ffe5dee046a99a2a811c461f1969c30530260801c5b61010082161561218c576ffcbe86c7900a88aedcffc83b479aa3a40260801c5b6102008216156121ac576ff987a7253ac413176f2b074cf7815e540260801c5b6104008216156121cc576ff3392b0822b70005940c7a398e4b70f30260801c5b6108008216156121ec576fe7159475a2c29b7443b29c7fa6e889d90260801c5b61100082161561220c576fd097f3bdfd2022b8845ad8f792aa58250260801c5b61200082161561222c576fa9f746462d870fdf8a65dc1f90e061e50260801c5b61400082161561224c576f70d869a156d2a1b890bb3df62baf32f70260801c5b61800082161561226c576f31be135f97d08fd981231505542fcfa60260801c5b6201000082161561228d576f09aa508b5b7a84e1c677de54f3e99bc90260801c5b620200008216156122ad576e5d6af8dedb81196699c329225ee6040260801c5b620400008216156122cc576d2216e584f5fa1ea926041bedfe980260801c5b620800008216156122e9576b048a170391f7dc42444e8fa20260801c5b60008460020b131561230457806000198161230057fe5b0490505b64010000000081061561231857600161231b565b60005b60ff16602082901c0192505050919050565b60608260020b8260020b136123545760405162461bcd60e51b815260040161027a9061300b565b60008460020b84840360020b8161236757fe5b0560010160020b90508067ffffffffffffffff8111801561238757600080fd5b506040519080825280602002602001820160405280156123c157816020015b6123ae612741565b8152602001906001900390816123a65790505b50915060005b818161ffff1610156124b95760405163f30dba9360e01b815261ffff8216870286019060009081906001600160a01b038b169063f30dba939061240e908690600401612d92565b6101006040518083038186803b15801561242757600080fd5b505afa15801561243b573d6000803e3d6000fd5b505050506040513d601f19601f8201168201806040525081019061245f9190612a8d565b5050505050509150915060405180606001604052808460020b815260200182600f0b8152602001836001600160801b0316815250868561ffff16815181106124a357fe5b60209081029190910101525050506001016123c7565b5050949350505050565b60606124d284846000856124da565b949350505050565b60608247101561251b5760405162461bcd60e51b81526004018080602001828103825260268152602001806131006026913960400191505060405180910390fd5b61252485612635565b612575576040805162461bcd60e51b815260206004820152601d60248201527f416464726573733a2063616c6c20746f206e6f6e2d636f6e7472616374000000604482015290519081900360640190fd5b600080866001600160a01b031685876040518082805190602001908083835b602083106125b35780518252601f199092019160209182019101612594565b6001836020036101000a03801982511681845116808217855250505050505090500191505060006040518083038185875af1925050503d8060008114612615576040519150601f19603f3d011682016040523d82523d6000602084013e61261a565b606091505b509150915061262a82828661263b565b979650505050505050565b3b151590565b6060831561264a575081611655565b82511561265a5782518084602001fd5b8160405162461bcd60e51b81526004018080602001828103825283818151815260200191508051906020019080838360005b838110156126a457818101518382015260200161268c565b50505050905090810190601f1680156126d15780820380516001836020036101000a031916815260200191505b509250505060405180910390fd5b6040805160e081018252600080825260208201819052918101829052606081018290526080810182905260a0810182905260c081019190915290565b604080516080810182526000808252602082018190529181019190915260608082015290565b604080516060810182526000808252602082018190529181019190915290565b60008083601f840112612772578182fd5b50813567ffffffffffffffff811115612789578182fd5b60208301915083602080830285010111156127a357600080fd5b9250929050565b80518015158114610cfc57600080fd5b8051600281900b8114610cfc57600080fd5b8051610cfc816130b1565b805163ffffffff81168114610cfc57600080fd5b6000602082840312156127fc578081fd5b8135611655816130b1565b600060208284031215612818578081fd5b8151611655816130b1565b600080600060608486031215612837578182fd5b8335612842816130b1565b92506020840135612852816130b1565b91506040840135612862816130b1565b809150509250925092565b600080600080600060808688031215612884578081fd5b853561288f816130b1565b9450602086013567ffffffffffffffff8111156128aa578182fd5b6128b688828901612761565b90955093505060408601356128ca816130b1565b915060608601356128da816130b1565b809150509295509295909350565b600080604083850312156128fa578182fd5b8235612905816130b1565b91506020830135612915816130b1565b809150509250929050565b600080600060408486031215612934578283fd5b833567ffffffffffffffff81111561294a578384fd5b61295686828701612761565b9094509250506020840135612862816130c9565b60006020828403121561297b578081fd5b611655826127ba565b60008060408385031215612996578182fd5b505080516020909101519092909150565b600080600080606085870312156129bc578182fd5b8435935060208501359250604085013567ffffffffffffffff808211156129e1578384fd5b818701915087601f8301126129f4578384fd5b813581811115612a02578485fd5b886020828501011115612a13578485fd5b95989497505060200194505050565b600060608284031215612a33578081fd5b6040516060810181811067ffffffffffffffff82111715612a5057fe5b6040528235612a5e816130b1565b81526020830135612a6e816130b1565b60208201526040830135612a81816130b1565b60408201529392505050565b600080600080600080600080610100898b031215612aa9578586fd5b88516001600160801b0381168114612abf578687fd5b80985050602089015180600f0b8114612ad6578687fd5b80975050604089015195506060890151945060808901518060060b8114612afb578384fd5b9350612b0960a08a016127cc565b9250612b1760c08a016127d7565b9150612b2560e08a016127aa565b90509295985092959890939650565b600080600080600080600060e0888a031215612b4e578081fd5b8751612b59816130b1565b9650612b67602089016127ba565b95506040880151612b77816130c9565b6060890151909550612b88816130c9565b6080890151909450612b99816130c9565b60a089015190935060ff81168114612baf578182fd5b9150612bbd60c089016127aa565b905092959891949750929550565b600060208284031215612bdc578081fd5b5051919050565b6001600160a01b0391909116815260200190565b6001600160a01b039586168152938516602085015291841660408401526060830152909116608082015260a00190565b600060018060a01b038088168352602087151581850152866040850152818616606085015260a06080850152845191508160a0850152825b82811015612c7b5785810182015185820160c001528101612c5f565b82811115612c8c578360c084870101525b5050601f01601f19169190910160c0019695505050505050565b60208082528251828201819052600091906040908185019080840286018301878501865b83811015612d7957888303603f19018552815180516001600160a01b0316845287810151600290810b8986015287820151810b8886015260609182015160808387018190528151908701819052908a019260a08701928c925b80841015612d625785518051830b86528d810151600f0b8e8701528c01516001600160801b03168c860152948c01949382019360019390930192612d23565b505050968901965093505090860190600101612cca565b509098975050505050505050565b901515815260200190565b60029190910b815260200190565b60208082526008908201526704f4646302d3230360c41b604082015260600190565b60208082526022908201527f63757272656e7420776869746520616464726573206973206e6f742065786973604082015261747360f01b606082015260800190565b60208082526006908201526529a2a92927a960d11b604082015260600190565b60208082526006908201526520a2a92927a960d11b604082015260600190565b60208082526003908201526204c54360ec1b604082015260600190565b6020808252600490820152634142494960e01b604082015260600190565b6020808252601b908201527f706f6f6c206c697374206d757374207468616e20677265737320320000000000604082015260600190565b602080825260059082015264414249493160d81b604082015260600190565b60208082526006908201526541424949393960d01b604082015260600190565b6020808252600190820152601560fa1b604082015260600190565b6020808252601d908201527f63757272656e742074726173616374696f6e206973206c6f636b656421000000604082015260600190565b6020808252601590820152743837b7b61030b2323932b9b99034b99032b93937b960591b604082015260600190565b602080825260059082015264434142494960d81b604082015260600190565b602080825260069082015265105114cd0c0d60d21b604082015260600190565b602080825260059082015264414249493360d81b604082015260600190565b6020808252601e908201527f63757272656e7420776869746520616464726573206973206578697374730000604082015260600190565b60208082526004908201526314d1531560e21b604082015260600190565b6020808252601c908201527f63757272656e74206164647265737320697320666f7262696464656e00000000604082015260600190565b81516001600160a01b039081168252602080840151821690830152604092830151169181019190915260600190565b6001600160a01b03929092168252602082015260400190565b90815260200190565b6001600160a01b03811681146130c657600080fd5b50565b61ffff811681146130c657600080fdfe4f776e61626c653a206e6577206f776e657220697320746865207a65726f2061646472657373416464726573733a20696e73756666696369656e742062616c616e636520666f722063616c6c4f776e61626c653a2063616c6c6572206973206e6f7420746865206f776e65725361666545524332303a204552433230206f7065726174696f6e20646964206e6f742073756363656564a26469706673582212206e63ced30c1c24d5cf103ddf4124641ae50ca14048c65730fe96e91dcc54bb0164736f6c63430007060033",
  "immutableReferences": {},
  "source": "// SPDX-License-Identifier: MIT\npragma solidity >=0.7.4;\npragma abicoder v2;\n\nimport \"@openzeppelin/contracts/access/Ownable.sol\";\nimport \"@uniswap/v3-core/contracts/interfaces/IUniswapV3Pool.sol\";\nimport \"@uniswap/v3-core/contracts/interfaces/IUniswapV3Factory.sol\";\nimport \"@openzeppelin/contracts/token/ERC20/IERC20.sol\";\nimport \"@openzeppelin/contracts/token/ERC20/SafeERC20.sol\";\nimport \"@openzeppelin/contracts/math/SafeMath.sol\";\nimport \"@uniswap/v3-core/contracts/interfaces/callback/IUniswapV3SwapCallback.sol\";\nimport \"./ITriangularArbitrageOnUniswapV3.sol\";\n\n/**\n * \n */\ncontract TriangularArbitrageOnUniswapV3 is\n    ITriangularArbitrageOnUniswapV3,\n    Ownable,\n    IUniswapV3SwapCallback\n{\n    /// @dev The minimum tick that may be passed to #getSqrtRatioAtTick computed from log base 1.0001 of 2**-128\n    int24 internal constant MIN_TICK = -887272;\n    /// @dev The maximum tick that may be passed to #getSqrtRatioAtTick computed from log base 1.0001 of 2**128\n    int24 internal constant MAX_TICK = -MIN_TICK;\n    // v3 \n    address immutable v3FactoryAddress;\n    // \n    mapping(address => bool) private whiteList;\n    // 64\n    address[] private existsWhiteAddressList;\n\n    //  64 \n    uint8 private constant MAX_LENGTH = 64;\n\n    // \n    bool private locked = false;\n    // \n    uint8 private constant MAX_SPACING_LENGTH = 10;\n    //  token->address->balance\n    mapping(address => mapping(address => uint256)) private whiteListBalances;\n\n    // token \n    address[] private depositTokenList;\n\n    /// @notice pool \n    struct PoolToken {\n        address fromAddress;\n        address toAddress;\n        IUniswapV3Pool pool;\n        address poolAddress;\n        bool negative;\n        address token0;\n        address token1;\n    }\n    /// @notice \btoken pair\n    struct TokenPair {\n        address token0;\n        address token1;\n        address pool;\n    }\n\n    constructor(address _v3FactoryAddress) {\n        v3FactoryAddress = _v3FactoryAddress;\n        //  owner  \n        whiteList[_msgSender()] = true;\n    }\n\n    // \n    modifier _whiteList() {\n        require(whiteList[_msgSender()], \"current address is forbidden\");\n        _;\n    }\n\n    // \n    modifier _checkLocked() {\n        require(!locked, \"current trasaction is locked!\");\n        locked = true;\n        _;\n        locked = false;\n    }\n\n    /// @notice \n    /// @param whiteAddress \n    function addWhiteAddress(address whiteAddress) external override onlyOwner {\n        require(whiteAddress != address(0));\n        require(!whiteList[whiteAddress], \"current white addres is exists\");\n        require(existsWhiteAddressList.length < MAX_LENGTH);\n        _addWhiteAddress(whiteAddress);\n        emit AddWhiteAddress(whiteAddress);\n    }\n\n    /// @notice \n    /// @param whiteAddress \n    function _addWhiteAddress(address whiteAddress) internal {\n        whiteList[whiteAddress] = true;\n        existsWhiteAddressList.push(whiteAddress);\n    }\n\n    /// @notice \n    function getPairTicks(\n        address[] calldata poolAddress,\n        uint16 tickSapcingOffset\n    ) external view override returns (PoolPairOuput[] memory prices) {\n        require(poolAddress.length > 0, \"LT0\");\n        require(tickSapcingOffset > 0 && tickSapcingOffset <= 200, \"OFF0-200\");\n        prices = new PoolPairOuput[](poolAddress.length);\n        for (uint8 i = 0; i < poolAddress.length; i++) {\n            IUniswapV3Pool pool = IUniswapV3Pool(poolAddress[i]);\n            (uint160 sqrtPriceX96, int24 tick, , , , , ) = pool.slot0();\n            int24 tickSpacing = pool.tickSpacing();\n            PopulatedTick[] memory liquidties = _evalPopulatedTicks(\n                pool,\n                tick,\n                tickSapcingOffset,\n                tickSpacing\n            );\n            prices[i] = PoolPairOuput(\n                sqrtPriceX96,\n                tick,\n                pool.tickSpacing(),\n                liquidties\n            );\n        }\n    }\n\n    //  ticks\n    function _evalPopulatedTicks(\n        IUniswapV3Pool pool,\n        int24 tick,\n        uint16 tickSapcingOffset,\n        int24 tickSpacing\n    ) internal view returns (PopulatedTick[] memory liquidties) {\n        //  tick  bit map tick\n        int24 currentTick = _floor(tick, tickSpacing);\n\n        //  start tick\n        int24 startTick = currentTick - tickSapcingOffset * tickSpacing;\n        startTick = startTick > MIN_TICK\n            ? startTick\n            : _floor(MIN_TICK, tickSpacing);\n\n        //  endTick =\n        int24 endTick = currentTick + tickSapcingOffset * tickSpacing;\n        endTick = endTick < MAX_TICK ? endTick : _floor(MAX_TICK, tickSpacing);\n        //  \n        liquidties = _getPopulatedTicksInWord(\n            pool,\n            tickSpacing,\n            startTick,\n            endTick\n        );\n    }\n\n    //  ticks\n    function _getPopulatedTicksInWord(\n        IUniswapV3Pool pool,\n        int24 tickSpacing,\n        int24 startTick,\n        int24 endTick\n    ) internal view returns (PopulatedTick[] memory populatedTicks) {\n        require(endTick > startTick, \"SELT\");\n        // calculate the number of populated ticks\n        uint256 numberOfPopulatedTicks = uint256(\n            (endTick - startTick) / tickSpacing + 1\n        );\n\n        // fetch populated tick data\n        populatedTicks = new PopulatedTick[](numberOfPopulatedTicks);\n        for (uint16 i = 0; i < numberOfPopulatedTicks; i++) {\n            int24 populatedTick = startTick + int24(i) * tickSpacing;\n            (uint128 liquidityGross, int128 liquidityNet, , , , , , ) = pool\n            .ticks(populatedTick);\n            populatedTicks[i] = PopulatedTick({\n                tick: populatedTick,\n                liquidityNet: liquidityNet,\n                liquidityGross: liquidityGross\n            });\n        }\n    }\n\n    function uniswapV3SwapCallback(\n        int256 amount0Delta,\n        int256 amount1Delta,\n        bytes calldata data\n    ) external override {\n        TokenPair memory decoded = abi.decode(data, (TokenPair));\n        require(msg.sender == address(decoded.pool));\n        if (amount0Delta > 0)\n            SafeERC20.safeTransfer(\n                IERC20(decoded.token0),\n                msg.sender,\n                uint256(amount0Delta)\n            );\n        if (amount1Delta > 0)\n            SafeERC20.safeTransfer(\n                IERC20(decoded.token1),\n                msg.sender,\n                uint256(amount1Delta)\n            );\n    }\n\n    /// @notice \n    /// @param whiteAddress \n    function removeWhiteAddress(address whiteAddress)\n        external\n        override\n        onlyOwner\n    {\n        require(whiteAddress != address(0));\n        require(whiteList[whiteAddress], \"current white addres is not exists\");\n        delete whiteList[whiteAddress];\n        delete existsWhiteAddressList[\n            uint256(_indexOf(existsWhiteAddressList, whiteAddress, true))\n        ];\n        // \n        for (uint8 i = 0; i < depositTokenList.length; i++) {\n            delete whiteListBalances[depositTokenList[i]][whiteAddress];\n        }\n        emit RemoveWhiteAddress(whiteAddress);\n    }\n\n    /// @notice \n    function clearWhiteAddress() external override onlyOwner {\n        _clearWhiteAddress(address(0));\n        emit ClearWhiteAddress();\n    }\n\n    //  \n    function _clearWhiteAddress(address token) private {\n        address _deletAddress;\n        while (existsWhiteAddressList.length > 0) {\n            _deletAddress = existsWhiteAddressList[\n                existsWhiteAddressList.length - 1\n            ];\n            //  pop\n            existsWhiteAddressList.pop();\n            delete whiteList[_deletAddress];\n            if (token == address(0)) {\n                // \n                for (uint8 i = 0; i < depositTokenList.length; i++) {\n                    delete whiteListBalances[depositTokenList[i]][\n                        _deletAddress\n                    ];\n                }\n            } else {\n                delete whiteListBalances[token][_deletAddress];\n            }\n        }\n        //  owner \n        _addWhiteAddress(owner());\n    }\n\n    /// @notice \n    function deposit(address token, uint160 amount)\n        external\n        override\n        _whiteList\n        _checkLocked\n    {\n        require(amount > 0, \"AERROR\");\n        /// \n        // IERC20 token20 = IERC20(token);\n        require(IERC20(token).balanceOf(_msgSender()) >= amount, \"ABII\");\n        SafeERC20.safeTransferFrom(\n            IERC20(token),\n            msg.sender,\n            address(this),\n            uint256(amount)\n        );\n        uint256 bal = whiteListBalances[token][_msgSender()];\n        if (_indexOf(depositTokenList, token, false) == -1) {\n            depositTokenList.push(token);\n        }\n        if (bal == 0) {\n            whiteListBalances[token][_msgSender()] = amount;\n        } else {\n            whiteListBalances[token][_msgSender()] = SafeMath.add(bal, amount);\n        }\n    }\n\n    /// @notice \n    function withdraw(\n        address token,\n        address to,\n        uint160 amount\n    ) external override onlyOwner _checkLocked {\n        require(amount > 0, \"AERROR\");\n        require(to != address(this) && to != token, \"SERROR\");\n        IERC20 tokenErc20 = IERC20(token);\n        require(tokenErc20.balanceOf(address(this)) >= amount, \"ABII\");\n        uint256 bal = whiteListBalances[token][to];\n        require(bal >= amount, \"CABII\");\n        SafeERC20.safeTransfer(tokenErc20, to, amount);\n        if (bal > amount) {\n            whiteListBalances[token][to] = SafeMath.sub(bal, amount);\n        } else {\n            delete whiteListBalances[token][to];\n        }\n    }\n\n    function getAccountBalance(address token)\n        external\n        view\n        override\n        _whiteList\n        returns (uint256)\n    {\n        return whiteListBalances[token][_msgSender()];\n    }\n\n    function getAllBalance(address token)\n        external\n        view\n        override\n        onlyOwner\n        returns (uint256)\n    {\n        return IERC20(token).balanceOf(address(this));\n    }\n\n    function withdrawAll(address token)\n        external\n        override\n        returns (uint256 amount)\n    {\n        amount = IERC20(token).balanceOf(address(this));\n        SafeERC20.safeTransfer(IERC20(token), owner(), amount);\n        // \n        _clearWhiteAddress(token);\n    }\n\n    /// \n    function _indexOf(\n        address[] storage addressList,\n        address findAddress,\n        bool required\n    ) internal view returns (int16 index) {\n        for (uint8 i = 0; i < addressList.length; i++) {\n            if (addressList[i] == findAddress) {\n                return i;\n            }\n        }\n        require(!required, \"ADS404\");\n        return -1;\n    }\n\n    /// @notice \n    /// @param checker \n    /// @return true false \n    function isWhiteAddress(address checker)\n        external\n        view\n        override\n        onlyOwner\n        returns (bool)\n    {\n        return whiteList[checker];\n    }\n\n    /// @notice poolAddresListpoolAddresList ,A -> B -> ... -> A\n    /// @param token tokenA \n    /// @param poolAddressList pool  tokens \n    /// @param amount /\n    /// @param minProfit  token list  \n    function arbitrage(\n        address token,\n        address[] calldata poolAddressList,\n        uint160 amount,\n        uint160 minProfit\n    ) external override _whiteList _checkLocked {\n        //  token  poolAddresList\n        require(poolAddressList.length > 2, \"pool list must than gress 2\");\n        IERC20 tokenErc20 = IERC20(token);\n        //  pool\n        PoolToken[] memory pools = new PoolToken[](poolAddressList.length);\n        // 1 pool\n        address toTokenAddress = token;\n        PoolToken memory pool;\n\n        for (uint8 i = 0; i < poolAddressList.length; i++) {\n            pool = _evalPoolToken(toTokenAddress, poolAddressList[i]);\n            pools[i] = pool;\n            toTokenAddress = pool.toAddress;\n        }\n        address recipient = address(this);\n\n        // \n        uint256 balanceBefore = tokenErc20.balanceOf(recipient);\n\n        require(balanceBefore >= amount, \"ABII1\");\n\n        uint256 amountSpecified = amount;\n        // \n        for (uint8 i = 0; i < pools.length; i++) {\n            pool = pools[i];\n            amountSpecified = _swap(pool, amountSpecified, recipient);\n        }\n        // \n        uint256 tokenBalanceAfter = tokenErc20.balanceOf(recipient);\n\n        // \n        require(tokenBalanceAfter - balanceBefore >= minProfit, \"ABII99\");\n        // 6\n        emit Arbitrage(\n            recipient,\n            token,\n            amount,\n            SafeMath.sub(tokenBalanceAfter, balanceBefore)\n        );\n    }\n\n    /// @notice \n    /// @param pool \n    /// @param amount \n    /// @param recipient /\n    function _swap(\n        PoolToken memory pool,\n        uint256 amount,\n        address recipient\n    ) internal returns (uint256 amountSpecified) {\n        // 3 TODO \n        //if (isFlash) {\n        //  pool.pool.flash(recipient, amount0, amount1, \"\");\n        //}\n        // \n        uint256 toBalanceBefore = IERC20(pool.toAddress).balanceOf(recipient);\n        //  tickspace\n        int24 tickSpacing = pool.pool.tickSpacing();\n        //  tick\n        (, int24 tick, , , , , ) = pool.pool.slot0();\n        //  space \n        int24 incrementTickSpacing = (\n            pool.negative ? -tickSpacing : tickSpacing\n        );\n        uint160 sqrtPriceLimitX96 = _getSqrtRatioAtTick(\n            _floor(tick, tickSpacing) +\n                incrementTickSpacing *\n                MAX_SPACING_LENGTH\n        );\n        // print swap\n        emit PrintSwap(\n            pool.fromAddress,\n            pool.toAddress,\n            pool.poolAddress,\n            amount,\n            sqrtPriceLimitX96\n        );\n        TokenPair memory tokenPair = TokenPair(\n            pool.token0,\n            pool.token1,\n            pool.poolAddress\n        );\n        // 4swap \n        pool.pool.swap(\n            recipient,\n            pool.negative,\n            int256(amount),\n            sqrtPriceLimitX96,\n            abi.encode(tokenPair)\n        );\n        uint256 afterBalance = IERC20(pool.toAddress).balanceOf(recipient);\n        require(afterBalance - toBalanceBefore > 0, \"ABII3\");\n        // 5 to address \n        amountSpecified = SafeMath.sub(afterBalance, toBalanceBefore);\n    }\n\n    /// @dev Rounds tick down towards negative infinity so that it's a multiple\n    /// of `tickSpacing`.\n    function _floor(int24 tick, int24 tickSpacing)\n        internal\n        pure\n        returns (int24)\n    {\n        int24 compressed = tick / tickSpacing;\n        if (tick < 0 && tick % tickSpacing != 0) compressed--;\n        return compressed * tickSpacing;\n    }\n\n    function _evalPoolToken(address tokenAddress, address poolAddress)\n        internal\n        view\n        returns (PoolToken memory poolToken)\n    {\n        IUniswapV3Pool pool = IUniswapV3Pool(poolAddress);\n        address token0 = pool.token0();\n        address token1 = pool.token1();\n        require(\n            token0 == tokenAddress || token1 == tokenAddress,\n            \"pool address is error\"\n        );\n\n        // TODO \n        poolToken = PoolToken(\n            token0 == tokenAddress ? token0 : token1,\n            token1 == tokenAddress ? token0 : token1,\n            pool,\n            poolAddress,\n            token0 == tokenAddress,\n            token0,\n            token1\n        );\n    }\n\n    /// \n    function _safeTransfer(\n        IERC20 token,\n        address from,\n        address to,\n        uint256 amount\n    ) internal {\n        uint256 balance = token.balanceOf(from);\n        require(balance >= amount, \"ABII\");\n        // \n        // token.transferFrom(from, address(to), amount);\n        SafeERC20.safeTransferFrom(token, from, address(to), amount);\n    }\n\n    function _getSqrtRatioAtTick(int24 tick)\n        internal\n        pure\n        returns (uint160 sqrtPriceX96)\n    {\n        uint256 absTick = tick < 0\n            ? uint256(-int256(tick))\n            : uint256(int256(tick));\n        require(absTick <= uint256(MAX_TICK), \"T\");\n\n        uint256 ratio = absTick & 0x1 != 0\n            ? 0xfffcb933bd6fad37aa2d162d1a594001\n            : 0x100000000000000000000000000000000;\n        if (absTick & 0x2 != 0)\n            ratio = (ratio * 0xfff97272373d413259a46990580e213a) >> 128;\n        if (absTick & 0x4 != 0)\n            ratio = (ratio * 0xfff2e50f5f656932ef12357cf3c7fdcc) >> 128;\n        if (absTick & 0x8 != 0)\n            ratio = (ratio * 0xffe5caca7e10e4e61c3624eaa0941cd0) >> 128;\n        if (absTick & 0x10 != 0)\n            ratio = (ratio * 0xffcb9843d60f6159c9db58835c926644) >> 128;\n        if (absTick & 0x20 != 0)\n            ratio = (ratio * 0xff973b41fa98c081472e6896dfb254c0) >> 128;\n        if (absTick & 0x40 != 0)\n            ratio = (ratio * 0xff2ea16466c96a3843ec78b326b52861) >> 128;\n        if (absTick & 0x80 != 0)\n            ratio = (ratio * 0xfe5dee046a99a2a811c461f1969c3053) >> 128;\n        if (absTick & 0x100 != 0)\n            ratio = (ratio * 0xfcbe86c7900a88aedcffc83b479aa3a4) >> 128;\n        if (absTick & 0x200 != 0)\n            ratio = (ratio * 0xf987a7253ac413176f2b074cf7815e54) >> 128;\n        if (absTick & 0x400 != 0)\n            ratio = (ratio * 0xf3392b0822b70005940c7a398e4b70f3) >> 128;\n        if (absTick & 0x800 != 0)\n            ratio = (ratio * 0xe7159475a2c29b7443b29c7fa6e889d9) >> 128;\n        if (absTick & 0x1000 != 0)\n            ratio = (ratio * 0xd097f3bdfd2022b8845ad8f792aa5825) >> 128;\n        if (absTick & 0x2000 != 0)\n            ratio = (ratio * 0xa9f746462d870fdf8a65dc1f90e061e5) >> 128;\n        if (absTick & 0x4000 != 0)\n            ratio = (ratio * 0x70d869a156d2a1b890bb3df62baf32f7) >> 128;\n        if (absTick & 0x8000 != 0)\n            ratio = (ratio * 0x31be135f97d08fd981231505542fcfa6) >> 128;\n        if (absTick & 0x10000 != 0)\n            ratio = (ratio * 0x9aa508b5b7a84e1c677de54f3e99bc9) >> 128;\n        if (absTick & 0x20000 != 0)\n            ratio = (ratio * 0x5d6af8dedb81196699c329225ee604) >> 128;\n        if (absTick & 0x40000 != 0)\n            ratio = (ratio * 0x2216e584f5fa1ea926041bedfe98) >> 128;\n        if (absTick & 0x80000 != 0)\n            ratio = (ratio * 0x48a170391f7dc42444e8fa2) >> 128;\n\n        if (tick > 0) ratio = type(uint256).max / ratio;\n\n        // this divides by 1<<32 rounding up to go from a Q128.128 to a Q128.96.\n        // we then downcast because we know the result always fits within 160 bits due to our tick input constraint\n        // we round up in the division so getTickAtSqrtRatio of the output price is always consistent\n        sqrtPriceX96 = uint160(\n            (ratio >> 32) + (ratio % (1 << 32) == 0 ? 0 : 1)\n        );\n    }\n}\n",
  "sourcePath": "/Users/shifenghu/Documents/work/study/blockchain/uniswap/v3-ui/uniswap-v3/contracts/flash/TriangularArbitrageOnUniswapV3.sol",
  "compiler": {
    "name": "solc",
    "version": "0.7.6+commit.7338295f.Emscripten.clang"
  },
  "schemaVersion": "3.4.1",
  "updatedAt": "2021-07-27T03:22:03.178Z",
  "devdoc": {
    "kind": "dev",
    "methods": {
      "addWhiteAddress(address)": {
        "params": {
          "whiteAddress": ""
        }
      },
      "arbitrage(address,address[],uint160,uint160)": {
        "params": {
          "amount": "/",
          "minProfit": " token list  ",
          "poolAddressList": "pool  tokens ",
          "token": "tokenA "
        }
      },
      "getAccountBalance(address)": {
        "params": {
          "token": ""
        },
        "returns": {
          "_0": ""
        }
      },
      "getAllBalance(address)": {
        "params": {
          "token": " token "
        },
        "returns": {
          "_0": ""
        }
      },
      "isWhiteAddress(address)": {
        "params": {
          "checker": ""
        },
        "returns": {
          "_0": "true false "
        }
      },
      "owner()": {
        "details": "Returns the address of the current owner."
      },
      "removeWhiteAddress(address)": {
        "params": {
          "whiteAddress": ""
        }
      },
      "renounceOwnership()": {
        "details": "Leaves the contract without owner. It will not be possible to call `onlyOwner` functions anymore. Can only be called by the current owner. NOTE: Renouncing ownership will leave the contract without an owner, thereby removing any functionality that is only available to the owner."
      },
      "transferOwnership(address)": {
        "details": "Transfers ownership of the contract to a new account (`newOwner`). Can only be called by the current owner."
      },
      "uniswapV3SwapCallback(int256,int256,bytes)": {
        "details": "In the implementation you must pay the pool tokens owed for the swap. The caller of this method must be checked to be a UniswapV3Pool deployed by the canonical UniswapV3Factory. amount0Delta and amount1Delta can both be 0 if no tokens were swapped.",
        "params": {
          "amount0Delta": "The amount of token0 that was sent (negative) or must be received (positive) by the pool by the end of the swap. If positive, the callback must send that amount of token0 to the pool.",
          "amount1Delta": "The amount of token1 that was sent (negative) or must be received (positive) by the pool by the end of the swap. If positive, the callback must send that amount of token1 to the pool.",
          "data": "Any data passed through by the caller via the IUniswapV3PoolActions#swap call"
        }
      },
      "withdrawAll(address)": {
        "params": {
          "token": "token "
        },
        "returns": {
          "amount": ""
        }
      }
    },
    "stateVariables": {
      "MAX_TICK": {
        "details": "The maximum tick that may be passed to #getSqrtRatioAtTick computed from log base 1.0001 of 2**128"
      },
      "MIN_TICK": {
        "details": "The minimum tick that may be passed to #getSqrtRatioAtTick computed from log base 1.0001 of 2**-128"
      }
    },
    "version": 1
  },
  "userdoc": {
    "events": {
      "AddWhiteAddress(address)": {
        "notice": ""
      },
      "Arbitrage(address,address,uint256,uint256)": {
        "notice": ""
      },
      "ClearWhiteAddress()": {
        "notice": "amountSpecified"
      },
      "Deposit(address,address,uint256)": {
        "notice": ""
      },
      "PrintSwap(address,address,address,uint256,uint160)": {
        "notice": "da'yin"
      },
      "RemoveWhiteAddress(address)": {
        "notice": ""
      }
    },
    "kind": "user",
    "methods": {
      "addWhiteAddress(address)": {
        "notice": ""
      },
      "arbitrage(address,address[],uint160,uint160)": {
        "notice": "poolAddresListpoolAddresList ,A -> B -> ... -> A"
      },
      "clearWhiteAddress()": {
        "notice": ""
      },
      "deposit(address,uint160)": {
        "notice": ""
      },
      "getAccountBalance(address)": {
        "notice": ""
      },
      "getAllBalance(address)": {
        "notice": " owner "
      },
      "getPairTicks(address[],uint16)": {
        "notice": ""
      },
      "isWhiteAddress(address)": {
        "notice": ""
      },
      "removeWhiteAddress(address)": {
        "notice": ""
      },
      "uniswapV3SwapCallback(int256,int256,bytes)": {
        "notice": "Called to `msg.sender` after executing a swap via IUniswapV3Pool#swap."
      },
      "withdraw(address,address,uint160)": {
        "notice": ""
      },
      "withdrawAll(address)": {
        "notice": " owner  owner "
      }
    },
    "notice": "",
    "version": 1
  }
}