{
  "contractName": "UniswapV3PoolWrapper",
  "abi": [
    {
      "inputs": [
        {
          "internalType": "address",
          "name": "poolAddress",
          "type": "address"
        }
      ],
      "stateMutability": "nonpayable",
      "type": "constructor"
    },
    {
      "anonymous": false,
      "inputs": [
        {
          "indexed": false,
          "internalType": "uint256",
          "name": "amount0",
          "type": "uint256"
        },
        {
          "indexed": false,
          "internalType": "uint256",
          "name": "amount1",
          "type": "uint256"
        }
      ],
      "name": "PrintAmounts",
      "type": "event"
    },
    {
      "inputs": [],
      "name": "token0",
      "outputs": [
        {
          "internalType": "contract IERC20",
          "name": "",
          "type": "address"
        }
      ],
      "stateMutability": "view",
      "type": "function"
    },
    {
      "inputs": [],
      "name": "token1",
      "outputs": [
        {
          "internalType": "contract IERC20",
          "name": "",
          "type": "address"
        }
      ],
      "stateMutability": "view",
      "type": "function"
    },
    {
      "inputs": [
        {
          "internalType": "uint256",
          "name": "amount0",
          "type": "uint256"
        },
        {
          "internalType": "uint256",
          "name": "amount1",
          "type": "uint256"
        }
      ],
      "name": "deposit",
      "outputs": [],
      "stateMutability": "nonpayable",
      "type": "function"
    },
    {
      "inputs": [
        {
          "internalType": "uint256",
          "name": "amount0Owed",
          "type": "uint256"
        },
        {
          "internalType": "uint256",
          "name": "amount1Owed",
          "type": "uint256"
        },
        {
          "internalType": "bytes",
          "name": "data",
          "type": "bytes"
        }
      ],
      "name": "uniswapV3MintCallback",
      "outputs": [],
      "stateMutability": "nonpayable",
      "type": "function"
    },
    {
      "inputs": [
        {
          "internalType": "int24",
          "name": "tickLower",
          "type": "int24"
        },
        {
          "internalType": "int24",
          "name": "tickUpper",
          "type": "int24"
        },
        {
          "internalType": "uint128",
          "name": "amount",
          "type": "uint128"
        },
        {
          "internalType": "bytes",
          "name": "data",
          "type": "bytes"
        }
      ],
      "name": "mint",
      "outputs": [
        {
          "internalType": "uint256",
          "name": "amount0",
          "type": "uint256"
        },
        {
          "internalType": "uint256",
          "name": "amount1",
          "type": "uint256"
        }
      ],
      "stateMutability": "nonpayable",
      "type": "function"
    },
    {
      "inputs": [
        {
          "internalType": "bool",
          "name": "zeroForOne",
          "type": "bool"
        },
        {
          "internalType": "int256",
          "name": "amountSpecified",
          "type": "int256"
        },
        {
          "internalType": "uint160",
          "name": "sqrtPriceLimitX96",
          "type": "uint160"
        },
        {
          "internalType": "bytes",
          "name": "data",
          "type": "bytes"
        }
      ],
      "name": "swap",
      "outputs": [
        {
          "internalType": "int256",
          "name": "",
          "type": "int256"
        },
        {
          "internalType": "int256",
          "name": "",
          "type": "int256"
        }
      ],
      "stateMutability": "nonpayable",
      "type": "function"
    },
    {
      "inputs": [
        {
          "internalType": "int256",
          "name": "amount0Delta",
          "type": "int256"
        },
        {
          "internalType": "int256",
          "name": "amount1Delta",
          "type": "int256"
        },
        {
          "internalType": "bytes",
          "name": "data",
          "type": "bytes"
        }
      ],
      "name": "uniswapV3SwapCallback",
      "outputs": [],
      "stateMutability": "nonpayable",
      "type": "function"
    }
  ],
  "bytecode": "0x60c060405234801561001057600080fd5b50604051610c4b380380610c4b8339818101604052602081101561003357600080fd5b5051600080546001600160a01b0319166001600160a01b03808416919091179182905560408051630dfe168160e01b815290519290911691630dfe168191600480820192602092909190829003018186803b15801561009157600080fd5b505afa1580156100a5573d6000803e3d6000fd5b505050506040513d60208110156100bb57600080fd5b505160601b6001600160601b0319166080526000546040805163d21220a760e01b815290516001600160a01b039092169163d21220a791600480820192602092909190829003018186803b15801561011257600080fd5b505afa158015610126573d6000803e3d6000fd5b505050506040513d602081101561013c57600080fd5b5051606081811b6001600160601b03191660a052608051901c91506001600160a01b0316610ab061019b6000398061052a528061059f5280610608528061068c525080610300528061056e52806105d652806106585250610ab06000f3fe608060405234801561001057600080fd5b506004361061007d5760003560e01c8063d21220a71161005b578063d21220a7146101dd578063d3487997146101e5578063e2bbb15814610261578063fa461e33146102845761007d565b80630dfe1681146100825780631ea888f2146100a6578063a38ef67214610151575b600080fd5b61008a6102fe565b604080516001600160a01b039092168252519081900360200190f35b610138600480360360808110156100bc57600080fd5b8135600290810b92602081013590910b916001600160801b036040830135169190810190608081016060820135600160201b8111156100fa57600080fd5b82018360208201111561010c57600080fd5b803590602001918460018302840111600160201b8311171561012d57600080fd5b509092509050610322565b6040805192835260208301919091528051918290030190f35b6101386004803603608081101561016757600080fd5b81351515916020810135916001600160a01b036040830135169190810190608081016060820135600160201b81111561019f57600080fd5b8201836020820111156101b157600080fd5b803590602001918460018302840111600160201b831117156101d257600080fd5b509092509050610445565b61008a610528565b61025f600480360360608110156101fb57600080fd5b813591602081013591810190606081016040820135600160201b81111561022157600080fd5b82018360208201111561023357600080fd5b803590602001918460018302840111600160201b8311171561025457600080fd5b50909250905061054c565b005b61025f6004803603604081101561027757600080fd5b50803590602001356105cb565b61025f6004803603606081101561029a57600080fd5b813591602081013591810190606081016040820135600160201b8111156102c057600080fd5b8201836020820111156102d257600080fd5b803590602001918460018302840111600160201b831117156102f357600080fd5b509092509050610633565b7f000000000000000000000000000000000000000000000000000000000000000081565b60008054604051633c8a7d8d60e01b8152306004820181815260028a810b602485015289900b60448401526001600160801b038816606484015260a06084840190815260a4840187905285946001600160a01b031693633c8a7d8d93928c928c928c928c928c9260c401848480828437600081840152601f19601f8201169050808301925050509750505050505050506040805180830381600087803b1580156103cb57600080fd5b505af11580156103df573d6000803e3d6000fd5b505050506040513d60408110156103f557600080fd5b5080516020918201516040805183815293840182905280519295509093507fc3aa8adff69ba2ea104da0349504166431fe89aa22be5b1f3f6e5b908431149d928290030190a19550959350505050565b60008054604051630251596160e31b815230600482018181528915156024840152604483018990526001600160a01b03888116606485015260a06084850190815260a485018890528695919091169363128acb0893928c928c928c928c928c9260c401848480828437600081840152601f19601f8201169050808301925050509750505050505050506040805180830381600087803b1580156104e757600080fd5b505af11580156104fb573d6000803e3d6000fd5b505050506040513d604081101561051157600080fd5b508051602090910151909890975095505050505050565b7f000000000000000000000000000000000000000000000000000000000000000081565b6000546001600160a01b0316331461056357600080fd5b8315610594576105947f000000000000000000000000000000000000000000000000000000000000000033866106ae565b82156105c5576105c57f000000000000000000000000000000000000000000000000000000000000000033856106ae565b50505050565b81156105fd576105fd7f0000000000000000000000000000000000000000000000000000000000000000333085610705565b801561062f5761062f7f0000000000000000000000000000000000000000000000000000000000000000333084610705565b5050565b6000546001600160a01b0316331461064a57600080fd5b600084131561067e5761067e7f000000000000000000000000000000000000000000000000000000000000000033866106ae565b60008313156105c5576105c57f000000000000000000000000000000000000000000000000000000000000000033855b604080516001600160a01b038416602482015260448082018490528251808303909101815260649091019091526020810180516001600160e01b031663a9059cbb60e01b17905261070090849061075b565b505050565b604080516001600160a01b0380861660248301528416604482015260648082018490528251808303909101815260849091019091526020810180516001600160e01b03166323b872dd60e01b1790526105c59085905b60006107b0826040518060400160405280602081526020017f5361666545524332303a206c6f772d6c6576656c2063616c6c206661696c6564815250856001600160a01b031661080c9092919063ffffffff16565b805190915015610700578080602001905160208110156107cf57600080fd5b50516107005760405162461bcd60e51b815260040180806020018281038252602a815260200180610a51602a913960400191505060405180910390fd5b606061081b8484600085610825565b90505b9392505050565b6060824710156108665760405162461bcd60e51b8152600401808060200182810382526026815260200180610a2b6026913960400191505060405180910390fd5b61086f85610980565b6108c0576040805162461bcd60e51b815260206004820152601d60248201527f416464726573733a2063616c6c20746f206e6f6e2d636f6e7472616374000000604482015290519081900360640190fd5b600080866001600160a01b031685876040518082805190602001908083835b602083106108fe5780518252601f1990920191602091820191016108df565b6001836020036101000a03801982511681845116808217855250505050505090500191505060006040518083038185875af1925050503d8060008114610960576040519150601f19603f3d011682016040523d82523d6000602084013e610965565b606091505b5091509150610975828286610986565b979650505050505050565b3b151590565b6060831561099557508161081e565b8251156109a55782518084602001fd5b8160405162461bcd60e51b81526004018080602001828103825283818151815260200191508051906020019080838360005b838110156109ef5781810151838201526020016109d7565b50505050905090810190601f168015610a1c5780820380516001836020036101000a031916815260200191505b509250505060405180910390fdfe416464726573733a20696e73756666696369656e742062616c616e636520666f722063616c6c5361666545524332303a204552433230206f7065726174696f6e20646964206e6f742073756363656564a264697066735822122080eb9bf0d88e1e7e5e0e03b6ab5017158a6a7e7be940b34246c1920159e116ea64736f6c63430007060033",
  "immutableReferences": {
    "3608": [
      {
        "length": 32,
        "start": 768
      },
      {
        "length": 32,
        "start": 1390
      },
      {
        "length": 32,
        "start": 1494
      },
      {
        "length": 32,
        "start": 1624
      }
    ],
    "3610": [
      {
        "length": 32,
        "start": 1322
      },
      {
        "length": 32,
        "start": 1439
      },
      {
        "length": 32,
        "start": 1544
      },
      {
        "length": 32,
        "start": 1676
      }
    ]
  },
  "source": "// SPDX-License-Identifier: MIT\npragma solidity >=0.7.4;\nimport \"../interfaces/IUniswapV3Pool.sol\";\nimport \"../interfaces/callback/IUniswapV3MintCallback.sol\";\nimport \"../interfaces/callback/IUniswapV3SwapCallback.sol\";\nimport \"@openzeppelin/contracts/token/ERC20/IERC20.sol\";\nimport \"@openzeppelin/contracts/token/ERC20/SafeERC20.sol\";\n\ncontract UniswapV3PoolWrapper is\n    IUniswapV3MintCallback,\n    IUniswapV3SwapCallback\n{\n    IUniswapV3Pool pool;\n    IERC20 public immutable token0;\n    IERC20 public immutable token1;\n\n    constructor(address poolAddress) {\n        pool = IUniswapV3Pool(poolAddress);\n        token0 = IERC20(pool.token0());\n        token1 = IERC20(pool.token1());\n    }\n\n    function deposit(uint256 amount0, uint256 amount1) external {\n        if (amount0 > 0)\n            SafeERC20.safeTransferFrom(\n                token0,\n                msg.sender,\n                address(this),\n                amount0\n            );\n        if (amount1 > 0)\n            SafeERC20.safeTransferFrom(\n                token1,\n                msg.sender,\n                address(this),\n                amount1\n            );\n    }\n\n    function uniswapV3MintCallback(\n        uint256 amount0Owed,\n        uint256 amount1Owed,\n        bytes calldata data\n    ) external override {\n        require(msg.sender == address(pool));\n        if (amount0Owed > 0)\n            SafeERC20.safeTransfer(token0, msg.sender, amount0Owed);\n        if (amount1Owed > 0)\n            SafeERC20.safeTransfer(token1, msg.sender, amount1Owed);\n    }\n\n    function mint(\n        int24 tickLower,\n        int24 tickUpper,\n        uint128 amount,\n        bytes calldata data\n    ) external returns (uint256 amount0, uint256 amount1) {\n        (amount0, amount1) = pool.mint(\n            address(this),\n            tickLower,\n            tickUpper,\n            amount,\n            data\n        );\n        emit PrintAmounts(amount0, amount1);\n    }\n\n    function swap(\n        bool zeroForOne,\n        int256 amountSpecified,\n        uint160 sqrtPriceLimitX96,\n        bytes calldata data\n    ) external returns (int256, int256) {\n        return\n            pool.swap(\n                address(this),\n                zeroForOne,\n                amountSpecified,\n                sqrtPriceLimitX96,\n                data\n            );\n    }\n\n    function uniswapV3SwapCallback(\n        int256 amount0Delta,\n        int256 amount1Delta,\n        bytes calldata data\n    ) external override {\n        require(msg.sender == address(pool));\n        if (amount0Delta > 0)\n            SafeERC20.safeTransfer(token0, msg.sender, uint256(amount0Delta));\n        if (amount1Delta > 0)\n            SafeERC20.safeTransfer(token1, msg.sender, uint256(amount1Delta));\n    }\n\n    event PrintAmounts(uint256 amount0, uint256 amount1);\n}\n",
  "sourcePath": "/Users/shifenghu/Documents/work/study/blockchain/uniswap/v3-ui/uniswap-v3/contracts/flash/UniswapV3PoolWrapper.sol",
  "compiler": {
    "name": "solc",
    "version": "0.7.6+commit.7338295f.Emscripten.clang"
  },
  "schemaVersion": "3.4.1",
  "updatedAt": "2021-07-26T10:27:11.655Z",
  "devdoc": {
    "kind": "dev",
    "methods": {
      "uniswapV3MintCallback(uint256,uint256,bytes)": {
        "details": "In the implementation you must pay the pool tokens owed for the minted liquidity. The caller of this method must be checked to be a UniswapV3Pool deployed by the canonical UniswapV3Factory.",
        "params": {
          "amount0Owed": "The amount of token0 due to the pool for the minted liquidity",
          "amount1Owed": "The amount of token1 due to the pool for the minted liquidity",
          "data": "Any data passed through by the caller via the IUniswapV3PoolActions#mint call"
        }
      },
      "uniswapV3SwapCallback(int256,int256,bytes)": {
        "details": "In the implementation you must pay the pool tokens owed for the swap. The caller of this method must be checked to be a UniswapV3Pool deployed by the canonical UniswapV3Factory. amount0Delta and amount1Delta can both be 0 if no tokens were swapped.",
        "params": {
          "amount0Delta": "The amount of token0 that was sent (negative) or must be received (positive) by the pool by the end of the swap. If positive, the callback must send that amount of token0 to the pool.",
          "amount1Delta": "The amount of token1 that was sent (negative) or must be received (positive) by the pool by the end of the swap. If positive, the callback must send that amount of token1 to the pool.",
          "data": "Any data passed through by the caller via the IUniswapV3PoolActions#swap call"
        }
      }
    },
    "version": 1
  },
  "userdoc": {
    "kind": "user",
    "methods": {
      "uniswapV3MintCallback(uint256,uint256,bytes)": {
        "notice": "Called to `msg.sender` after minting liquidity to a position from IUniswapV3Pool#mint."
      },
      "uniswapV3SwapCallback(int256,int256,bytes)": {
        "notice": "Called to `msg.sender` after executing a swap via IUniswapV3Pool#swap."
      }
    },
    "version": 1
  }
}