{
  "contractName": "UniswapV3PoolDeployer",
  "abi": [
    {
      "inputs": [],
      "name": "parameters",
      "outputs": [
        {
          "internalType": "address",
          "name": "factory",
          "type": "address"
        },
        {
          "internalType": "address",
          "name": "token0",
          "type": "address"
        },
        {
          "internalType": "address",
          "name": "token1",
          "type": "address"
        },
        {
          "internalType": "uint24",
          "name": "fee",
          "type": "uint24"
        },
        {
          "internalType": "int24",
          "name": "tickSpacing",
          "type": "int24"
        }
      ],
      "stateMutability": "view",
      "type": "function"
    }
  ],
  "bytecode": "0x608060405234801561001057600080fd5b5060e18061001f6000396000f3fe6080604052348015600f57600080fd5b506004361060285760003560e01c80638903573014602d575b600080fd5b60336075565b604080516001600160a01b0396871681529486166020860152929094168383015262ffffff16606083015260029290920b608082015290519081900360a00190f35b600054600154600280546001600160a01b03938416939283169281169162ffffff600160a01b83041691600160b81b9004900b8556fea2646970667358221220f7df2a21f871b8b41f5f11990e574255312482a129863d80ac01c43a9ed6116f64736f6c63430007060033",
  "immutableReferences": {},
  "source": "// SPDX-License-Identifier: BUSL-1.1\npragma solidity >=0.7.6;\n\nimport \"../interfaces/IUniswapV3PoolDeployer.sol\";\n\nimport \"./UniswapV3Pool.sol\";\n\ncontract UniswapV3PoolDeployer is IUniswapV3PoolDeployer {\n    struct Parameters {\n        address factory;\n        address token0;\n        address token1;\n        uint24 fee;\n        int24 tickSpacing;\n    }\n\n    /// @inheritdoc IUniswapV3PoolDeployer\n    Parameters public override parameters;\n\n    /// @dev Deploys a pool with the given parameters by transiently setting the parameters storage slot and then\n    /// clearing it after deploying the pool.\n    /// @param factory The contract address of the Uniswap V3 factory\n    /// @param token0 The first token of the pool by address sort order\n    /// @param token1 The second token of the pool by address sort order\n    /// @param fee The fee collected upon every swap in the pool, denominated in hundredths of a bip\n    /// @param tickSpacing The spacing between usable ticks\n    function deploy(\n        address factory,\n        address token0,\n        address token1,\n        uint24 fee,\n        int24 tickSpacing\n    ) internal returns (address pool) {\n        // 初始化参数, 工厂合约、TOKEN 地址，手续费，手续费，tick space 大小\n        parameters = Parameters({\n            factory: factory,\n            token0: token0,\n            token1: token1,\n            fee: fee,\n            tickSpacing: tickSpacing\n        });\n        // 开始初始化 pool ，合约地址计算 使用sal,以便于 token 和 fee 不变的情况下，pool 不变，能从外部计算address\n        pool = address(\n            new UniswapV3Pool{\n                salt: keccak256(abi.encode(token0, token1, fee))\n            }()\n        );\n        // TODO 这里为嘛又要删除他呢\n        // 由于需要 UniswapV3Pool  address 的地址可以只跟 salt 有关，而 initcode/creationCode  不变，这里就需要 UniswapV3Pool constructor 不能包含参数，所以这里的 param 需要先存储，然后让 UniswapV3Pool 可以取到\n        //用完删除即可\n        delete parameters;\n    }\n}\n",
  "sourcePath": "/Users/shifenghu/Documents/work/study/blockchain/uniswap/v3-ui/uniswap-v3/contracts/factory/UniswapV3PoolDeployer.sol",
  "compiler": {
    "name": "solc",
    "version": "0.7.6+commit.7338295f.Emscripten.clang"
  },
  "schemaVersion": "3.4.1",
  "updatedAt": "2021-07-25T02:20:03.854Z",
  "devdoc": {
    "kind": "dev",
    "methods": {},
    "stateVariables": {
      "parameters": {
        "details": "Called by the pool constructor to fetch the parameters of the pool Returns factory The factory address Returns token0 The first token of the pool by address sort order Returns token1 The second token of the pool by address sort order Returns fee The fee collected upon every swap in the pool, denominated in hundredths of a bip Returns tickSpacing The minimum number of ticks between initialized ticks"
      }
    },
    "version": 1
  },
  "userdoc": {
    "kind": "user",
    "methods": {
      "parameters()": {
        "notice": "Get the parameters to be used in constructing the pool, set transiently during pool creation."
      }
    },
    "version": 1
  }
}