{
  "contractName": "V3Migrator",
  "abi": [
    {
      "inputs": [
        {
          "internalType": "address",
          "name": "_factory",
          "type": "address"
        },
        {
          "internalType": "address",
          "name": "_WETH9",
          "type": "address"
        },
        {
          "internalType": "address",
          "name": "_nonfungiblePositionManager",
          "type": "address"
        }
      ],
      "stateMutability": "nonpayable",
      "type": "constructor"
    },
    {
      "inputs": [],
      "name": "WETH9",
      "outputs": [
        {
          "internalType": "address",
          "name": "",
          "type": "address"
        }
      ],
      "stateMutability": "view",
      "type": "function"
    },
    {
      "inputs": [
        {
          "internalType": "address",
          "name": "token0",
          "type": "address"
        },
        {
          "internalType": "address",
          "name": "token1",
          "type": "address"
        },
        {
          "internalType": "uint24",
          "name": "fee",
          "type": "uint24"
        },
        {
          "internalType": "uint160",
          "name": "sqrtPriceX96",
          "type": "uint160"
        }
      ],
      "name": "createAndInitializePoolIfNecessary",
      "outputs": [
        {
          "internalType": "address",
          "name": "poolAddress",
          "type": "address"
        }
      ],
      "stateMutability": "payable",
      "type": "function"
    },
    {
      "inputs": [],
      "name": "factory",
      "outputs": [
        {
          "internalType": "address",
          "name": "",
          "type": "address"
        }
      ],
      "stateMutability": "view",
      "type": "function"
    },
    {
      "inputs": [
        {
          "internalType": "bytes[]",
          "name": "data",
          "type": "bytes[]"
        }
      ],
      "name": "multicall",
      "outputs": [
        {
          "internalType": "bytes[]",
          "name": "results",
          "type": "bytes[]"
        }
      ],
      "stateMutability": "payable",
      "type": "function"
    },
    {
      "inputs": [],
      "name": "nonfungiblePositionManager",
      "outputs": [
        {
          "internalType": "address",
          "name": "",
          "type": "address"
        }
      ],
      "stateMutability": "view",
      "type": "function"
    },
    {
      "inputs": [
        {
          "internalType": "address",
          "name": "token",
          "type": "address"
        },
        {
          "internalType": "uint256",
          "name": "value",
          "type": "uint256"
        },
        {
          "internalType": "uint256",
          "name": "deadline",
          "type": "uint256"
        },
        {
          "internalType": "uint8",
          "name": "v",
          "type": "uint8"
        },
        {
          "internalType": "bytes32",
          "name": "r",
          "type": "bytes32"
        },
        {
          "internalType": "bytes32",
          "name": "s",
          "type": "bytes32"
        }
      ],
      "name": "selfPermit",
      "outputs": [],
      "stateMutability": "payable",
      "type": "function"
    },
    {
      "inputs": [
        {
          "internalType": "address",
          "name": "token",
          "type": "address"
        },
        {
          "internalType": "uint256",
          "name": "nonce",
          "type": "uint256"
        },
        {
          "internalType": "uint256",
          "name": "expiry",
          "type": "uint256"
        },
        {
          "internalType": "uint8",
          "name": "v",
          "type": "uint8"
        },
        {
          "internalType": "bytes32",
          "name": "r",
          "type": "bytes32"
        },
        {
          "internalType": "bytes32",
          "name": "s",
          "type": "bytes32"
        }
      ],
      "name": "selfPermitAllowed",
      "outputs": [],
      "stateMutability": "payable",
      "type": "function"
    },
    {
      "inputs": [
        {
          "internalType": "address",
          "name": "token",
          "type": "address"
        },
        {
          "internalType": "uint256",
          "name": "nonce",
          "type": "uint256"
        },
        {
          "internalType": "uint256",
          "name": "expiry",
          "type": "uint256"
        },
        {
          "internalType": "uint8",
          "name": "v",
          "type": "uint8"
        },
        {
          "internalType": "bytes32",
          "name": "r",
          "type": "bytes32"
        },
        {
          "internalType": "bytes32",
          "name": "s",
          "type": "bytes32"
        }
      ],
      "name": "selfPermitAllowedIfNecessary",
      "outputs": [],
      "stateMutability": "payable",
      "type": "function"
    },
    {
      "inputs": [
        {
          "internalType": "address",
          "name": "token",
          "type": "address"
        },
        {
          "internalType": "uint256",
          "name": "value",
          "type": "uint256"
        },
        {
          "internalType": "uint256",
          "name": "deadline",
          "type": "uint256"
        },
        {
          "internalType": "uint8",
          "name": "v",
          "type": "uint8"
        },
        {
          "internalType": "bytes32",
          "name": "r",
          "type": "bytes32"
        },
        {
          "internalType": "bytes32",
          "name": "s",
          "type": "bytes32"
        }
      ],
      "name": "selfPermitIfNecessary",
      "outputs": [],
      "stateMutability": "payable",
      "type": "function"
    },
    {
      "stateMutability": "payable",
      "type": "receive"
    },
    {
      "inputs": [
        {
          "components": [
            {
              "internalType": "address",
              "name": "pair",
              "type": "address"
            },
            {
              "internalType": "uint256",
              "name": "liquidityToMigrate",
              "type": "uint256"
            },
            {
              "internalType": "uint8",
              "name": "percentageToMigrate",
              "type": "uint8"
            },
            {
              "internalType": "address",
              "name": "token0",
              "type": "address"
            },
            {
              "internalType": "address",
              "name": "token1",
              "type": "address"
            },
            {
              "internalType": "uint24",
              "name": "fee",
              "type": "uint24"
            },
            {
              "internalType": "int24",
              "name": "tickLower",
              "type": "int24"
            },
            {
              "internalType": "int24",
              "name": "tickUpper",
              "type": "int24"
            },
            {
              "internalType": "uint256",
              "name": "amount0Min",
              "type": "uint256"
            },
            {
              "internalType": "uint256",
              "name": "amount1Min",
              "type": "uint256"
            },
            {
              "internalType": "address",
              "name": "recipient",
              "type": "address"
            },
            {
              "internalType": "uint256",
              "name": "deadline",
              "type": "uint256"
            },
            {
              "internalType": "bool",
              "name": "refundAsETH",
              "type": "bool"
            }
          ],
          "internalType": "struct IV3Migrator.MigrateParams",
          "name": "params",
          "type": "tuple"
        }
      ],
      "name": "migrate",
      "outputs": [],
      "stateMutability": "nonpayable",
      "type": "function"
    }
  ],
  "bytecode": "0x60e06040523480156200001157600080fd5b5060405162001a3c38038062001a3c833981016040819052620000349162000079565b6001600160601b0319606093841b811660805291831b821660a05290911b1660c052620000c2565b80516001600160a01b03811681146200007457600080fd5b919050565b6000806000606084860312156200008e578283fd5b62000099846200005c565b9250620000a9602085016200005c565b9150620000b9604085016200005c565b90509250925092565b60805160601c60a05160601c60c05160601c61190e6200012e600039806107795280610a445280610a7e5280610aa85280610c5152508060a5528061057c5280610c9d5280610cf45280610dcf5280610e2652508061020852806102cf528061082c525061190e6000f3fe6080604052600436106100955760003560e01c8063b44a272211610059578063b44a272214610176578063c2e3140a1461018b578063c45a01551461019e578063d44f2bf2146101b3578063f3995c67146101d3576100ed565b806313ead562146100f25780634659a4941461011b5780634aa4a4fc1461012e578063a4a78f0c14610143578063ac9650d814610156576100ed565b366100ed57336001600160a01b037f000000000000000000000000000000000000000000000000000000000000000016146100eb5760405162461bcd60e51b81526004016100e29061172e565b60405180910390fd5b005b600080fd5b61010561010036600461132b565b6101e6565b6040516101129190611655565b60405180910390f35b6100eb610129366004611384565b6104e0565b34801561013a57600080fd5b5061010561057a565b6100eb610151366004611384565b61059e565b6101696101643660046113dd565b610637565b604051610112919061168d565b34801561018257600080fd5b50610105610777565b6100eb610199366004611384565b61079b565b3480156101aa57600080fd5b5061010561082a565b3480156101bf57600080fd5b506100eb6101ce36600461153c565b61084e565b6100eb6101e1366004611384565b610eba565b6000836001600160a01b0316856001600160a01b03161061020657600080fd5b7f00000000000000000000000000000000000000000000000000000000000000006001600160a01b0316631698ee828686866040518463ffffffff1660e01b815260040180846001600160a01b03168152602001836001600160a01b031681526020018262ffffff168152602001935050505060206040518083038186803b15801561029157600080fd5b505afa1580156102a5573d6000803e3d6000fd5b505050506040513d60208110156102bb57600080fd5b505190506001600160a01b0381166103f1577f00000000000000000000000000000000000000000000000000000000000000006001600160a01b031663a16712958686866040518463ffffffff1660e01b815260040180846001600160a01b03168152602001836001600160a01b031681526020018262ffffff1681526020019350505050602060405180830381600087803b15801561035a57600080fd5b505af115801561036e573d6000803e3d6000fd5b505050506040513d602081101561038457600080fd5b50516040805163f637731d60e01b81526001600160a01b03858116600483015291519293509083169163f637731d9160248082019260009290919082900301818387803b1580156103d457600080fd5b505af11580156103e8573d6000803e3d6000fd5b505050506104d8565b60008190506000816001600160a01b0316633850c7bd6040518163ffffffff1660e01b815260040160e06040518083038186803b15801561043157600080fd5b505afa158015610445573d6000803e3d6000fd5b505050506040513d60e081101561045b57600080fd5b505190506001600160a01b0381166104d557816001600160a01b031663f637731d856040518263ffffffff1660e01b815260040180826001600160a01b03168152602001915050600060405180830381600087803b1580156104bc57600080fd5b505af11580156104d0573d6000803e3d6000fd5b505050505b50505b949350505050565b604080516323f2ebc360e21b815233600482015230602482015260448101879052606481018690526001608482015260ff851660a482015260c4810184905260e4810183905290516001600160a01b03881691638fcbaf0c9161010480830192600092919082900301818387803b15801561055a57600080fd5b505af115801561056e573d6000803e3d6000fd5b50505050505050505050565b7f000000000000000000000000000000000000000000000000000000000000000081565b60408051636eb1769f60e11b81523360048201523060248201529051600019916001600160a01b0389169163dd62ed3e91604480820192602092909190829003018186803b1580156105ef57600080fd5b505afa158015610603573d6000803e3d6000fd5b505050506040513d602081101561061957600080fd5b5051101561062f5761062f8686868686866104e0565b505050505050565b60608167ffffffffffffffff8111801561065057600080fd5b5060405190808252806020026020018201604052801561068457816020015b606081526020019060019003908161066f5790505b50905060005b8281101561077057600080308686858181106106a257fe5b90506020028101906106b49190611836565b6040516106c2929190611645565b600060405180830381855af49150503d80600081146106fd576040519150601f19603f3d011682016040523d82523d6000602084013e610702565b606091505b50915091508161074e5760448151101561071b57600080fd5b6004810190508080602001905181019061073591906114a5565b60405162461bcd60e51b81526004016100e291906116ed565b8084848151811061075b57fe5b6020908102919091010152505060010161068a565b5092915050565b7f000000000000000000000000000000000000000000000000000000000000000081565b60408051636eb1769f60e11b8152336004820152306024820152905186916001600160a01b0389169163dd62ed3e91604480820192602092909190829003018186803b1580156107ea57600080fd5b505afa1580156107fe573d6000803e3d6000fd5b505050506040513d602081101561081457600080fd5b5051101561062f5761062f868686868686610eba565b7f000000000000000000000000000000000000000000000000000000000000000081565b600061086060608301604084016115e2565b60ff16116108805760405162461bcd60e51b81526004016100e290611700565b606461089260608301604084016115e2565b60ff1611156108b35760405162461bcd60e51b81526004016100e290611751565b6108c06020820182611308565b6001600160a01b03166323b872dd336108dc6020850185611308565b84602001356040518463ffffffff1660e01b81526004016108ff93929190611669565b602060405180830381600087803b15801561091957600080fd5b505af115801561092d573d6000803e3d6000fd5b505050506040513d601f19601f820116820180604052508101906109519190611468565b506000806109626020840184611308565b6001600160a01b03166389afcb44306040518263ffffffff1660e01b815260040161098d9190611655565b6040805180830381600087803b1580156109a657600080fd5b505af11580156109ba573d6000803e3d6000fd5b505050506040513d601f19601f820116820180604052508101906109de91906115bf565b909250905060006064610a046109fa60608701604088016115e2565b859060ff16610f2c565b81610a0b57fe5b04905060006064610a256109fa60608801604089016115e2565b81610a2c57fe5b049050610a69610a426080870160608801611308565b7f000000000000000000000000000000000000000000000000000000000000000084610f56565b610aa3610a7c60a0870160808801611308565b7f000000000000000000000000000000000000000000000000000000000000000083610f56565b6000807f00000000000000000000000000000000000000000000000000000000000000006001600160a01b031663883164566040518061016001604052808a6060016020810190610af49190611308565b6001600160a01b03168152602001610b1260a08c0160808d01611308565b6001600160a01b03168152602001610b3060c08c0160a08d01611554565b62ffffff168152602001610b4a60e08c0160c08d01611484565b60020b8152602001610b636101008c0160e08d01611484565b60020b815260208101889052604081018790526101008b013560608201526101208b0135608082015260a001610ba16101608c016101408d01611308565b6001600160a01b031681526020018a61016001358152506040518263ffffffff1660e01b8152600401610bd4919061177f565b608060405180830381600087803b158015610bee57600080fd5b505af1158015610c02573d6000803e3d6000fd5b505050506040513d601f19601f82011682018060405250810190610c26919061156e565b93509350505085821015610d865783821015610c7757610c77610c4f6080890160608a01611308565b7f00000000000000000000000000000000000000000000000000000000000000006000610f56565b818603610c8c6101a089016101808a0161144c565b8015610cd857506001600160a01b037f000000000000000000000000000000000000000000000000000000000000000016610ccd60808a0160608b01611308565b6001600160a01b0316145b15610d6a57604051632e1a7d4d60e01b81526001600160a01b037f00000000000000000000000000000000000000000000000000000000000000001690632e1a7d4d90610d2990849060040161182d565b600060405180830381600087803b158015610d4357600080fd5b505af1158015610d57573d6000803e3d6000fd5b50505050610d6533826110a4565b610d84565b610d84610d7d60808a0160608b01611308565b3383611198565b505b84811015610eb15782811015610da957610da9610c4f60a0890160808a01611308565b808503610dbe6101a089016101808a0161144c565b8015610e0a57506001600160a01b037f000000000000000000000000000000000000000000000000000000000000000016610dff60a08a0160808b01611308565b6001600160a01b0316145b15610e9c57604051632e1a7d4d60e01b81526001600160a01b037f00000000000000000000000000000000000000000000000000000000000000001690632e1a7d4d90610e5b90849060040161182d565b600060405180830381600087803b158015610e7557600080fd5b505af1158015610e89573d6000803e3d6000fd5b50505050610e9733826110a4565b610eaf565b610eaf610d7d60a08a0160808b01611308565b505b50505050505050565b6040805163d505accf60e01b8152336004820152306024820152604481018790526064810186905260ff8516608482015260a4810184905260c4810183905290516001600160a01b0388169163d505accf9160e480830192600092919082900301818387803b15801561055a57600080fd5b6000821580610f4757505081810281838281610f4457fe5b04145b610f5057600080fd5b92915050565b604080516001600160a01b038481166024830152604480830185905283518084039091018152606490920183526020820180516001600160e01b031663095ea7b360e01b1781529251825160009485949389169392918291908083835b60208310610fd25780518252601f199092019160209182019101610fb3565b6001836020036101000a0380198251168184511680821785525050505050509050019150506000604051808303816000865af19150503d8060008114611034576040519150601f19603f3d011682016040523d82523d6000602084013e611039565b606091505b5091509150818015611067575080511580611067575080806020019051602081101561106457600080fd5b50515b61109d576040805162461bcd60e51b8152602060048201526002602482015261534160f01b604482015290519081900360640190fd5b5050505050565b604080516000808252602082019092526001600160a01b0384169083906040518082805190602001908083835b602083106110f05780518252601f1990920191602091820191016110d1565b6001836020036101000a03801982511681845116808217855250505050505090500191505060006040518083038185875af1925050503d8060008114611152576040519150601f19603f3d011682016040523d82523d6000602084013e611157565b606091505b5050905080611193576040805162461bcd60e51b815260206004820152600360248201526253544560e81b604482015290519081900360640190fd5b505050565b604080516001600160a01b038481166024830152604480830185905283518084039091018152606490920183526020820180516001600160e01b031663a9059cbb60e01b1781529251825160009485949389169392918291908083835b602083106112145780518252601f1990920191602091820191016111f5565b6001836020036101000a0380198251168184511680821785525050505050509050019150506000604051808303816000865af19150503d8060008114611276576040519150601f19603f3d011682016040523d82523d6000602084013e61127b565b606091505b50915091508180156112a95750805115806112a957508080602001905160208110156112a657600080fd5b50515b61109d576040805162461bcd60e51b815260206004820152600260248201526114d560f21b604482015290519081900360640190fd5b803562ffffff811681146112f257600080fd5b919050565b803560ff811681146112f257600080fd5b600060208284031215611319578081fd5b8135611324816118b2565b9392505050565b60008060008060808587031215611340578283fd5b843561134b816118b2565b9350602085013561135b816118b2565b9250611369604086016112df565b91506060850135611379816118b2565b939692955090935050565b60008060008060008060c0878903121561139c578182fd5b86356113a7816118b2565b955060208701359450604087013593506113c3606088016112f7565b92506080870135915060a087013590509295509295509295565b600080602083850312156113ef578182fd5b823567ffffffffffffffff80821115611406578384fd5b818501915085601f830112611419578384fd5b813581811115611427578485fd5b866020808302850101111561143a578485fd5b60209290920196919550909350505050565b60006020828403121561145d578081fd5b8135611324816118ca565b600060208284031215611479578081fd5b8151611324816118ca565b600060208284031215611495578081fd5b81358060020b8114611324578182fd5b6000602082840312156114b6578081fd5b815167ffffffffffffffff808211156114cd578283fd5b818401915084601f8301126114e0578283fd5b8151818111156114ec57fe5b604051601f8201601f19168101602001838111828210171561150a57fe5b604052818152838201602001871015611521578485fd5b611532826020830160208701611882565b9695505050505050565b60006101a0828403121561154e578081fd5b50919050565b600060208284031215611565578081fd5b611324826112df565b60008060008060808587031215611583578384fd5b8451935060208501516fffffffffffffffffffffffffffffffff811681146115a9578384fd5b6040860151606090960151949790965092505050565b600080604083850312156115d1578182fd5b505080516020909101519092909150565b6000602082840312156115f3578081fd5b611324826112f7565b6001600160a01b03169052565b60008151808452611621816020860160208601611882565b601f01601f19169290920160200192915050565b60020b9052565b62ffffff169052565b6000828483379101908152919050565b6001600160a01b0391909116815260200190565b6001600160a01b039384168152919092166020820152604081019190915260600190565b6000602080830181845280855180835260408601915060408482028701019250838701855b828110156116e057603f198886030184526116ce858351611609565b945092850192908501906001016116b2565b5092979650505050505050565b6000602082526113246020830184611609565b60208082526014908201527314195c98d95b9d1859d9481d1bdbc81cdb585b1b60621b604082015260600190565b6020808252600990820152684e6f7420574554483960b81b604082015260600190565b60208082526014908201527350657263656e7461676520746f6f206c6172676560601b604082015260600190565b6000610160820190506117938284516115fc565b60208301516117a560208401826115fc565b5060408301516117b8604084018261163c565b5060608301516117cb6060840182611635565b5060808301516117de6080840182611635565b5060a083015160a083015260c083015160c083015260e083015160e08301526101008084015181840152506101208084015161181c828501826115fc565b505061014092830151919092015290565b90815260200190565b6000808335601e1984360301811261184c578283fd5b83018035915067ffffffffffffffff821115611866578283fd5b60200191503681900382131561187b57600080fd5b9250929050565b60005b8381101561189d578181015183820152602001611885565b838111156118ac576000848401525b50505050565b6001600160a01b03811681146118c757600080fd5b50565b80151581146118c757600080fdfea2646970667358221220845aa3b2a7e566b557b78854811ddf9206a1ccb338cd5447182fccf9611f27de64736f6c63430007060033",
  "immutableReferences": {
    "4301": [
      {
        "length": 32,
        "start": 520
      },
      {
        "length": 32,
        "start": 719
      },
      {
        "length": 32,
        "start": 2092
      }
    ],
    "4305": [
      {
        "length": 32,
        "start": 165
      },
      {
        "length": 32,
        "start": 1404
      },
      {
        "length": 32,
        "start": 3229
      },
      {
        "length": 32,
        "start": 3316
      },
      {
        "length": 32,
        "start": 3535
      },
      {
        "length": 32,
        "start": 3622
      }
    ],
    "17079": [
      {
        "length": 32,
        "start": 1913
      },
      {
        "length": 32,
        "start": 2628
      },
      {
        "length": 32,
        "start": 2686
      },
      {
        "length": 32,
        "start": 2728
      },
      {
        "length": 32,
        "start": 3153
      }
    ]
  },
  "source": "// SPDX-License-Identifier: GPL-2.0-or-later\npragma solidity >=0.7.6;\npragma abicoder v2;\n\nimport \"../libraries/LowGasSafeMath.sol\";\nimport \"../interfaces/IUniswapV2Pair.sol\";\n\nimport \"../interfaces/nonfungiable/INonfungiblePositionManager.sol\";\n\nimport \"../libraries/TransferHelper.sol\";\n\nimport \"../interfaces/IV3Migrator.sol\";\nimport \"../base/PeripheryImmutableState.sol\";\nimport \"../base/Multicall.sol\";\nimport \"../base/SelfPermit.sol\";\nimport \"../interfaces/external/IWETH9.sol\";\nimport \"../base/PoolInitializer.sol\";\n\n/// @title Uniswap V3 Migrator\ncontract V3Migrator is\n    IV3Migrator,\n    PeripheryImmutableState,\n    PoolInitializer,\n    Multicall,\n    SelfPermit\n{\n    using LowGasSafeMath for uint256;\n\n    address public immutable nonfungiblePositionManager;\n\n    constructor(\n        address _factory,\n        address _WETH9,\n        address _nonfungiblePositionManager\n    ) PeripheryImmutableState(_factory, _WETH9) {\n        nonfungiblePositionManager = _nonfungiblePositionManager;\n    }\n\n    receive() external payable {\n        require(msg.sender == WETH9, \"Not WETH9\");\n    }\n\n    function migrate(MigrateParams calldata params) external override {\n        require(params.percentageToMigrate > 0, \"Percentage too small\");\n        require(params.percentageToMigrate <= 100, \"Percentage too large\");\n\n        // burn v2 liquidity to this address\n        IUniswapV2Pair(params.pair).transferFrom(\n            msg.sender,\n            params.pair,\n            params.liquidityToMigrate\n        );\n        (uint256 amount0V2, uint256 amount1V2) = IUniswapV2Pair(params.pair)\n        .burn(address(this));\n\n        // calculate the amounts to migrate to v3\n        uint256 amount0V2ToMigrate = amount0V2.mul(params.percentageToMigrate) /\n            100;\n        uint256 amount1V2ToMigrate = amount1V2.mul(params.percentageToMigrate) /\n            100;\n\n        // approve the position manager up to the maximum token amounts\n        TransferHelper.safeApprove(\n            params.token0,\n            nonfungiblePositionManager,\n            amount0V2ToMigrate\n        );\n        TransferHelper.safeApprove(\n            params.token1,\n            nonfungiblePositionManager,\n            amount1V2ToMigrate\n        );\n\n        // mint v3 position\n        (\n            ,\n            ,\n            uint256 amount0V3,\n            uint256 amount1V3\n        ) = INonfungiblePositionManager(nonfungiblePositionManager).mint(\n            INonfungiblePositionManager.MintParams({\n                token0: params.token0,\n                token1: params.token1,\n                fee: params.fee,\n                tickLower: params.tickLower,\n                tickUpper: params.tickUpper,\n                amount0Desired: amount0V2ToMigrate,\n                amount1Desired: amount1V2ToMigrate,\n                amount0Min: params.amount0Min,\n                amount1Min: params.amount1Min,\n                recipient: params.recipient,\n                deadline: params.deadline\n            })\n        );\n\n        // if necessary, clear allowance and refund dust\n        if (amount0V3 < amount0V2) {\n            if (amount0V3 < amount0V2ToMigrate) {\n                TransferHelper.safeApprove(\n                    params.token0,\n                    nonfungiblePositionManager,\n                    0\n                );\n            }\n\n            uint256 refund0 = amount0V2 - amount0V3;\n            if (params.refundAsETH && params.token0 == WETH9) {\n                IWETH9(WETH9).withdraw(refund0);\n                TransferHelper.safeTransferETH(msg.sender, refund0);\n            } else {\n                TransferHelper.safeTransfer(params.token0, msg.sender, refund0);\n            }\n        }\n        if (amount1V3 < amount1V2) {\n            if (amount1V3 < amount1V2ToMigrate) {\n                TransferHelper.safeApprove(\n                    params.token1,\n                    nonfungiblePositionManager,\n                    0\n                );\n            }\n\n            uint256 refund1 = amount1V2 - amount1V3;\n            if (params.refundAsETH && params.token1 == WETH9) {\n                IWETH9(WETH9).withdraw(refund1);\n                TransferHelper.safeTransferETH(msg.sender, refund1);\n            } else {\n                TransferHelper.safeTransfer(params.token1, msg.sender, refund1);\n            }\n        }\n    }\n}\n",
  "sourcePath": "/Users/shifenghu/Documents/work/study/blockchain/uniswap/v3-ui/uniswap-v3/contracts/migrator/V3Magrator.sol",
  "compiler": {
    "name": "solc",
    "version": "0.7.6+commit.7338295f.Emscripten.clang"
  },
  "schemaVersion": "3.4.1",
  "updatedAt": "2021-07-25T02:20:03.869Z",
  "devdoc": {
    "kind": "dev",
    "methods": {
      "createAndInitializePoolIfNecessary(address,address,uint24,uint160)": {
        "details": "This method can be bundled with others via IMulticall for the first action (e.g. mint) performed against a pool",
        "params": {
          "fee": "The fee amount of the v3 pool for the specified token pair",
          "sqrtPriceX96": "The initial square root price of the pool as a Q64.96 value",
          "token0": "The contract address of token0 of the pool",
          "token1": "The contract address of token1 of the pool"
        },
        "returns": {
          "poolAddress": "Returns the pool address based on the pair of tokens and fee, will return the newly created pool address if necessary"
        }
      },
      "migrate((address,uint256,uint8,address,address,uint24,int24,int24,uint256,uint256,address,uint256,bool))": {
        "details": "Slippage protection is enforced via `amount{0,1}Min`, which should be a discount of the expected values of the maximum amount of v3 liquidity that the v2 liquidity can get. For the special case of migrating to an out-of-range position, `amount{0,1}Min` may be set to 0, enforcing that the position remains out of range",
        "params": {
          "params": "The params necessary to migrate v2 liquidity, encoded as `MigrateParams` in calldata"
        }
      },
      "multicall(bytes[])": {
        "details": "The `msg.value` should not be trusted for any method callable from multicall.",
        "params": {
          "data": "The encoded function data for each of the calls to make to this contract"
        },
        "returns": {
          "results": "The results from each of the calls passed in via data"
        }
      },
      "selfPermit(address,uint256,uint256,uint8,bytes32,bytes32)": {
        "details": "The `owner` is always msg.sender and the `spender` is always address(this).",
        "params": {
          "deadline": "A timestamp, the current blocktime must be less than or equal to this timestamp",
          "r": "Must produce valid secp256k1 signature from the holder along with `v` and `s`",
          "s": "Must produce valid secp256k1 signature from the holder along with `r` and `v`",
          "token": "The address of the token spent",
          "v": "Must produce valid secp256k1 signature from the holder along with `r` and `s`",
          "value": "The amount that can be spent of token"
        }
      },
      "selfPermitAllowed(address,uint256,uint256,uint8,bytes32,bytes32)": {
        "details": "The `owner` is always msg.sender and the `spender` is always address(this)",
        "params": {
          "expiry": "The timestamp at which the permit is no longer valid",
          "nonce": "The current nonce of the owner",
          "r": "Must produce valid secp256k1 signature from the holder along with `v` and `s`",
          "s": "Must produce valid secp256k1 signature from the holder along with `r` and `v`",
          "token": "The address of the token spent",
          "v": "Must produce valid secp256k1 signature from the holder along with `r` and `s`"
        }
      },
      "selfPermitAllowedIfNecessary(address,uint256,uint256,uint8,bytes32,bytes32)": {
        "details": "The `owner` is always msg.sender and the `spender` is always address(this) Can be used instead of #selfPermitAllowed to prevent calls from failing due to a frontrun of a call to #selfPermitAllowed.",
        "params": {
          "expiry": "The timestamp at which the permit is no longer valid",
          "nonce": "The current nonce of the owner",
          "r": "Must produce valid secp256k1 signature from the holder along with `v` and `s`",
          "s": "Must produce valid secp256k1 signature from the holder along with `r` and `v`",
          "token": "The address of the token spent",
          "v": "Must produce valid secp256k1 signature from the holder along with `r` and `s`"
        }
      },
      "selfPermitIfNecessary(address,uint256,uint256,uint8,bytes32,bytes32)": {
        "details": "The `owner` is always msg.sender and the `spender` is always address(this). Can be used instead of #selfPermit to prevent calls from failing due to a frontrun of a call to #selfPermit",
        "params": {
          "deadline": "A timestamp, the current blocktime must be less than or equal to this timestamp",
          "r": "Must produce valid secp256k1 signature from the holder along with `v` and `s`",
          "s": "Must produce valid secp256k1 signature from the holder along with `r` and `v`",
          "token": "The address of the token spent",
          "v": "Must produce valid secp256k1 signature from the holder along with `r` and `s`",
          "value": "The amount that can be spent of token"
        }
      }
    },
    "title": "Uniswap V3 Migrator",
    "version": 1
  },
  "userdoc": {
    "kind": "user",
    "methods": {
      "createAndInitializePoolIfNecessary(address,address,uint24,uint160)": {
        "notice": "Creates a new pool if it does not exist, then initializes if not initialized"
      },
      "migrate((address,uint256,uint8,address,address,uint24,int24,int24,uint256,uint256,address,uint256,bool))": {
        "notice": "Migrates liquidity to v3 by burning v2 liquidity and minting a new position for v3"
      },
      "multicall(bytes[])": {
        "notice": "Call multiple functions in the current contract and return the data from all of them if they all succeed"
      },
      "selfPermit(address,uint256,uint256,uint8,bytes32,bytes32)": {
        "notice": "Permits this contract to spend a given token from `msg.sender`"
      },
      "selfPermitAllowed(address,uint256,uint256,uint8,bytes32,bytes32)": {
        "notice": "Permits this contract to spend the sender's tokens for permit signatures that have the `allowed` parameter"
      },
      "selfPermitAllowedIfNecessary(address,uint256,uint256,uint8,bytes32,bytes32)": {
        "notice": "Permits this contract to spend the sender's tokens for permit signatures that have the `allowed` parameter"
      },
      "selfPermitIfNecessary(address,uint256,uint256,uint8,bytes32,bytes32)": {
        "notice": "Permits this contract to spend a given token from `msg.sender`"
      }
    },
    "version": 1
  }
}